{
	"contracts/week_1/votingmechanism.sol": {
		"Poll": {
			"abi": [
				{
					"inputs": [
						{
							"internalType": "string",
							"name": "_topic",
							"type": "string"
						},
						{
							"internalType": "string[]",
							"name": "_titles",
							"type": "string[]"
						},
						{
							"internalType": "uint256",
							"name": "_duration",
							"type": "uint256"
						},
						{
							"internalType": "enum Poll.Duration",
							"name": "_choice",
							"type": "uint8"
						}
					],
					"stateMutability": "nonpayable",
					"type": "constructor"
				},
				{
					"inputs": [
						{
							"internalType": "uint256",
							"name": "_id",
							"type": "uint256"
						}
					],
					"name": "castVote",
					"outputs": [],
					"stateMutability": "nonpayable",
					"type": "function"
				},
				{
					"inputs": [],
					"name": "seeResults",
					"outputs": [
						{
							"internalType": "uint256[]",
							"name": "",
							"type": "uint256[]"
						},
						{
							"internalType": "string[]",
							"name": "",
							"type": "string[]"
						},
						{
							"internalType": "uint256[]",
							"name": "",
							"type": "uint256[]"
						}
					],
					"stateMutability": "view",
					"type": "function"
				},
				{
					"inputs": [],
					"name": "topic",
					"outputs": [
						{
							"internalType": "string",
							"name": "",
							"type": "string"
						}
					],
					"stateMutability": "view",
					"type": "function"
				}
			],
			"devdoc": {
				"kind": "dev",
				"methods": {},
				"version": 1
			},
			"evm": {
				"assembly": "    /* \"contracts/week_1/votingmechanism.sol\":622:3859  contract Poll {... */\n  mstore(0x40, 0xc0)\n    /* \"contracts/week_1/votingmechanism.sol\":1452:2398  constructor(... */\n  callvalue\n  dup1\n  iszero\n  tag_1\n  jumpi\n  0x00\n  dup1\n  revert\ntag_1:\n  pop\n  mload(0x40)\n  sub(codesize, bytecodeSize)\n  dup1\n  bytecodeSize\n  dup4\n  codecopy\n  dup2\n  dup2\n  add\n  0x40\n  mstore\n  dup2\n  add\n  swap1\n  tag_2\n  swap2\n  swap1\n  tag_3\n  jump\t// in\ntag_2:\n    /* \"contracts/week_1/votingmechanism.sol\":1649:1655  _topic */\n  dup4\n    /* \"contracts/week_1/votingmechanism.sol\":1641:1646  topic */\n  0x00\n    /* \"contracts/week_1/votingmechanism.sol\":1641:1655  topic = _topic */\n  swap1\n  dup2\n  tag_6\n  swap2\n  swap1\n  tag_7\n  jump\t// in\ntag_6:\n  pop\n    /* \"contracts/week_1/votingmechanism.sol\":1729:1739  msg.sender */\n  caller\n    /* \"contracts/week_1/votingmechanism.sol\":1719:1739  creator = msg.sender */\n  0xffffffffffffffffffffffffffffffffffffffff\n  and\n  0x80\n  dup2\n  0xffffffffffffffffffffffffffffffffffffffff\n  and\n  dup2\n  mstore\n  pop\n  pop\n    /* \"contracts/week_1/votingmechanism.sol\":1760:1775  block.timestamp */\n  timestamp\n    /* \"contracts/week_1/votingmechanism.sol\":1750:1775  created = block.timestamp */\n  0xa0\n  dup2\n  dup2\n  mstore\n  pop\n  pop\n    /* \"contracts/week_1/votingmechanism.sol\":1847:1860  Duration.HOUR */\n  0x00\n    /* \"contracts/week_1/votingmechanism.sol\":1836:1860  _choice == Duration.HOUR */\n  0x02\n  dup2\n  gt\n  iszero\n  tag_8\n  jumpi\n  tag_9\n  tag_10\n  jump\t// in\ntag_9:\ntag_8:\n    /* \"contracts/week_1/votingmechanism.sol\":1836:1843  _choice */\n  dup2\n    /* \"contracts/week_1/votingmechanism.sol\":1836:1860  _choice == Duration.HOUR */\n  0x02\n  dup2\n  gt\n  iszero\n  tag_11\n  jumpi\n  tag_12\n  tag_10\n  jump\t// in\ntag_12:\ntag_11:\n  sub\n    /* \"contracts/week_1/votingmechanism.sol\":1831:2217  if ( _choice == Duration.HOUR ) {... */\n  tag_13\n  jumpi\n    /* \"contracts/week_1/votingmechanism.sol\":1901:1908  1 hours */\n  0x0e10\n    /* \"contracts/week_1/votingmechanism.sol\":1889:1898  _duration */\n  dup3\n    /* \"contracts/week_1/votingmechanism.sol\":1889:1908  _duration * 1 hours */\n  tag_14\n  swap2\n  swap1\n  tag_15\n  jump\t// in\ntag_14:\n    /* \"contracts/week_1/votingmechanism.sol\":1878:1886  duration */\n  0x01\n    /* \"contracts/week_1/votingmechanism.sol\":1878:1908  duration = _duration * 1 hours */\n  dup2\n  swap1\n  sstore\n  pop\n    /* \"contracts/week_1/votingmechanism.sol\":1831:2217  if ( _choice == Duration.HOUR ) {... */\n  jump(tag_16)\ntag_13:\n    /* \"contracts/week_1/votingmechanism.sol\":1942:1954  Duration.DAY */\n  0x01\n    /* \"contracts/week_1/votingmechanism.sol\":1931:1954  _choice == Duration.DAY */\n  0x02\n  dup2\n  gt\n  iszero\n  tag_17\n  jumpi\n  tag_18\n  tag_10\n  jump\t// in\ntag_18:\ntag_17:\n    /* \"contracts/week_1/votingmechanism.sol\":1931:1938  _choice */\n  dup2\n    /* \"contracts/week_1/votingmechanism.sol\":1931:1954  _choice == Duration.DAY */\n  0x02\n  dup2\n  gt\n  iszero\n  tag_19\n  jumpi\n  tag_20\n  tag_10\n  jump\t// in\ntag_20:\ntag_19:\n  sub\n    /* \"contracts/week_1/votingmechanism.sol\":1926:2217  if ( _choice == Duration.DAY ) {... */\n  tag_21\n  jumpi\n    /* \"contracts/week_1/votingmechanism.sol\":1995:2001  1 days */\n  0x015180\n    /* \"contracts/week_1/votingmechanism.sol\":1983:1992  _duration */\n  dup3\n    /* \"contracts/week_1/votingmechanism.sol\":1983:2001  _duration * 1 days */\n  tag_22\n  swap2\n  swap1\n  tag_15\n  jump\t// in\ntag_22:\n    /* \"contracts/week_1/votingmechanism.sol\":1972:1980  duration */\n  0x01\n    /* \"contracts/week_1/votingmechanism.sol\":1972:2001  duration = _duration * 1 days */\n  dup2\n  swap1\n  sstore\n  pop\n    /* \"contracts/week_1/votingmechanism.sol\":1926:2217  if ( _choice == Duration.DAY ) {... */\n  jump(tag_23)\ntag_21:\n    /* \"contracts/week_1/votingmechanism.sol\":2035:2048  Duration.WEEK */\n  0x02\n    /* \"contracts/week_1/votingmechanism.sol\":2024:2048  _choice == Duration.WEEK */\n  dup1\n  dup2\n  gt\n  iszero\n  tag_24\n  jumpi\n  tag_25\n  tag_10\n  jump\t// in\ntag_25:\ntag_24:\n    /* \"contracts/week_1/votingmechanism.sol\":2024:2031  _choice */\n  dup2\n    /* \"contracts/week_1/votingmechanism.sol\":2024:2048  _choice == Duration.WEEK */\n  0x02\n  dup2\n  gt\n  iszero\n  tag_26\n  jumpi\n  tag_27\n  tag_10\n  jump\t// in\ntag_27:\ntag_26:\n  sub\n    /* \"contracts/week_1/votingmechanism.sol\":2019:2217  if ( _choice == Duration.WEEK ) {... */\n  tag_28\n  jumpi\n    /* \"contracts/week_1/votingmechanism.sol\":2089:2096  1 weeks */\n  0x093a80\n    /* \"contracts/week_1/votingmechanism.sol\":2077:2086  _duration */\n  dup3\n    /* \"contracts/week_1/votingmechanism.sol\":2077:2096  _duration * 1 weeks */\n  tag_29\n  swap2\n  swap1\n  tag_15\n  jump\t// in\ntag_29:\n    /* \"contracts/week_1/votingmechanism.sol\":2066:2074  duration */\n  0x01\n    /* \"contracts/week_1/votingmechanism.sol\":2066:2096  duration = _duration * 1 weeks */\n  dup2\n  swap1\n  sstore\n  pop\n    /* \"contracts/week_1/votingmechanism.sol\":2019:2217  if ( _choice == Duration.WEEK ) {... */\n  jump(tag_30)\ntag_28:\n    /* \"contracts/week_1/votingmechanism.sol\":2161:2205  revert(\"Unsupported time duration selected\") */\n  mload(0x40)\n  0x08c379a000000000000000000000000000000000000000000000000000000000\n  dup2\n  mstore\n  0x04\n  add\n  tag_31\n  swap1\n  tag_32\n  jump\t// in\ntag_31:\n  mload(0x40)\n  dup1\n  swap2\n  sub\n  swap1\n  revert\n    /* \"contracts/week_1/votingmechanism.sol\":2019:2217  if ( _choice == Duration.WEEK ) {... */\ntag_30:\n    /* \"contracts/week_1/votingmechanism.sol\":1926:2217  if ( _choice == Duration.DAY ) {... */\ntag_23:\n    /* \"contracts/week_1/votingmechanism.sol\":1831:2217  if ( _choice == Duration.HOUR ) {... */\ntag_16:\n    /* \"contracts/week_1/votingmechanism.sol\":2285:2291  uint i */\n  0x00\n    /* \"contracts/week_1/votingmechanism.sol\":2280:2391  for (uint i = 0; i < _titles.length; i++) {... */\ntag_33:\n    /* \"contracts/week_1/votingmechanism.sol\":2301:2308  _titles */\n  dup4\n    /* \"contracts/week_1/votingmechanism.sol\":2301:2315  _titles.length */\n  mload\n    /* \"contracts/week_1/votingmechanism.sol\":2297:2298  i */\n  dup2\n    /* \"contracts/week_1/votingmechanism.sol\":2297:2315  i < _titles.length */\n  lt\n    /* \"contracts/week_1/votingmechanism.sol\":2280:2391  for (uint i = 0; i < _titles.length; i++) {... */\n  iszero\n  tag_34\n  jumpi\n    /* \"contracts/week_1/votingmechanism.sol\":2337:2344  options */\n  0x03\n    /* \"contracts/week_1/votingmechanism.sol\":2350:2378  Option((i+1), _titles[i], 0) */\n  mload(0x40)\n  dup1\n  0x60\n  add\n  0x40\n  mstore\n  dup1\n    /* \"contracts/week_1/votingmechanism.sol\":2360:2361  1 */\n  0x01\n    /* \"contracts/week_1/votingmechanism.sol\":2358:2359  i */\n  dup5\n    /* \"contracts/week_1/votingmechanism.sol\":2358:2361  i+1 */\n  tag_36\n  swap2\n  swap1\n  tag_37\n  jump\t// in\ntag_36:\n    /* \"contracts/week_1/votingmechanism.sol\":2350:2378  Option((i+1), _titles[i], 0) */\n  dup2\n  mstore\n  0x20\n  add\n    /* \"contracts/week_1/votingmechanism.sol\":2364:2371  _titles */\n  dup7\n    /* \"contracts/week_1/votingmechanism.sol\":2372:2373  i */\n  dup5\n    /* \"contracts/week_1/votingmechanism.sol\":2364:2374  _titles[i] */\n  dup2\n  mload\n  dup2\n  lt\n  tag_38\n  jumpi\n  tag_39\n  tag_40\n  jump\t// in\ntag_39:\ntag_38:\n  0x20\n  mul\n  0x20\n  add\n  add\n  mload\n    /* \"contracts/week_1/votingmechanism.sol\":2350:2378  Option((i+1), _titles[i], 0) */\n  dup2\n  mstore\n  0x20\n  add\n    /* \"contracts/week_1/votingmechanism.sol\":2376:2377  0 */\n  0x00\n    /* \"contracts/week_1/votingmechanism.sol\":2350:2378  Option((i+1), _titles[i], 0) */\n  dup2\n  mstore\n  pop\n    /* \"contracts/week_1/votingmechanism.sol\":2337:2379  options.push(Option((i+1), _titles[i], 0)) */\n  swap1\n  dup1\n  0x01\n  dup2\n  sload\n  add\n  dup1\n  dup3\n  sstore\n  dup1\n  swap2\n  pop\n  pop\n  0x01\n  swap1\n  sub\n  swap1\n  0x00\n  mstore\n  keccak256(0x00, 0x20)\n  swap1\n  0x03\n  mul\n  add\n  0x00\n  swap1\n  swap2\n  swap1\n  swap2\n  swap1\n  swap2\n  pop\n  0x00\n  dup3\n  add\n  mload\n  dup2\n  0x00\n  add\n  sstore\n  0x20\n  dup3\n  add\n  mload\n  dup2\n  0x01\n  add\n  swap1\n  dup2\n  tag_42\n  swap2\n  swap1\n  tag_7\n  jump\t// in\ntag_42:\n  pop\n  0x40\n  dup3\n  add\n  mload\n  dup2\n  0x02\n  add\n  sstore\n  pop\n  pop\n    /* \"contracts/week_1/votingmechanism.sol\":2317:2320  i++ */\n  dup1\n  dup1\n  tag_43\n  swap1\n  tag_44\n  jump\t// in\ntag_43:\n  swap2\n  pop\n  pop\n    /* \"contracts/week_1/votingmechanism.sol\":2280:2391  for (uint i = 0; i < _titles.length; i++) {... */\n  jump(tag_33)\ntag_34:\n  pop\n    /* \"contracts/week_1/votingmechanism.sol\":1452:2398  constructor(... */\n  pop\n  pop\n  pop\n  pop\n    /* \"contracts/week_1/votingmechanism.sol\":622:3859  contract Poll {... */\n  jump(tag_45)\n    /* \"#utility.yul\":7:82   */\ntag_46:\n    /* \"#utility.yul\":40:46   */\n  0x00\n    /* \"#utility.yul\":73:75   */\n  0x40\n    /* \"#utility.yul\":67:76   */\n  mload\n    /* \"#utility.yul\":57:76   */\n  swap1\n  pop\n    /* \"#utility.yul\":7:82   */\n  swap1\n  jump\t// out\n    /* \"#utility.yul\":88:205   */\ntag_47:\n    /* \"#utility.yul\":197:198   */\n  0x00\n    /* \"#utility.yul\":194:195   */\n  dup1\n    /* \"#utility.yul\":187:199   */\n  revert\n    /* \"#utility.yul\":211:328   */\ntag_48:\n    /* \"#utility.yul\":320:321   */\n  0x00\n    /* \"#utility.yul\":317:318   */\n  dup1\n    /* \"#utility.yul\":310:322   */\n  revert\n    /* \"#utility.yul\":334:451   */\ntag_49:\n    /* \"#utility.yul\":443:444   */\n  0x00\n    /* \"#utility.yul\":440:441   */\n  dup1\n    /* \"#utility.yul\":433:445   */\n  revert\n    /* \"#utility.yul\":457:574   */\ntag_50:\n    /* \"#utility.yul\":566:567   */\n  0x00\n    /* \"#utility.yul\":563:564   */\n  dup1\n    /* \"#utility.yul\":556:568   */\n  revert\n    /* \"#utility.yul\":580:682   */\ntag_51:\n    /* \"#utility.yul\":621:627   */\n  0x00\n    /* \"#utility.yul\":672:674   */\n  0x1f\n    /* \"#utility.yul\":668:675   */\n  not\n    /* \"#utility.yul\":663:665   */\n  0x1f\n    /* \"#utility.yul\":656:661   */\n  dup4\n    /* \"#utility.yul\":652:666   */\n  add\n    /* \"#utility.yul\":648:676   */\n  and\n    /* \"#utility.yul\":638:676   */\n  swap1\n  pop\n    /* \"#utility.yul\":580:682   */\n  swap2\n  swap1\n  pop\n  jump\t// out\n    /* \"#utility.yul\":688:868   */\ntag_52:\n    /* \"#utility.yul\":736:813   */\n  0x4e487b7100000000000000000000000000000000000000000000000000000000\n    /* \"#utility.yul\":733:734   */\n  0x00\n    /* \"#utility.yul\":726:814   */\n  mstore\n    /* \"#utility.yul\":833:837   */\n  0x41\n    /* \"#utility.yul\":830:831   */\n  0x04\n    /* \"#utility.yul\":823:838   */\n  mstore\n    /* \"#utility.yul\":857:861   */\n  0x24\n    /* \"#utility.yul\":854:855   */\n  0x00\n    /* \"#utility.yul\":847:862   */\n  revert\n    /* \"#utility.yul\":874:1155   */\ntag_53:\n    /* \"#utility.yul\":957:984   */\n  tag_99\n    /* \"#utility.yul\":979:983   */\n  dup3\n    /* \"#utility.yul\":957:984   */\n  tag_51\n  jump\t// in\ntag_99:\n    /* \"#utility.yul\":949:955   */\n  dup2\n    /* \"#utility.yul\":945:985   */\n  add\n    /* \"#utility.yul\":1087:1093   */\n  dup2\n    /* \"#utility.yul\":1075:1085   */\n  dup2\n    /* \"#utility.yul\":1072:1094   */\n  lt\n    /* \"#utility.yul\":1051:1069   */\n  0xffffffffffffffff\n    /* \"#utility.yul\":1039:1049   */\n  dup3\n    /* \"#utility.yul\":1036:1070   */\n  gt\n    /* \"#utility.yul\":1033:1095   */\n  or\n    /* \"#utility.yul\":1030:1118   */\n  iszero\n  tag_100\n  jumpi\n    /* \"#utility.yul\":1098:1116   */\n  tag_101\n  tag_52\n  jump\t// in\ntag_101:\n    /* \"#utility.yul\":1030:1118   */\ntag_100:\n    /* \"#utility.yul\":1138:1148   */\n  dup1\n    /* \"#utility.yul\":1134:1136   */\n  0x40\n    /* \"#utility.yul\":1127:1149   */\n  mstore\n    /* \"#utility.yul\":917:1155   */\n  pop\n    /* \"#utility.yul\":874:1155   */\n  pop\n  pop\n  jump\t// out\n    /* \"#utility.yul\":1161:1290   */\ntag_54:\n    /* \"#utility.yul\":1195:1201   */\n  0x00\n    /* \"#utility.yul\":1222:1242   */\n  tag_103\n  tag_46\n  jump\t// in\ntag_103:\n    /* \"#utility.yul\":1212:1242   */\n  swap1\n  pop\n    /* \"#utility.yul\":1251:1284   */\n  tag_104\n    /* \"#utility.yul\":1279:1283   */\n  dup3\n    /* \"#utility.yul\":1271:1277   */\n  dup3\n    /* \"#utility.yul\":1251:1284   */\n  tag_53\n  jump\t// in\ntag_104:\n    /* \"#utility.yul\":1161:1290   */\n  swap2\n  swap1\n  pop\n  jump\t// out\n    /* \"#utility.yul\":1296:1604   */\ntag_55:\n    /* \"#utility.yul\":1358:1362   */\n  0x00\n    /* \"#utility.yul\":1448:1466   */\n  0xffffffffffffffff\n    /* \"#utility.yul\":1440:1446   */\n  dup3\n    /* \"#utility.yul\":1437:1467   */\n  gt\n    /* \"#utility.yul\":1434:1490   */\n  iszero\n  tag_106\n  jumpi\n    /* \"#utility.yul\":1470:1488   */\n  tag_107\n  tag_52\n  jump\t// in\ntag_107:\n    /* \"#utility.yul\":1434:1490   */\ntag_106:\n    /* \"#utility.yul\":1508:1537   */\n  tag_108\n    /* \"#utility.yul\":1530:1536   */\n  dup3\n    /* \"#utility.yul\":1508:1537   */\n  tag_51\n  jump\t// in\ntag_108:\n    /* \"#utility.yul\":1500:1537   */\n  swap1\n  pop\n    /* \"#utility.yul\":1592:1596   */\n  0x20\n    /* \"#utility.yul\":1586:1590   */\n  dup2\n    /* \"#utility.yul\":1582:1597   */\n  add\n    /* \"#utility.yul\":1574:1597   */\n  swap1\n  pop\n    /* \"#utility.yul\":1296:1604   */\n  swap2\n  swap1\n  pop\n  jump\t// out\n    /* \"#utility.yul\":1610:1856   */\ntag_56:\n    /* \"#utility.yul\":1691:1692   */\n  0x00\n    /* \"#utility.yul\":1701:1814   */\ntag_110:\n    /* \"#utility.yul\":1715:1721   */\n  dup4\n    /* \"#utility.yul\":1712:1713   */\n  dup2\n    /* \"#utility.yul\":1709:1722   */\n  lt\n    /* \"#utility.yul\":1701:1814   */\n  iszero\n  tag_112\n  jumpi\n    /* \"#utility.yul\":1800:1801   */\n  dup1\n    /* \"#utility.yul\":1795:1798   */\n  dup3\n    /* \"#utility.yul\":1791:1802   */\n  add\n    /* \"#utility.yul\":1785:1803   */\n  mload\n    /* \"#utility.yul\":1781:1782   */\n  dup2\n    /* \"#utility.yul\":1776:1779   */\n  dup5\n    /* \"#utility.yul\":1772:1783   */\n  add\n    /* \"#utility.yul\":1765:1804   */\n  mstore\n    /* \"#utility.yul\":1737:1739   */\n  0x20\n    /* \"#utility.yul\":1734:1735   */\n  dup2\n    /* \"#utility.yul\":1730:1740   */\n  add\n    /* \"#utility.yul\":1725:1740   */\n  swap1\n  pop\n    /* \"#utility.yul\":1701:1814   */\n  jump(tag_110)\ntag_112:\n    /* \"#utility.yul\":1848:1849   */\n  0x00\n    /* \"#utility.yul\":1839:1845   */\n  dup5\n    /* \"#utility.yul\":1834:1837   */\n  dup5\n    /* \"#utility.yul\":1830:1846   */\n  add\n    /* \"#utility.yul\":1823:1850   */\n  mstore\n    /* \"#utility.yul\":1672:1856   */\n  pop\n    /* \"#utility.yul\":1610:1856   */\n  pop\n  pop\n  pop\n  jump\t// out\n    /* \"#utility.yul\":1862:2296   */\ntag_57:\n    /* \"#utility.yul\":1951:1956   */\n  0x00\n    /* \"#utility.yul\":1976:2042   */\n  tag_114\n    /* \"#utility.yul\":1992:2041   */\n  tag_115\n    /* \"#utility.yul\":2034:2040   */\n  dup5\n    /* \"#utility.yul\":1992:2041   */\n  tag_55\n  jump\t// in\ntag_115:\n    /* \"#utility.yul\":1976:2042   */\n  tag_54\n  jump\t// in\ntag_114:\n    /* \"#utility.yul\":1967:2042   */\n  swap1\n  pop\n    /* \"#utility.yul\":2065:2071   */\n  dup3\n    /* \"#utility.yul\":2058:2063   */\n  dup2\n    /* \"#utility.yul\":2051:2072   */\n  mstore\n    /* \"#utility.yul\":2103:2107   */\n  0x20\n    /* \"#utility.yul\":2096:2101   */\n  dup2\n    /* \"#utility.yul\":2092:2108   */\n  add\n    /* \"#utility.yul\":2141:2144   */\n  dup5\n    /* \"#utility.yul\":2132:2138   */\n  dup5\n    /* \"#utility.yul\":2127:2130   */\n  dup5\n    /* \"#utility.yul\":2123:2139   */\n  add\n    /* \"#utility.yul\":2120:2145   */\n  gt\n    /* \"#utility.yul\":2117:2229   */\n  iszero\n  tag_116\n  jumpi\n    /* \"#utility.yul\":2148:2227   */\n  tag_117\n  tag_50\n  jump\t// in\ntag_117:\n    /* \"#utility.yul\":2117:2229   */\ntag_116:\n    /* \"#utility.yul\":2238:2290   */\n  tag_118\n    /* \"#utility.yul\":2283:2289   */\n  dup5\n    /* \"#utility.yul\":2278:2281   */\n  dup3\n    /* \"#utility.yul\":2273:2276   */\n  dup6\n    /* \"#utility.yul\":2238:2290   */\n  tag_56\n  jump\t// in\ntag_118:\n    /* \"#utility.yul\":1957:2296   */\n  pop\n    /* \"#utility.yul\":1862:2296   */\n  swap4\n  swap3\n  pop\n  pop\n  pop\n  jump\t// out\n    /* \"#utility.yul\":2316:2671   */\ntag_58:\n    /* \"#utility.yul\":2383:2388   */\n  0x00\n    /* \"#utility.yul\":2432:2435   */\n  dup3\n    /* \"#utility.yul\":2425:2429   */\n  0x1f\n    /* \"#utility.yul\":2417:2423   */\n  dup4\n    /* \"#utility.yul\":2413:2430   */\n  add\n    /* \"#utility.yul\":2409:2436   */\n  slt\n    /* \"#utility.yul\":2399:2521   */\n  tag_120\n  jumpi\n    /* \"#utility.yul\":2440:2519   */\n  tag_121\n  tag_49\n  jump\t// in\ntag_121:\n    /* \"#utility.yul\":2399:2521   */\ntag_120:\n    /* \"#utility.yul\":2550:2556   */\n  dup2\n    /* \"#utility.yul\":2544:2557   */\n  mload\n    /* \"#utility.yul\":2575:2665   */\n  tag_122\n    /* \"#utility.yul\":2661:2664   */\n  dup5\n    /* \"#utility.yul\":2653:2659   */\n  dup3\n    /* \"#utility.yul\":2646:2650   */\n  0x20\n    /* \"#utility.yul\":2638:2644   */\n  dup7\n    /* \"#utility.yul\":2634:2651   */\n  add\n    /* \"#utility.yul\":2575:2665   */\n  tag_57\n  jump\t// in\ntag_122:\n    /* \"#utility.yul\":2566:2665   */\n  swap2\n  pop\n    /* \"#utility.yul\":2389:2671   */\n  pop\n    /* \"#utility.yul\":2316:2671   */\n  swap3\n  swap2\n  pop\n  pop\n  jump\t// out\n    /* \"#utility.yul\":2677:2998   */\ntag_59:\n    /* \"#utility.yul\":2764:2768   */\n  0x00\n    /* \"#utility.yul\":2854:2872   */\n  0xffffffffffffffff\n    /* \"#utility.yul\":2846:2852   */\n  dup3\n    /* \"#utility.yul\":2843:2873   */\n  gt\n    /* \"#utility.yul\":2840:2896   */\n  iszero\n  tag_124\n  jumpi\n    /* \"#utility.yul\":2876:2894   */\n  tag_125\n  tag_52\n  jump\t// in\ntag_125:\n    /* \"#utility.yul\":2840:2896   */\ntag_124:\n    /* \"#utility.yul\":2926:2930   */\n  0x20\n    /* \"#utility.yul\":2918:2924   */\n  dup3\n    /* \"#utility.yul\":2914:2931   */\n  mul\n    /* \"#utility.yul\":2906:2931   */\n  swap1\n  pop\n    /* \"#utility.yul\":2986:2990   */\n  0x20\n    /* \"#utility.yul\":2980:2984   */\n  dup2\n    /* \"#utility.yul\":2976:2991   */\n  add\n    /* \"#utility.yul\":2968:2991   */\n  swap1\n  pop\n    /* \"#utility.yul\":2677:2998   */\n  swap2\n  swap1\n  pop\n  jump\t// out\n    /* \"#utility.yul\":3004:3121   */\ntag_60:\n    /* \"#utility.yul\":3113:3114   */\n  0x00\n    /* \"#utility.yul\":3110:3111   */\n  dup1\n    /* \"#utility.yul\":3103:3115   */\n  revert\n    /* \"#utility.yul\":3143:4103   */\ntag_61:\n    /* \"#utility.yul\":3260:3265   */\n  0x00\n    /* \"#utility.yul\":3285:3376   */\n  tag_128\n    /* \"#utility.yul\":3301:3375   */\n  tag_129\n    /* \"#utility.yul\":3368:3374   */\n  dup5\n    /* \"#utility.yul\":3301:3375   */\n  tag_59\n  jump\t// in\ntag_129:\n    /* \"#utility.yul\":3285:3376   */\n  tag_54\n  jump\t// in\ntag_128:\n    /* \"#utility.yul\":3276:3376   */\n  swap1\n  pop\n    /* \"#utility.yul\":3396:3401   */\n  dup1\n    /* \"#utility.yul\":3425:3431   */\n  dup4\n    /* \"#utility.yul\":3418:3423   */\n  dup3\n    /* \"#utility.yul\":3411:3432   */\n  mstore\n    /* \"#utility.yul\":3459:3463   */\n  0x20\n    /* \"#utility.yul\":3452:3457   */\n  dup3\n    /* \"#utility.yul\":3448:3464   */\n  add\n    /* \"#utility.yul\":3441:3464   */\n  swap1\n  pop\n    /* \"#utility.yul\":3512:3516   */\n  0x20\n    /* \"#utility.yul\":3504:3510   */\n  dup5\n    /* \"#utility.yul\":3500:3517   */\n  mul\n    /* \"#utility.yul\":3492:3498   */\n  dup4\n    /* \"#utility.yul\":3488:3518   */\n  add\n    /* \"#utility.yul\":3541:3544   */\n  dup6\n    /* \"#utility.yul\":3533:3539   */\n  dup2\n    /* \"#utility.yul\":3530:3545   */\n  gt\n    /* \"#utility.yul\":3527:3649   */\n  iszero\n  tag_130\n  jumpi\n    /* \"#utility.yul\":3560:3639   */\n  tag_131\n  tag_60\n  jump\t// in\ntag_131:\n    /* \"#utility.yul\":3527:3649   */\ntag_130:\n    /* \"#utility.yul\":3675:3681   */\n  dup4\n    /* \"#utility.yul\":3658:4097   */\ntag_132:\n    /* \"#utility.yul\":3692:3698   */\n  dup2\n    /* \"#utility.yul\":3687:3690   */\n  dup2\n    /* \"#utility.yul\":3684:3699   */\n  lt\n    /* \"#utility.yul\":3658:4097   */\n  iszero\n  tag_134\n  jumpi\n    /* \"#utility.yul\":3774:3777   */\n  dup1\n    /* \"#utility.yul\":3768:3778   */\n  mload\n    /* \"#utility.yul\":3810:3828   */\n  0xffffffffffffffff\n    /* \"#utility.yul\":3797:3808   */\n  dup2\n    /* \"#utility.yul\":3794:3829   */\n  gt\n    /* \"#utility.yul\":3791:3913   */\n  iszero\n  tag_135\n  jumpi\n    /* \"#utility.yul\":3832:3911   */\n  tag_136\n  tag_49\n  jump\t// in\ntag_136:\n    /* \"#utility.yul\":3791:3913   */\ntag_135:\n    /* \"#utility.yul\":3956:3967   */\n  dup1\n    /* \"#utility.yul\":3948:3954   */\n  dup7\n    /* \"#utility.yul\":3944:3968   */\n  add\n    /* \"#utility.yul\":3994:4052   */\n  tag_137\n    /* \"#utility.yul\":4048:4051   */\n  dup10\n    /* \"#utility.yul\":4036:4046   */\n  dup3\n    /* \"#utility.yul\":3994:4052   */\n  tag_58\n  jump\t// in\ntag_137:\n    /* \"#utility.yul\":3989:3992   */\n  dup6\n    /* \"#utility.yul\":3982:4053   */\n  mstore\n    /* \"#utility.yul\":4082:4086   */\n  0x20\n    /* \"#utility.yul\":4077:4080   */\n  dup6\n    /* \"#utility.yul\":4073:4087   */\n  add\n    /* \"#utility.yul\":4066:4087   */\n  swap5\n  pop\n    /* \"#utility.yul\":3734:4097   */\n  pop\n  pop\n    /* \"#utility.yul\":3718:3722   */\n  0x20\n    /* \"#utility.yul\":3713:3716   */\n  dup2\n    /* \"#utility.yul\":3709:3723   */\n  add\n    /* \"#utility.yul\":3702:3723   */\n  swap1\n  pop\n    /* \"#utility.yul\":3658:4097   */\n  jump(tag_132)\ntag_134:\n    /* \"#utility.yul\":3662:3683   */\n  pop\n    /* \"#utility.yul\":3266:4103   */\n  pop\n  pop\n    /* \"#utility.yul\":3143:4103   */\n  swap4\n  swap3\n  pop\n  pop\n  pop\n  jump\t// out\n    /* \"#utility.yul\":4125:4530   */\ntag_62:\n    /* \"#utility.yul\":4217:4222   */\n  0x00\n    /* \"#utility.yul\":4266:4269   */\n  dup3\n    /* \"#utility.yul\":4259:4263   */\n  0x1f\n    /* \"#utility.yul\":4251:4257   */\n  dup4\n    /* \"#utility.yul\":4247:4264   */\n  add\n    /* \"#utility.yul\":4243:4270   */\n  slt\n    /* \"#utility.yul\":4233:4355   */\n  tag_139\n  jumpi\n    /* \"#utility.yul\":4274:4353   */\n  tag_140\n  tag_49\n  jump\t// in\ntag_140:\n    /* \"#utility.yul\":4233:4355   */\ntag_139:\n    /* \"#utility.yul\":4384:4390   */\n  dup2\n    /* \"#utility.yul\":4378:4391   */\n  mload\n    /* \"#utility.yul\":4409:4524   */\n  tag_141\n    /* \"#utility.yul\":4520:4523   */\n  dup5\n    /* \"#utility.yul\":4512:4518   */\n  dup3\n    /* \"#utility.yul\":4505:4509   */\n  0x20\n    /* \"#utility.yul\":4497:4503   */\n  dup7\n    /* \"#utility.yul\":4493:4510   */\n  add\n    /* \"#utility.yul\":4409:4524   */\n  tag_61\n  jump\t// in\ntag_141:\n    /* \"#utility.yul\":4400:4524   */\n  swap2\n  pop\n    /* \"#utility.yul\":4223:4530   */\n  pop\n    /* \"#utility.yul\":4125:4530   */\n  swap3\n  swap2\n  pop\n  pop\n  jump\t// out\n    /* \"#utility.yul\":4536:4613   */\ntag_63:\n    /* \"#utility.yul\":4573:4580   */\n  0x00\n    /* \"#utility.yul\":4602:4607   */\n  dup2\n    /* \"#utility.yul\":4591:4607   */\n  swap1\n  pop\n    /* \"#utility.yul\":4536:4613   */\n  swap2\n  swap1\n  pop\n  jump\t// out\n    /* \"#utility.yul\":4619:4741   */\ntag_64:\n    /* \"#utility.yul\":4692:4716   */\n  tag_144\n    /* \"#utility.yul\":4710:4715   */\n  dup2\n    /* \"#utility.yul\":4692:4716   */\n  tag_63\n  jump\t// in\ntag_144:\n    /* \"#utility.yul\":4685:4690   */\n  dup2\n    /* \"#utility.yul\":4682:4717   */\n  eq\n    /* \"#utility.yul\":4672:4735   */\n  tag_145\n  jumpi\n    /* \"#utility.yul\":4731:4732   */\n  0x00\n    /* \"#utility.yul\":4728:4729   */\n  dup1\n    /* \"#utility.yul\":4721:4733   */\n  revert\n    /* \"#utility.yul\":4672:4735   */\ntag_145:\n    /* \"#utility.yul\":4619:4741   */\n  pop\n  jump\t// out\n    /* \"#utility.yul\":4747:4890   */\ntag_65:\n    /* \"#utility.yul\":4804:4809   */\n  0x00\n    /* \"#utility.yul\":4835:4841   */\n  dup2\n    /* \"#utility.yul\":4829:4842   */\n  mload\n    /* \"#utility.yul\":4820:4842   */\n  swap1\n  pop\n    /* \"#utility.yul\":4851:4884   */\n  tag_147\n    /* \"#utility.yul\":4878:4883   */\n  dup2\n    /* \"#utility.yul\":4851:4884   */\n  tag_64\n  jump\t// in\ntag_147:\n    /* \"#utility.yul\":4747:4890   */\n  swap3\n  swap2\n  pop\n  pop\n  jump\t// out\n    /* \"#utility.yul\":4896:5006   */\ntag_66:\n    /* \"#utility.yul\":4980:4981   */\n  0x03\n    /* \"#utility.yul\":4973:4978   */\n  dup2\n    /* \"#utility.yul\":4970:4982   */\n  lt\n    /* \"#utility.yul\":4960:5000   */\n  tag_149\n  jumpi\n    /* \"#utility.yul\":4996:4997   */\n  0x00\n    /* \"#utility.yul\":4993:4994   */\n  dup1\n    /* \"#utility.yul\":4986:4998   */\n  revert\n    /* \"#utility.yul\":4960:5000   */\ntag_149:\n    /* \"#utility.yul\":4896:5006   */\n  pop\n  jump\t// out\n    /* \"#utility.yul\":5012:5177   */\ntag_67:\n    /* \"#utility.yul\":5080:5085   */\n  0x00\n    /* \"#utility.yul\":5111:5117   */\n  dup2\n    /* \"#utility.yul\":5105:5118   */\n  mload\n    /* \"#utility.yul\":5096:5118   */\n  swap1\n  pop\n    /* \"#utility.yul\":5127:5171   */\n  tag_151\n    /* \"#utility.yul\":5165:5170   */\n  dup2\n    /* \"#utility.yul\":5127:5171   */\n  tag_66\n  jump\t// in\ntag_151:\n    /* \"#utility.yul\":5012:5177   */\n  swap3\n  swap2\n  pop\n  pop\n  jump\t// out\n    /* \"#utility.yul\":5183:6421   */\ntag_3:\n    /* \"#utility.yul\":5336:5342   */\n  0x00\n    /* \"#utility.yul\":5344:5350   */\n  dup1\n    /* \"#utility.yul\":5352:5358   */\n  0x00\n    /* \"#utility.yul\":5360:5366   */\n  dup1\n    /* \"#utility.yul\":5409:5412   */\n  0x80\n    /* \"#utility.yul\":5397:5406   */\n  dup6\n    /* \"#utility.yul\":5388:5395   */\n  dup8\n    /* \"#utility.yul\":5384:5407   */\n  sub\n    /* \"#utility.yul\":5380:5413   */\n  slt\n    /* \"#utility.yul\":5377:5497   */\n  iszero\n  tag_153\n  jumpi\n    /* \"#utility.yul\":5416:5495   */\n  tag_154\n  tag_47\n  jump\t// in\ntag_154:\n    /* \"#utility.yul\":5377:5497   */\ntag_153:\n    /* \"#utility.yul\":5557:5558   */\n  0x00\n    /* \"#utility.yul\":5546:5555   */\n  dup6\n    /* \"#utility.yul\":5542:5559   */\n  add\n    /* \"#utility.yul\":5536:5560   */\n  mload\n    /* \"#utility.yul\":5587:5605   */\n  0xffffffffffffffff\n    /* \"#utility.yul\":5579:5585   */\n  dup2\n    /* \"#utility.yul\":5576:5606   */\n  gt\n    /* \"#utility.yul\":5573:5690   */\n  iszero\n  tag_155\n  jumpi\n    /* \"#utility.yul\":5609:5688   */\n  tag_156\n  tag_48\n  jump\t// in\ntag_156:\n    /* \"#utility.yul\":5573:5690   */\ntag_155:\n    /* \"#utility.yul\":5714:5788   */\n  tag_157\n    /* \"#utility.yul\":5780:5787   */\n  dup8\n    /* \"#utility.yul\":5771:5777   */\n  dup3\n    /* \"#utility.yul\":5760:5769   */\n  dup9\n    /* \"#utility.yul\":5756:5778   */\n  add\n    /* \"#utility.yul\":5714:5788   */\n  tag_58\n  jump\t// in\ntag_157:\n    /* \"#utility.yul\":5704:5788   */\n  swap5\n  pop\n    /* \"#utility.yul\":5507:5798   */\n  pop\n    /* \"#utility.yul\":5858:5860   */\n  0x20\n    /* \"#utility.yul\":5847:5856   */\n  dup6\n    /* \"#utility.yul\":5843:5861   */\n  add\n    /* \"#utility.yul\":5837:5862   */\n  mload\n    /* \"#utility.yul\":5889:5907   */\n  0xffffffffffffffff\n    /* \"#utility.yul\":5881:5887   */\n  dup2\n    /* \"#utility.yul\":5878:5908   */\n  gt\n    /* \"#utility.yul\":5875:5992   */\n  iszero\n  tag_158\n  jumpi\n    /* \"#utility.yul\":5911:5990   */\n  tag_159\n  tag_48\n  jump\t// in\ntag_159:\n    /* \"#utility.yul\":5875:5992   */\ntag_158:\n    /* \"#utility.yul\":6016:6115   */\n  tag_160\n    /* \"#utility.yul\":6107:6114   */\n  dup8\n    /* \"#utility.yul\":6098:6104   */\n  dup3\n    /* \"#utility.yul\":6087:6096   */\n  dup9\n    /* \"#utility.yul\":6083:6105   */\n  add\n    /* \"#utility.yul\":6016:6115   */\n  tag_62\n  jump\t// in\ntag_160:\n    /* \"#utility.yul\":6006:6115   */\n  swap4\n  pop\n    /* \"#utility.yul\":5808:6125   */\n  pop\n    /* \"#utility.yul\":6164:6166   */\n  0x40\n    /* \"#utility.yul\":6190:6254   */\n  tag_161\n    /* \"#utility.yul\":6246:6253   */\n  dup8\n    /* \"#utility.yul\":6237:6243   */\n  dup3\n    /* \"#utility.yul\":6226:6235   */\n  dup9\n    /* \"#utility.yul\":6222:6244   */\n  add\n    /* \"#utility.yul\":6190:6254   */\n  tag_65\n  jump\t// in\ntag_161:\n    /* \"#utility.yul\":6180:6254   */\n  swap3\n  pop\n    /* \"#utility.yul\":6135:6264   */\n  pop\n    /* \"#utility.yul\":6303:6305   */\n  0x60\n    /* \"#utility.yul\":6329:6404   */\n  tag_162\n    /* \"#utility.yul\":6396:6403   */\n  dup8\n    /* \"#utility.yul\":6387:6393   */\n  dup3\n    /* \"#utility.yul\":6376:6385   */\n  dup9\n    /* \"#utility.yul\":6372:6394   */\n  add\n    /* \"#utility.yul\":6329:6404   */\n  tag_67\n  jump\t// in\ntag_162:\n    /* \"#utility.yul\":6319:6404   */\n  swap2\n  pop\n    /* \"#utility.yul\":6274:6414   */\n  pop\n    /* \"#utility.yul\":5183:6421   */\n  swap3\n  swap6\n  swap2\n  swap5\n  pop\n  swap3\n  pop\n  jump\t// out\n    /* \"#utility.yul\":6427:6526   */\ntag_68:\n    /* \"#utility.yul\":6479:6485   */\n  0x00\n    /* \"#utility.yul\":6513:6518   */\n  dup2\n    /* \"#utility.yul\":6507:6519   */\n  mload\n    /* \"#utility.yul\":6497:6519   */\n  swap1\n  pop\n    /* \"#utility.yul\":6427:6526   */\n  swap2\n  swap1\n  pop\n  jump\t// out\n    /* \"#utility.yul\":6532:6712   */\ntag_69:\n    /* \"#utility.yul\":6580:6657   */\n  0x4e487b7100000000000000000000000000000000000000000000000000000000\n    /* \"#utility.yul\":6577:6578   */\n  0x00\n    /* \"#utility.yul\":6570:6658   */\n  mstore\n    /* \"#utility.yul\":6677:6681   */\n  0x22\n    /* \"#utility.yul\":6674:6675   */\n  0x04\n    /* \"#utility.yul\":6667:6682   */\n  mstore\n    /* \"#utility.yul\":6701:6705   */\n  0x24\n    /* \"#utility.yul\":6698:6699   */\n  0x00\n    /* \"#utility.yul\":6691:6706   */\n  revert\n    /* \"#utility.yul\":6718:7038   */\ntag_70:\n    /* \"#utility.yul\":6762:6768   */\n  0x00\n    /* \"#utility.yul\":6799:6800   */\n  0x02\n    /* \"#utility.yul\":6793:6797   */\n  dup3\n    /* \"#utility.yul\":6789:6801   */\n  div\n    /* \"#utility.yul\":6779:6801   */\n  swap1\n  pop\n    /* \"#utility.yul\":6846:6847   */\n  0x01\n    /* \"#utility.yul\":6840:6844   */\n  dup3\n    /* \"#utility.yul\":6836:6848   */\n  and\n    /* \"#utility.yul\":6867:6885   */\n  dup1\n    /* \"#utility.yul\":6857:6938   */\n  tag_166\n  jumpi\n    /* \"#utility.yul\":6923:6927   */\n  0x7f\n    /* \"#utility.yul\":6915:6921   */\n  dup3\n    /* \"#utility.yul\":6911:6928   */\n  and\n    /* \"#utility.yul\":6901:6928   */\n  swap2\n  pop\n    /* \"#utility.yul\":6857:6938   */\ntag_166:\n    /* \"#utility.yul\":6985:6987   */\n  0x20\n    /* \"#utility.yul\":6977:6983   */\n  dup3\n    /* \"#utility.yul\":6974:6988   */\n  lt\n    /* \"#utility.yul\":6954:6972   */\n  dup2\n    /* \"#utility.yul\":6951:6989   */\n  sub\n    /* \"#utility.yul\":6948:7032   */\n  tag_167\n  jumpi\n    /* \"#utility.yul\":7004:7022   */\n  tag_168\n  tag_69\n  jump\t// in\ntag_168:\n    /* \"#utility.yul\":6948:7032   */\ntag_167:\n    /* \"#utility.yul\":6769:7038   */\n  pop\n    /* \"#utility.yul\":6718:7038   */\n  swap2\n  swap1\n  pop\n  jump\t// out\n    /* \"#utility.yul\":7044:7185   */\ntag_71:\n    /* \"#utility.yul\":7093:7097   */\n  0x00\n    /* \"#utility.yul\":7116:7119   */\n  dup2\n    /* \"#utility.yul\":7108:7119   */\n  swap1\n  pop\n    /* \"#utility.yul\":7139:7142   */\n  dup2\n    /* \"#utility.yul\":7136:7137   */\n  0x00\n    /* \"#utility.yul\":7129:7143   */\n  mstore\n    /* \"#utility.yul\":7173:7177   */\n  0x20\n    /* \"#utility.yul\":7170:7171   */\n  0x00\n    /* \"#utility.yul\":7160:7178   */\n  keccak256\n    /* \"#utility.yul\":7152:7178   */\n  swap1\n  pop\n    /* \"#utility.yul\":7044:7185   */\n  swap2\n  swap1\n  pop\n  jump\t// out\n    /* \"#utility.yul\":7191:7284   */\ntag_72:\n    /* \"#utility.yul\":7228:7234   */\n  0x00\n    /* \"#utility.yul\":7275:7277   */\n  0x20\n    /* \"#utility.yul\":7270:7272   */\n  0x1f\n    /* \"#utility.yul\":7263:7268   */\n  dup4\n    /* \"#utility.yul\":7259:7273   */\n  add\n    /* \"#utility.yul\":7255:7278   */\n  div\n    /* \"#utility.yul\":7245:7278   */\n  swap1\n  pop\n    /* \"#utility.yul\":7191:7284   */\n  swap2\n  swap1\n  pop\n  jump\t// out\n    /* \"#utility.yul\":7290:7397   */\ntag_73:\n    /* \"#utility.yul\":7334:7342   */\n  0x00\n    /* \"#utility.yul\":7384:7389   */\n  dup3\n    /* \"#utility.yul\":7378:7382   */\n  dup3\n    /* \"#utility.yul\":7374:7390   */\n  shl\n    /* \"#utility.yul\":7353:7390   */\n  swap1\n  pop\n    /* \"#utility.yul\":7290:7397   */\n  swap3\n  swap2\n  pop\n  pop\n  jump\t// out\n    /* \"#utility.yul\":7403:7796   */\ntag_74:\n    /* \"#utility.yul\":7472:7478   */\n  0x00\n    /* \"#utility.yul\":7522:7523   */\n  0x08\n    /* \"#utility.yul\":7510:7520   */\n  dup4\n    /* \"#utility.yul\":7506:7524   */\n  mul\n    /* \"#utility.yul\":7545:7642   */\n  tag_173\n    /* \"#utility.yul\":7575:7641   */\n  0xffffffffffffffffffffffffffffffffffffffffffffffffffffffffffffffff\n    /* \"#utility.yul\":7564:7573   */\n  dup3\n    /* \"#utility.yul\":7545:7642   */\n  tag_73\n  jump\t// in\ntag_173:\n    /* \"#utility.yul\":7663:7702   */\n  tag_174\n    /* \"#utility.yul\":7693:7701   */\n  dup7\n    /* \"#utility.yul\":7682:7691   */\n  dup4\n    /* \"#utility.yul\":7663:7702   */\n  tag_73\n  jump\t// in\ntag_174:\n    /* \"#utility.yul\":7651:7702   */\n  swap6\n  pop\n    /* \"#utility.yul\":7735:7739   */\n  dup1\n    /* \"#utility.yul\":7731:7740   */\n  not\n    /* \"#utility.yul\":7724:7729   */\n  dup5\n    /* \"#utility.yul\":7720:7741   */\n  and\n    /* \"#utility.yul\":7711:7741   */\n  swap4\n  pop\n    /* \"#utility.yul\":7784:7788   */\n  dup1\n    /* \"#utility.yul\":7774:7782   */\n  dup7\n    /* \"#utility.yul\":7770:7789   */\n  and\n    /* \"#utility.yul\":7763:7768   */\n  dup5\n    /* \"#utility.yul\":7760:7790   */\n  or\n    /* \"#utility.yul\":7750:7790   */\n  swap3\n  pop\n    /* \"#utility.yul\":7479:7796   */\n  pop\n  pop\n    /* \"#utility.yul\":7403:7796   */\n  swap4\n  swap3\n  pop\n  pop\n  pop\n  jump\t// out\n    /* \"#utility.yul\":7802:7862   */\ntag_75:\n    /* \"#utility.yul\":7830:7833   */\n  0x00\n    /* \"#utility.yul\":7851:7856   */\n  dup2\n    /* \"#utility.yul\":7844:7856   */\n  swap1\n  pop\n    /* \"#utility.yul\":7802:7862   */\n  swap2\n  swap1\n  pop\n  jump\t// out\n    /* \"#utility.yul\":7868:8010   */\ntag_76:\n    /* \"#utility.yul\":7918:7927   */\n  0x00\n    /* \"#utility.yul\":7951:8004   */\n  tag_177\n    /* \"#utility.yul\":7969:8003   */\n  tag_178\n    /* \"#utility.yul\":7978:8002   */\n  tag_179\n    /* \"#utility.yul\":7996:8001   */\n  dup5\n    /* \"#utility.yul\":7978:8002   */\n  tag_63\n  jump\t// in\ntag_179:\n    /* \"#utility.yul\":7969:8003   */\n  tag_75\n  jump\t// in\ntag_178:\n    /* \"#utility.yul\":7951:8004   */\n  tag_63\n  jump\t// in\ntag_177:\n    /* \"#utility.yul\":7938:8004   */\n  swap1\n  pop\n    /* \"#utility.yul\":7868:8010   */\n  swap2\n  swap1\n  pop\n  jump\t// out\n    /* \"#utility.yul\":8016:8091   */\ntag_77:\n    /* \"#utility.yul\":8059:8062   */\n  0x00\n    /* \"#utility.yul\":8080:8085   */\n  dup2\n    /* \"#utility.yul\":8073:8085   */\n  swap1\n  pop\n    /* \"#utility.yul\":8016:8091   */\n  swap2\n  swap1\n  pop\n  jump\t// out\n    /* \"#utility.yul\":8097:8366   */\ntag_78:\n    /* \"#utility.yul\":8207:8246   */\n  tag_182\n    /* \"#utility.yul\":8238:8245   */\n  dup4\n    /* \"#utility.yul\":8207:8246   */\n  tag_76\n  jump\t// in\ntag_182:\n    /* \"#utility.yul\":8268:8359   */\n  tag_183\n    /* \"#utility.yul\":8317:8358   */\n  tag_184\n    /* \"#utility.yul\":8341:8357   */\n  dup3\n    /* \"#utility.yul\":8317:8358   */\n  tag_77\n  jump\t// in\ntag_184:\n    /* \"#utility.yul\":8309:8315   */\n  dup5\n    /* \"#utility.yul\":8302:8306   */\n  dup5\n    /* \"#utility.yul\":8296:8307   */\n  sload\n    /* \"#utility.yul\":8268:8359   */\n  tag_74\n  jump\t// in\ntag_183:\n    /* \"#utility.yul\":8262:8266   */\n  dup3\n    /* \"#utility.yul\":8255:8360   */\n  sstore\n    /* \"#utility.yul\":8173:8366   */\n  pop\n    /* \"#utility.yul\":8097:8366   */\n  pop\n  pop\n  pop\n  jump\t// out\n    /* \"#utility.yul\":8372:8445   */\ntag_79:\n    /* \"#utility.yul\":8417:8420   */\n  0x00\n    /* \"#utility.yul\":8372:8445   */\n  swap1\n  jump\t// out\n    /* \"#utility.yul\":8451:8640   */\ntag_80:\n    /* \"#utility.yul\":8528:8560   */\n  tag_187\n  tag_79\n  jump\t// in\ntag_187:\n    /* \"#utility.yul\":8569:8634   */\n  tag_188\n    /* \"#utility.yul\":8627:8633   */\n  dup2\n    /* \"#utility.yul\":8619:8625   */\n  dup5\n    /* \"#utility.yul\":8613:8617   */\n  dup5\n    /* \"#utility.yul\":8569:8634   */\n  tag_78\n  jump\t// in\ntag_188:\n    /* \"#utility.yul\":8504:8640   */\n  pop\n    /* \"#utility.yul\":8451:8640   */\n  pop\n  pop\n  jump\t// out\n    /* \"#utility.yul\":8646:8832   */\ntag_81:\n    /* \"#utility.yul\":8706:8826   */\ntag_190:\n    /* \"#utility.yul\":8723:8726   */\n  dup2\n    /* \"#utility.yul\":8716:8721   */\n  dup2\n    /* \"#utility.yul\":8713:8727   */\n  lt\n    /* \"#utility.yul\":8706:8826   */\n  iszero\n  tag_192\n  jumpi\n    /* \"#utility.yul\":8777:8816   */\n  tag_193\n    /* \"#utility.yul\":8814:8815   */\n  0x00\n    /* \"#utility.yul\":8807:8812   */\n  dup3\n    /* \"#utility.yul\":8777:8816   */\n  tag_80\n  jump\t// in\ntag_193:\n    /* \"#utility.yul\":8750:8751   */\n  0x01\n    /* \"#utility.yul\":8743:8748   */\n  dup2\n    /* \"#utility.yul\":8739:8752   */\n  add\n    /* \"#utility.yul\":8730:8752   */\n  swap1\n  pop\n    /* \"#utility.yul\":8706:8826   */\n  jump(tag_190)\ntag_192:\n    /* \"#utility.yul\":8646:8832   */\n  pop\n  pop\n  jump\t// out\n    /* \"#utility.yul\":8838:9381   */\ntag_82:\n    /* \"#utility.yul\":8939:8941   */\n  0x1f\n    /* \"#utility.yul\":8934:8937   */\n  dup3\n    /* \"#utility.yul\":8931:8942   */\n  gt\n    /* \"#utility.yul\":8928:9374   */\n  iszero\n  tag_195\n  jumpi\n    /* \"#utility.yul\":8973:9011   */\n  tag_196\n    /* \"#utility.yul\":9005:9010   */\n  dup2\n    /* \"#utility.yul\":8973:9011   */\n  tag_71\n  jump\t// in\ntag_196:\n    /* \"#utility.yul\":9057:9086   */\n  tag_197\n    /* \"#utility.yul\":9075:9085   */\n  dup5\n    /* \"#utility.yul\":9057:9086   */\n  tag_72\n  jump\t// in\ntag_197:\n    /* \"#utility.yul\":9047:9055   */\n  dup2\n    /* \"#utility.yul\":9043:9087   */\n  add\n    /* \"#utility.yul\":9240:9242   */\n  0x20\n    /* \"#utility.yul\":9228:9238   */\n  dup6\n    /* \"#utility.yul\":9225:9243   */\n  lt\n    /* \"#utility.yul\":9222:9271   */\n  iszero\n  tag_198\n  jumpi\n    /* \"#utility.yul\":9261:9269   */\n  dup2\n    /* \"#utility.yul\":9246:9269   */\n  swap1\n  pop\n    /* \"#utility.yul\":9222:9271   */\ntag_198:\n    /* \"#utility.yul\":9284:9364   */\n  tag_199\n    /* \"#utility.yul\":9340:9362   */\n  tag_200\n    /* \"#utility.yul\":9358:9361   */\n  dup6\n    /* \"#utility.yul\":9340:9362   */\n  tag_72\n  jump\t// in\ntag_200:\n    /* \"#utility.yul\":9330:9338   */\n  dup4\n    /* \"#utility.yul\":9326:9363   */\n  add\n    /* \"#utility.yul\":9313:9324   */\n  dup3\n    /* \"#utility.yul\":9284:9364   */\n  tag_81\n  jump\t// in\ntag_199:\n    /* \"#utility.yul\":8943:9374   */\n  pop\n  pop\n    /* \"#utility.yul\":8928:9374   */\ntag_195:\n    /* \"#utility.yul\":8838:9381   */\n  pop\n  pop\n  pop\n  jump\t// out\n    /* \"#utility.yul\":9387:9504   */\ntag_83:\n    /* \"#utility.yul\":9441:9449   */\n  0x00\n    /* \"#utility.yul\":9491:9496   */\n  dup3\n    /* \"#utility.yul\":9485:9489   */\n  dup3\n    /* \"#utility.yul\":9481:9497   */\n  shr\n    /* \"#utility.yul\":9460:9497   */\n  swap1\n  pop\n    /* \"#utility.yul\":9387:9504   */\n  swap3\n  swap2\n  pop\n  pop\n  jump\t// out\n    /* \"#utility.yul\":9510:9679   */\ntag_84:\n    /* \"#utility.yul\":9554:9560   */\n  0x00\n    /* \"#utility.yul\":9587:9638   */\n  tag_203\n    /* \"#utility.yul\":9635:9636   */\n  0x00\n    /* \"#utility.yul\":9631:9637   */\n  not\n    /* \"#utility.yul\":9623:9628   */\n  dup5\n    /* \"#utility.yul\":9620:9621   */\n  0x08\n    /* \"#utility.yul\":9616:9629   */\n  mul\n    /* \"#utility.yul\":9587:9638   */\n  tag_83\n  jump\t// in\ntag_203:\n    /* \"#utility.yul\":9583:9639   */\n  not\n    /* \"#utility.yul\":9668:9672   */\n  dup1\n    /* \"#utility.yul\":9662:9666   */\n  dup4\n    /* \"#utility.yul\":9658:9673   */\n  and\n    /* \"#utility.yul\":9648:9673   */\n  swap2\n  pop\n    /* \"#utility.yul\":9561:9679   */\n  pop\n    /* \"#utility.yul\":9510:9679   */\n  swap3\n  swap2\n  pop\n  pop\n  jump\t// out\n    /* \"#utility.yul\":9684:9979   */\ntag_85:\n    /* \"#utility.yul\":9760:9764   */\n  0x00\n    /* \"#utility.yul\":9906:9935   */\n  tag_205\n    /* \"#utility.yul\":9931:9934   */\n  dup4\n    /* \"#utility.yul\":9925:9929   */\n  dup4\n    /* \"#utility.yul\":9906:9935   */\n  tag_84\n  jump\t// in\ntag_205:\n    /* \"#utility.yul\":9898:9935   */\n  swap2\n  pop\n    /* \"#utility.yul\":9968:9971   */\n  dup3\n    /* \"#utility.yul\":9965:9966   */\n  0x02\n    /* \"#utility.yul\":9961:9972   */\n  mul\n    /* \"#utility.yul\":9955:9959   */\n  dup3\n    /* \"#utility.yul\":9952:9973   */\n  or\n    /* \"#utility.yul\":9944:9973   */\n  swap1\n  pop\n    /* \"#utility.yul\":9684:9979   */\n  swap3\n  swap2\n  pop\n  pop\n  jump\t// out\n    /* \"#utility.yul\":9984:11379   */\ntag_7:\n    /* \"#utility.yul\":10101:10138   */\n  tag_207\n    /* \"#utility.yul\":10134:10137   */\n  dup3\n    /* \"#utility.yul\":10101:10138   */\n  tag_68\n  jump\t// in\ntag_207:\n    /* \"#utility.yul\":10203:10221   */\n  0xffffffffffffffff\n    /* \"#utility.yul\":10195:10201   */\n  dup2\n    /* \"#utility.yul\":10192:10222   */\n  gt\n    /* \"#utility.yul\":10189:10245   */\n  iszero\n  tag_208\n  jumpi\n    /* \"#utility.yul\":10225:10243   */\n  tag_209\n  tag_52\n  jump\t// in\ntag_209:\n    /* \"#utility.yul\":10189:10245   */\ntag_208:\n    /* \"#utility.yul\":10269:10307   */\n  tag_210\n    /* \"#utility.yul\":10301:10305   */\n  dup3\n    /* \"#utility.yul\":10295:10306   */\n  sload\n    /* \"#utility.yul\":10269:10307   */\n  tag_70\n  jump\t// in\ntag_210:\n    /* \"#utility.yul\":10354:10421   */\n  tag_211\n    /* \"#utility.yul\":10414:10420   */\n  dup3\n    /* \"#utility.yul\":10406:10412   */\n  dup3\n    /* \"#utility.yul\":10400:10404   */\n  dup6\n    /* \"#utility.yul\":10354:10421   */\n  tag_82\n  jump\t// in\ntag_211:\n    /* \"#utility.yul\":10448:10449   */\n  0x00\n    /* \"#utility.yul\":10472:10476   */\n  0x20\n    /* \"#utility.yul\":10459:10476   */\n  swap1\n  pop\n    /* \"#utility.yul\":10504:10506   */\n  0x1f\n    /* \"#utility.yul\":10496:10502   */\n  dup4\n    /* \"#utility.yul\":10493:10507   */\n  gt\n    /* \"#utility.yul\":10521:10522   */\n  0x01\n    /* \"#utility.yul\":10516:11134   */\n  dup2\n  eq\n  tag_213\n  jumpi\n    /* \"#utility.yul\":11178:11179   */\n  0x00\n    /* \"#utility.yul\":11195:11201   */\n  dup5\n    /* \"#utility.yul\":11192:11269   */\n  iszero\n  tag_214\n  jumpi\n    /* \"#utility.yul\":11244:11253   */\n  dup3\n    /* \"#utility.yul\":11239:11242   */\n  dup8\n    /* \"#utility.yul\":11235:11254   */\n  add\n    /* \"#utility.yul\":11229:11255   */\n  mload\n    /* \"#utility.yul\":11220:11255   */\n  swap1\n  pop\n    /* \"#utility.yul\":11192:11269   */\ntag_214:\n    /* \"#utility.yul\":11295:11362   */\n  tag_215\n    /* \"#utility.yul\":11355:11361   */\n  dup6\n    /* \"#utility.yul\":11348:11353   */\n  dup3\n    /* \"#utility.yul\":11295:11362   */\n  tag_85\n  jump\t// in\ntag_215:\n    /* \"#utility.yul\":11289:11293   */\n  dup7\n    /* \"#utility.yul\":11282:11363   */\n  sstore\n    /* \"#utility.yul\":11151:11373   */\n  pop\n    /* \"#utility.yul\":10486:11373   */\n  jump(tag_212)\n    /* \"#utility.yul\":10516:11134   */\ntag_213:\n    /* \"#utility.yul\":10568:10572   */\n  0x1f\n    /* \"#utility.yul\":10564:10573   */\n  not\n    /* \"#utility.yul\":10556:10562   */\n  dup5\n    /* \"#utility.yul\":10552:10574   */\n  and\n    /* \"#utility.yul\":10602:10639   */\n  tag_216\n    /* \"#utility.yul\":10634:10638   */\n  dup7\n    /* \"#utility.yul\":10602:10639   */\n  tag_71\n  jump\t// in\ntag_216:\n    /* \"#utility.yul\":10661:10662   */\n  0x00\n    /* \"#utility.yul\":10675:10883   */\ntag_217:\n    /* \"#utility.yul\":10689:10696   */\n  dup3\n    /* \"#utility.yul\":10686:10687   */\n  dup2\n    /* \"#utility.yul\":10683:10697   */\n  lt\n    /* \"#utility.yul\":10675:10883   */\n  iszero\n  tag_219\n  jumpi\n    /* \"#utility.yul\":10768:10777   */\n  dup5\n    /* \"#utility.yul\":10763:10766   */\n  dup10\n    /* \"#utility.yul\":10759:10778   */\n  add\n    /* \"#utility.yul\":10753:10779   */\n  mload\n    /* \"#utility.yul\":10745:10751   */\n  dup3\n    /* \"#utility.yul\":10738:10780   */\n  sstore\n    /* \"#utility.yul\":10819:10820   */\n  0x01\n    /* \"#utility.yul\":10811:10817   */\n  dup3\n    /* \"#utility.yul\":10807:10821   */\n  add\n    /* \"#utility.yul\":10797:10821   */\n  swap2\n  pop\n    /* \"#utility.yul\":10866:10868   */\n  0x20\n    /* \"#utility.yul\":10855:10864   */\n  dup6\n    /* \"#utility.yul\":10851:10869   */\n  add\n    /* \"#utility.yul\":10838:10869   */\n  swap5\n  pop\n    /* \"#utility.yul\":10712:10716   */\n  0x20\n    /* \"#utility.yul\":10709:10710   */\n  dup2\n    /* \"#utility.yul\":10705:10717   */\n  add\n    /* \"#utility.yul\":10700:10717   */\n  swap1\n  pop\n    /* \"#utility.yul\":10675:10883   */\n  jump(tag_217)\ntag_219:\n    /* \"#utility.yul\":10911:10917   */\n  dup7\n    /* \"#utility.yul\":10902:10909   */\n  dup4\n    /* \"#utility.yul\":10899:10918   */\n  lt\n    /* \"#utility.yul\":10896:11075   */\n  iszero\n  tag_220\n  jumpi\n    /* \"#utility.yul\":10969:10978   */\n  dup5\n    /* \"#utility.yul\":10964:10967   */\n  dup10\n    /* \"#utility.yul\":10960:10979   */\n  add\n    /* \"#utility.yul\":10954:10980   */\n  mload\n    /* \"#utility.yul\":11012:11060   */\n  tag_221\n    /* \"#utility.yul\":11054:11058   */\n  0x1f\n    /* \"#utility.yul\":11046:11052   */\n  dup10\n    /* \"#utility.yul\":11042:11059   */\n  and\n    /* \"#utility.yul\":11031:11040   */\n  dup3\n    /* \"#utility.yul\":11012:11060   */\n  tag_84\n  jump\t// in\ntag_221:\n    /* \"#utility.yul\":11004:11010   */\n  dup4\n    /* \"#utility.yul\":10997:11061   */\n  sstore\n    /* \"#utility.yul\":10919:11075   */\n  pop\n    /* \"#utility.yul\":10896:11075   */\ntag_220:\n    /* \"#utility.yul\":11121:11122   */\n  0x01\n    /* \"#utility.yul\":11117:11118   */\n  0x02\n    /* \"#utility.yul\":11109:11115   */\n  dup9\n    /* \"#utility.yul\":11105:11119   */\n  mul\n    /* \"#utility.yul\":11101:11123   */\n  add\n    /* \"#utility.yul\":11095:11099   */\n  dup9\n    /* \"#utility.yul\":11088:11124   */\n  sstore\n    /* \"#utility.yul\":10523:11134   */\n  pop\n  pop\n  pop\n    /* \"#utility.yul\":10486:11373   */\ntag_212:\n  pop\n    /* \"#utility.yul\":10076:11379   */\n  pop\n  pop\n  pop\n    /* \"#utility.yul\":9984:11379   */\n  pop\n  pop\n  jump\t// out\n    /* \"#utility.yul\":11385:11565   */\ntag_10:\n    /* \"#utility.yul\":11433:11510   */\n  0x4e487b7100000000000000000000000000000000000000000000000000000000\n    /* \"#utility.yul\":11430:11431   */\n  0x00\n    /* \"#utility.yul\":11423:11511   */\n  mstore\n    /* \"#utility.yul\":11530:11534   */\n  0x21\n    /* \"#utility.yul\":11527:11528   */\n  0x04\n    /* \"#utility.yul\":11520:11535   */\n  mstore\n    /* \"#utility.yul\":11554:11558   */\n  0x24\n    /* \"#utility.yul\":11551:11552   */\n  0x00\n    /* \"#utility.yul\":11544:11559   */\n  revert\n    /* \"#utility.yul\":11571:11751   */\ntag_86:\n    /* \"#utility.yul\":11619:11696   */\n  0x4e487b7100000000000000000000000000000000000000000000000000000000\n    /* \"#utility.yul\":11616:11617   */\n  0x00\n    /* \"#utility.yul\":11609:11697   */\n  mstore\n    /* \"#utility.yul\":11716:11720   */\n  0x11\n    /* \"#utility.yul\":11713:11714   */\n  0x04\n    /* \"#utility.yul\":11706:11721   */\n  mstore\n    /* \"#utility.yul\":11740:11744   */\n  0x24\n    /* \"#utility.yul\":11737:11738   */\n  0x00\n    /* \"#utility.yul\":11730:11745   */\n  revert\n    /* \"#utility.yul\":11757:12167   */\ntag_15:\n    /* \"#utility.yul\":11797:11804   */\n  0x00\n    /* \"#utility.yul\":11820:11840   */\n  tag_225\n    /* \"#utility.yul\":11838:11839   */\n  dup3\n    /* \"#utility.yul\":11820:11840   */\n  tag_63\n  jump\t// in\ntag_225:\n    /* \"#utility.yul\":11815:11840   */\n  swap2\n  pop\n    /* \"#utility.yul\":11854:11874   */\n  tag_226\n    /* \"#utility.yul\":11872:11873   */\n  dup4\n    /* \"#utility.yul\":11854:11874   */\n  tag_63\n  jump\t// in\ntag_226:\n    /* \"#utility.yul\":11849:11874   */\n  swap3\n  pop\n    /* \"#utility.yul\":11909:11910   */\n  dup3\n    /* \"#utility.yul\":11906:11907   */\n  dup3\n    /* \"#utility.yul\":11902:11911   */\n  mul\n    /* \"#utility.yul\":11931:11961   */\n  tag_227\n    /* \"#utility.yul\":11949:11960   */\n  dup2\n    /* \"#utility.yul\":11931:11961   */\n  tag_63\n  jump\t// in\ntag_227:\n    /* \"#utility.yul\":11920:11961   */\n  swap2\n  pop\n    /* \"#utility.yul\":12110:12111   */\n  dup3\n    /* \"#utility.yul\":12101:12108   */\n  dup3\n    /* \"#utility.yul\":12097:12112   */\n  div\n    /* \"#utility.yul\":12094:12095   */\n  dup5\n    /* \"#utility.yul\":12091:12113   */\n  eq\n    /* \"#utility.yul\":12071:12072   */\n  dup4\n    /* \"#utility.yul\":12064:12073   */\n  iszero\n    /* \"#utility.yul\":12044:12127   */\n  or\n    /* \"#utility.yul\":12021:12160   */\n  tag_228\n  jumpi\n    /* \"#utility.yul\":12140:12158   */\n  tag_229\n  tag_86\n  jump\t// in\ntag_229:\n    /* \"#utility.yul\":12021:12160   */\ntag_228:\n    /* \"#utility.yul\":11805:12167   */\n  pop\n    /* \"#utility.yul\":11757:12167   */\n  swap3\n  swap2\n  pop\n  pop\n  jump\t// out\n    /* \"#utility.yul\":12173:12342   */\ntag_87:\n    /* \"#utility.yul\":12257:12268   */\n  0x00\n    /* \"#utility.yul\":12291:12297   */\n  dup3\n    /* \"#utility.yul\":12286:12289   */\n  dup3\n    /* \"#utility.yul\":12279:12298   */\n  mstore\n    /* \"#utility.yul\":12331:12335   */\n  0x20\n    /* \"#utility.yul\":12326:12329   */\n  dup3\n    /* \"#utility.yul\":12322:12336   */\n  add\n    /* \"#utility.yul\":12307:12336   */\n  swap1\n  pop\n    /* \"#utility.yul\":12173:12342   */\n  swap3\n  swap2\n  pop\n  pop\n  jump\t// out\n    /* \"#utility.yul\":12348:12569   */\ntag_88:\n    /* \"#utility.yul\":12488:12522   */\n  0x556e737570706f727465642074696d65206475726174696f6e2073656c656374\n    /* \"#utility.yul\":12484:12485   */\n  0x00\n    /* \"#utility.yul\":12476:12482   */\n  dup3\n    /* \"#utility.yul\":12472:12486   */\n  add\n    /* \"#utility.yul\":12465:12523   */\n  mstore\n    /* \"#utility.yul\":12557:12561   */\n  0x6564000000000000000000000000000000000000000000000000000000000000\n    /* \"#utility.yul\":12552:12554   */\n  0x20\n    /* \"#utility.yul\":12544:12550   */\n  dup3\n    /* \"#utility.yul\":12540:12555   */\n  add\n    /* \"#utility.yul\":12533:12562   */\n  mstore\n    /* \"#utility.yul\":12348:12569   */\n  pop\n  jump\t// out\n    /* \"#utility.yul\":12575:12941   */\ntag_89:\n    /* \"#utility.yul\":12717:12720   */\n  0x00\n    /* \"#utility.yul\":12738:12805   */\n  tag_233\n    /* \"#utility.yul\":12802:12804   */\n  0x22\n    /* \"#utility.yul\":12797:12800   */\n  dup4\n    /* \"#utility.yul\":12738:12805   */\n  tag_87\n  jump\t// in\ntag_233:\n    /* \"#utility.yul\":12731:12805   */\n  swap2\n  pop\n    /* \"#utility.yul\":12814:12907   */\n  tag_234\n    /* \"#utility.yul\":12903:12906   */\n  dup3\n    /* \"#utility.yul\":12814:12907   */\n  tag_88\n  jump\t// in\ntag_234:\n    /* \"#utility.yul\":12932:12934   */\n  0x40\n    /* \"#utility.yul\":12927:12930   */\n  dup3\n    /* \"#utility.yul\":12923:12935   */\n  add\n    /* \"#utility.yul\":12916:12935   */\n  swap1\n  pop\n    /* \"#utility.yul\":12575:12941   */\n  swap2\n  swap1\n  pop\n  jump\t// out\n    /* \"#utility.yul\":12947:13366   */\ntag_32:\n    /* \"#utility.yul\":13113:13117   */\n  0x00\n    /* \"#utility.yul\":13151:13153   */\n  0x20\n    /* \"#utility.yul\":13140:13149   */\n  dup3\n    /* \"#utility.yul\":13136:13154   */\n  add\n    /* \"#utility.yul\":13128:13154   */\n  swap1\n  pop\n    /* \"#utility.yul\":13200:13209   */\n  dup2\n    /* \"#utility.yul\":13194:13198   */\n  dup2\n    /* \"#utility.yul\":13190:13210   */\n  sub\n    /* \"#utility.yul\":13186:13187   */\n  0x00\n    /* \"#utility.yul\":13175:13184   */\n  dup4\n    /* \"#utility.yul\":13171:13188   */\n  add\n    /* \"#utility.yul\":13164:13211   */\n  mstore\n    /* \"#utility.yul\":13228:13359   */\n  tag_236\n    /* \"#utility.yul\":13354:13358   */\n  dup2\n    /* \"#utility.yul\":13228:13359   */\n  tag_89\n  jump\t// in\ntag_236:\n    /* \"#utility.yul\":13220:13359   */\n  swap1\n  pop\n    /* \"#utility.yul\":12947:13366   */\n  swap2\n  swap1\n  pop\n  jump\t// out\n    /* \"#utility.yul\":13372:13563   */\ntag_37:\n    /* \"#utility.yul\":13412:13415   */\n  0x00\n    /* \"#utility.yul\":13431:13451   */\n  tag_238\n    /* \"#utility.yul\":13449:13450   */\n  dup3\n    /* \"#utility.yul\":13431:13451   */\n  tag_63\n  jump\t// in\ntag_238:\n    /* \"#utility.yul\":13426:13451   */\n  swap2\n  pop\n    /* \"#utility.yul\":13465:13485   */\n  tag_239\n    /* \"#utility.yul\":13483:13484   */\n  dup4\n    /* \"#utility.yul\":13465:13485   */\n  tag_63\n  jump\t// in\ntag_239:\n    /* \"#utility.yul\":13460:13485   */\n  swap3\n  pop\n    /* \"#utility.yul\":13508:13509   */\n  dup3\n    /* \"#utility.yul\":13505:13506   */\n  dup3\n    /* \"#utility.yul\":13501:13510   */\n  add\n    /* \"#utility.yul\":13494:13510   */\n  swap1\n  pop\n    /* \"#utility.yul\":13529:13532   */\n  dup1\n    /* \"#utility.yul\":13526:13527   */\n  dup3\n    /* \"#utility.yul\":13523:13533   */\n  gt\n    /* \"#utility.yul\":13520:13556   */\n  iszero\n  tag_240\n  jumpi\n    /* \"#utility.yul\":13536:13554   */\n  tag_241\n  tag_86\n  jump\t// in\ntag_241:\n    /* \"#utility.yul\":13520:13556   */\ntag_240:\n    /* \"#utility.yul\":13372:13563   */\n  swap3\n  swap2\n  pop\n  pop\n  jump\t// out\n    /* \"#utility.yul\":13569:13749   */\ntag_40:\n    /* \"#utility.yul\":13617:13694   */\n  0x4e487b7100000000000000000000000000000000000000000000000000000000\n    /* \"#utility.yul\":13614:13615   */\n  0x00\n    /* \"#utility.yul\":13607:13695   */\n  mstore\n    /* \"#utility.yul\":13714:13718   */\n  0x32\n    /* \"#utility.yul\":13711:13712   */\n  0x04\n    /* \"#utility.yul\":13704:13719   */\n  mstore\n    /* \"#utility.yul\":13738:13742   */\n  0x24\n    /* \"#utility.yul\":13735:13736   */\n  0x00\n    /* \"#utility.yul\":13728:13743   */\n  revert\n    /* \"#utility.yul\":13755:13988   */\ntag_44:\n    /* \"#utility.yul\":13794:13797   */\n  0x00\n    /* \"#utility.yul\":13817:13841   */\n  tag_244\n    /* \"#utility.yul\":13835:13840   */\n  dup3\n    /* \"#utility.yul\":13817:13841   */\n  tag_63\n  jump\t// in\ntag_244:\n    /* \"#utility.yul\":13808:13841   */\n  swap2\n  pop\n    /* \"#utility.yul\":13863:13929   */\n  0xffffffffffffffffffffffffffffffffffffffffffffffffffffffffffffffff\n    /* \"#utility.yul\":13856:13861   */\n  dup3\n    /* \"#utility.yul\":13853:13930   */\n  sub\n    /* \"#utility.yul\":13850:13953   */\n  tag_245\n  jumpi\n    /* \"#utility.yul\":13933:13951   */\n  tag_246\n  tag_86\n  jump\t// in\ntag_246:\n    /* \"#utility.yul\":13850:13953   */\ntag_245:\n    /* \"#utility.yul\":13980:13981   */\n  0x01\n    /* \"#utility.yul\":13973:13978   */\n  dup3\n    /* \"#utility.yul\":13969:13982   */\n  add\n    /* \"#utility.yul\":13962:13982   */\n  swap1\n  pop\n    /* \"#utility.yul\":13755:13988   */\n  swap2\n  swap1\n  pop\n  jump\t// out\n    /* \"contracts/week_1/votingmechanism.sol\":622:3859  contract Poll {... */\ntag_45:\n  mload(0x80)\n  mload(0xa0)\n  codecopy(0x00, dataOffset(sub_0), dataSize(sub_0))\n  0x00\n  assignImmutable(\"0x52f1a9b320cab38e5da8a8f97989383aab0a49165fc91c737310e4f7e9821021\")\n  0x00\n  assignImmutable(\"0xceebf77a833b30520287ddd9478ff51abbdffa30aa90a8d655dba0e8a79ce0c1\")\n  return(0x00, dataSize(sub_0))\nstop\n\nsub_0: assembly {\n        /* \"contracts/week_1/votingmechanism.sol\":622:3859  contract Poll {... */\n      mstore(0x40, 0x80)\n      callvalue\n      dup1\n      iszero\n      tag_1\n      jumpi\n      0x00\n      dup1\n      revert\n    tag_1:\n      pop\n      jumpi(tag_2, lt(calldatasize, 0x04))\n      shr(0xe0, calldataload(0x00))\n      dup1\n      0x3eb76b9c\n      eq\n      tag_3\n      jumpi\n      dup1\n      0xbc9cd2ce\n      eq\n      tag_4\n      jumpi\n      dup1\n      0xbf63a577\n      eq\n      tag_5\n      jumpi\n    tag_2:\n      0x00\n      dup1\n      revert\n        /* \"contracts/week_1/votingmechanism.sol\":2494:3287  function castVote(uint _id) public pollStillValid hasNotYetVoted {... */\n    tag_3:\n      tag_6\n      0x04\n      dup1\n      calldatasize\n      sub\n      dup2\n      add\n      swap1\n      tag_7\n      swap2\n      swap1\n      tag_8\n      jump\t// in\n    tag_7:\n      tag_9\n      jump\t// in\n    tag_6:\n      stop\n        /* \"contracts/week_1/votingmechanism.sol\":3296:3856  function seeResults() ... */\n    tag_4:\n      tag_10\n      tag_11\n      jump\t// in\n    tag_10:\n      mload(0x40)\n      tag_12\n      swap4\n      swap3\n      swap2\n      swap1\n      tag_13\n      jump\t// in\n    tag_12:\n      mload(0x40)\n      dup1\n      swap2\n      sub\n      swap1\n      return\n        /* \"contracts/week_1/votingmechanism.sol\":643:662  string public topic */\n    tag_5:\n      tag_14\n      tag_15\n      jump\t// in\n    tag_14:\n      mload(0x40)\n      tag_16\n      swap2\n      swap1\n      tag_17\n      jump\t// in\n    tag_16:\n      mload(0x40)\n      dup1\n      swap2\n      sub\n      swap1\n      return\n        /* \"contracts/week_1/votingmechanism.sol\":2494:3287  function castVote(uint _id) public pollStillValid hasNotYetVoted {... */\n    tag_9:\n        /* \"contracts/week_1/votingmechanism.sol\":1373:1381  duration */\n      sload(0x01)\n        /* \"contracts/week_1/votingmechanism.sol\":1363:1370  created */\n      immutable(\"0x52f1a9b320cab38e5da8a8f97989383aab0a49165fc91c737310e4f7e9821021\")\n        /* \"contracts/week_1/votingmechanism.sol\":1363:1381  created + duration */\n      tag_19\n      swap2\n      swap1\n      tag_20\n      jump\t// in\n    tag_19:\n        /* \"contracts/week_1/votingmechanism.sol\":1344:1359  block.timestamp */\n      timestamp\n        /* \"contracts/week_1/votingmechanism.sol\":1344:1382  block.timestamp < (created + duration) */\n      lt\n        /* \"contracts/week_1/votingmechanism.sol\":1336:1422  require(block.timestamp < (created + duration), ... */\n      tag_21\n      jumpi\n      mload(0x40)\n      0x08c379a000000000000000000000000000000000000000000000000000000000\n      dup2\n      mstore\n      0x04\n      add\n      tag_22\n      swap1\n      tag_23\n      jump\t// in\n    tag_22:\n      mload(0x40)\n      dup1\n      swap2\n      sub\n      swap1\n      revert\n    tag_21:\n        /* \"contracts/week_1/votingmechanism.sol\":1199:1203  true */\n      0x01\n        /* \"contracts/week_1/votingmechanism.sol\":1178:1203  voted[msg.sender] != true */\n      iszero\n      iszero\n        /* \"contracts/week_1/votingmechanism.sol\":1178:1183  voted */\n      0x02\n        /* \"contracts/week_1/votingmechanism.sol\":1178:1195  voted[msg.sender] */\n      0x00\n        /* \"contracts/week_1/votingmechanism.sol\":1184:1194  msg.sender */\n      caller\n        /* \"contracts/week_1/votingmechanism.sol\":1178:1195  voted[msg.sender] */\n      0xffffffffffffffffffffffffffffffffffffffff\n      and\n      0xffffffffffffffffffffffffffffffffffffffff\n      and\n      dup2\n      mstore\n      0x20\n      add\n      swap1\n      dup2\n      mstore\n      0x20\n      add\n      0x00\n      keccak256\n      0x00\n      swap1\n      sload\n      swap1\n      0x0100\n      exp\n      swap1\n      div\n      0xff\n      and\n        /* \"contracts/week_1/votingmechanism.sol\":1178:1203  voted[msg.sender] != true */\n      iszero\n      iszero\n      sub\n        /* \"contracts/week_1/votingmechanism.sol\":1170:1230  require(voted[msg.sender] != true, \"User cannot vote twice\") */\n      tag_25\n      jumpi\n      mload(0x40)\n      0x08c379a000000000000000000000000000000000000000000000000000000000\n      dup2\n      mstore\n      0x04\n      add\n      tag_26\n      swap1\n      tag_27\n      jump\t// in\n    tag_26:\n      mload(0x40)\n      dup1\n      swap2\n      sub\n      swap1\n      revert\n    tag_25:\n        /* \"contracts/week_1/votingmechanism.sol\":2570:2583  bool voteCast */\n      0x00\n        /* \"contracts/week_1/votingmechanism.sol\":2657:2663  uint i */\n      dup1\n        /* \"contracts/week_1/votingmechanism.sol\":2652:3100  for (uint i = 0; i < options.length; i++) {... */\n    tag_29:\n        /* \"contracts/week_1/votingmechanism.sol\":2673:2680  options */\n      0x03\n        /* \"contracts/week_1/votingmechanism.sol\":2673:2687  options.length */\n      dup1\n      sload\n      swap1\n      pop\n        /* \"contracts/week_1/votingmechanism.sol\":2669:2670  i */\n      dup2\n        /* \"contracts/week_1/votingmechanism.sol\":2669:2687  i < options.length */\n      lt\n        /* \"contracts/week_1/votingmechanism.sol\":2652:3100  for (uint i = 0; i < options.length; i++) {... */\n      iszero\n      tag_30\n      jumpi\n        /* \"contracts/week_1/votingmechanism.sol\":2781:2784  _id */\n      dup3\n        /* \"contracts/week_1/votingmechanism.sol\":2764:2771  options */\n      0x03\n        /* \"contracts/week_1/votingmechanism.sol\":2772:2773  i */\n      dup3\n        /* \"contracts/week_1/votingmechanism.sol\":2764:2774  options[i] */\n      dup2\n      sload\n      dup2\n      lt\n      tag_32\n      jumpi\n      tag_33\n      tag_34\n      jump\t// in\n    tag_33:\n    tag_32:\n      swap1\n      0x00\n      mstore\n      keccak256(0x00, 0x20)\n      swap1\n      0x03\n      mul\n      add\n        /* \"contracts/week_1/votingmechanism.sol\":2764:2777  options[i].id */\n      0x00\n      add\n      sload\n        /* \"contracts/week_1/votingmechanism.sol\":2764:2784  options[i].id == _id */\n      sub\n        /* \"contracts/week_1/votingmechanism.sol\":2760:3089  if (options[i].id == _id) {... */\n      tag_36\n      jumpi\n        /* \"contracts/week_1/votingmechanism.sol\":2893:2894  1 */\n      0x01\n        /* \"contracts/week_1/votingmechanism.sol\":2873:2880  options */\n      0x03\n        /* \"contracts/week_1/votingmechanism.sol\":2881:2882  i */\n      dup3\n        /* \"contracts/week_1/votingmechanism.sol\":2873:2883  options[i] */\n      dup2\n      sload\n      dup2\n      lt\n      tag_37\n      jumpi\n      tag_38\n      tag_34\n      jump\t// in\n    tag_38:\n    tag_37:\n      swap1\n      0x00\n      mstore\n      keccak256(0x00, 0x20)\n      swap1\n      0x03\n      mul\n      add\n        /* \"contracts/week_1/votingmechanism.sol\":2873:2889  options[i].votes */\n      0x02\n      add\n      0x00\n        /* \"contracts/week_1/votingmechanism.sol\":2873:2894  options[i].votes += 1 */\n      dup3\n      dup3\n      sload\n      tag_40\n      swap2\n      swap1\n      tag_20\n      jump\t// in\n    tag_40:\n      swap3\n      pop\n      pop\n      dup2\n      swap1\n      sstore\n      pop\n        /* \"contracts/week_1/votingmechanism.sol\":3011:3015  true */\n      0x01\n        /* \"contracts/week_1/votingmechanism.sol\":2991:2996  voted */\n      0x02\n        /* \"contracts/week_1/votingmechanism.sol\":2991:3008  voted[msg.sender] */\n      0x00\n        /* \"contracts/week_1/votingmechanism.sol\":2997:3007  msg.sender */\n      caller\n        /* \"contracts/week_1/votingmechanism.sol\":2991:3008  voted[msg.sender] */\n      0xffffffffffffffffffffffffffffffffffffffff\n      and\n      0xffffffffffffffffffffffffffffffffffffffff\n      and\n      dup2\n      mstore\n      0x20\n      add\n      swap1\n      dup2\n      mstore\n      0x20\n      add\n      0x00\n      keccak256\n      0x00\n        /* \"contracts/week_1/votingmechanism.sol\":2991:3015  voted[msg.sender] = true */\n      0x0100\n      exp\n      dup2\n      sload\n      dup2\n      0xff\n      mul\n      not\n      and\n      swap1\n      dup4\n      iszero\n      iszero\n      mul\n      or\n      swap1\n      sstore\n      pop\n        /* \"contracts/week_1/votingmechanism.sol\":3045:3049  true */\n      0x01\n        /* \"contracts/week_1/votingmechanism.sol\":3034:3049  voteCast = true */\n      swap2\n      pop\n        /* \"contracts/week_1/votingmechanism.sol\":3068:3073  break */\n      jump(tag_30)\n        /* \"contracts/week_1/votingmechanism.sol\":2760:3089  if (options[i].id == _id) {... */\n    tag_36:\n        /* \"contracts/week_1/votingmechanism.sol\":2689:2692  i++ */\n      dup1\n      dup1\n      tag_41\n      swap1\n      tag_42\n      jump\t// in\n    tag_41:\n      swap2\n      pop\n      pop\n        /* \"contracts/week_1/votingmechanism.sol\":2652:3100  for (uint i = 0; i < options.length; i++) {... */\n      jump(tag_29)\n    tag_30:\n      pop\n        /* \"contracts/week_1/votingmechanism.sol\":3229:3237  voteCast */\n      dup1\n        /* \"contracts/week_1/votingmechanism.sol\":3221:3279  require(voteCast, \"Option with selected ID was not found\") */\n      tag_43\n      jumpi\n      mload(0x40)\n      0x08c379a000000000000000000000000000000000000000000000000000000000\n      dup2\n      mstore\n      0x04\n      add\n      tag_44\n      swap1\n      tag_45\n      jump\t// in\n    tag_44:\n      mload(0x40)\n      dup1\n      swap2\n      sub\n      swap1\n      revert\n    tag_43:\n        /* \"contracts/week_1/votingmechanism.sol\":2559:3287  {... */\n      pop\n        /* \"contracts/week_1/votingmechanism.sol\":2494:3287  function castVote(uint _id) public pollStillValid hasNotYetVoted {... */\n      pop\n      jump\t// out\n        /* \"contracts/week_1/votingmechanism.sol\":3296:3856  function seeResults() ... */\n    tag_11:\n        /* \"contracts/week_1/votingmechanism.sol\":3368:3381  uint[] memory */\n      0x60\n        /* \"contracts/week_1/votingmechanism.sol\":3383:3398  string[] memory */\n      dup1\n        /* \"contracts/week_1/votingmechanism.sol\":3400:3413  uint[] memory */\n      0x60\n        /* \"contracts/week_1/votingmechanism.sol\":3436:3453  uint[] memory ids */\n      0x00\n        /* \"contracts/week_1/votingmechanism.sol\":3467:3474  options */\n      0x03\n        /* \"contracts/week_1/votingmechanism.sol\":3467:3481  options.length */\n      dup1\n      sload\n      swap1\n      pop\n        /* \"contracts/week_1/votingmechanism.sol\":3456:3482  new uint[](options.length) */\n      0xffffffffffffffff\n      dup2\n      gt\n      iszero\n      tag_47\n      jumpi\n      tag_48\n      tag_49\n      jump\t// in\n    tag_48:\n    tag_47:\n      mload(0x40)\n      swap1\n      dup1\n      dup3\n      mstore\n      dup1\n      0x20\n      mul\n      0x20\n      add\n      dup3\n      add\n      0x40\n      mstore\n      dup1\n      iszero\n      tag_50\n      jumpi\n      dup2\n      0x20\n      add\n      0x20\n      dup3\n      mul\n      dup1\n      calldatasize\n      dup4\n      calldatacopy\n      dup1\n      dup3\n      add\n      swap2\n      pop\n      pop\n      swap1\n      pop\n    tag_50:\n      pop\n        /* \"contracts/week_1/votingmechanism.sol\":3436:3482  uint[] memory ids = new uint[](options.length) */\n      swap1\n      pop\n        /* \"contracts/week_1/votingmechanism.sol\":3493:3515  string[] memory titles */\n      0x00\n        /* \"contracts/week_1/votingmechanism.sol\":3531:3538  options */\n      0x03\n        /* \"contracts/week_1/votingmechanism.sol\":3531:3545  options.length */\n      dup1\n      sload\n      swap1\n      pop\n        /* \"contracts/week_1/votingmechanism.sol\":3518:3546  new string[](options.length) */\n      0xffffffffffffffff\n      dup2\n      gt\n      iszero\n      tag_51\n      jumpi\n      tag_52\n      tag_49\n      jump\t// in\n    tag_52:\n    tag_51:\n      mload(0x40)\n      swap1\n      dup1\n      dup3\n      mstore\n      dup1\n      0x20\n      mul\n      0x20\n      add\n      dup3\n      add\n      0x40\n      mstore\n      dup1\n      iszero\n      tag_53\n      jumpi\n      dup2\n      0x20\n      add\n    tag_54:\n      0x60\n      dup2\n      mstore\n      0x20\n      add\n      swap1\n      0x01\n      swap1\n      sub\n      swap1\n      dup2\n      tag_54\n      jumpi\n      swap1\n      pop\n    tag_53:\n      pop\n        /* \"contracts/week_1/votingmechanism.sol\":3493:3546  string[] memory titles = new string[](options.length) */\n      swap1\n      pop\n        /* \"contracts/week_1/votingmechanism.sol\":3557:3581  uint[] memory voteCounts */\n      0x00\n        /* \"contracts/week_1/votingmechanism.sol\":3595:3602  options */\n      0x03\n        /* \"contracts/week_1/votingmechanism.sol\":3595:3609  options.length */\n      dup1\n      sload\n      swap1\n      pop\n        /* \"contracts/week_1/votingmechanism.sol\":3584:3610  new uint[](options.length) */\n      0xffffffffffffffff\n      dup2\n      gt\n      iszero\n      tag_55\n      jumpi\n      tag_56\n      tag_49\n      jump\t// in\n    tag_56:\n    tag_55:\n      mload(0x40)\n      swap1\n      dup1\n      dup3\n      mstore\n      dup1\n      0x20\n      mul\n      0x20\n      add\n      dup3\n      add\n      0x40\n      mstore\n      dup1\n      iszero\n      tag_57\n      jumpi\n      dup2\n      0x20\n      add\n      0x20\n      dup3\n      mul\n      dup1\n      calldatasize\n      dup4\n      calldatacopy\n      dup1\n      dup3\n      add\n      swap2\n      pop\n      pop\n      swap1\n      pop\n    tag_57:\n      pop\n        /* \"contracts/week_1/votingmechanism.sol\":3557:3610  uint[] memory voteCounts = new uint[](options.length) */\n      swap1\n      pop\n        /* \"contracts/week_1/votingmechanism.sol\":3628:3634  uint i */\n      0x00\n        /* \"contracts/week_1/votingmechanism.sol\":3623:3804  for (uint i = 0; i < options.length; i++) {... */\n    tag_58:\n        /* \"contracts/week_1/votingmechanism.sol\":3644:3651  options */\n      0x03\n        /* \"contracts/week_1/votingmechanism.sol\":3644:3658  options.length */\n      dup1\n      sload\n      swap1\n      pop\n        /* \"contracts/week_1/votingmechanism.sol\":3640:3641  i */\n      dup2\n        /* \"contracts/week_1/votingmechanism.sol\":3640:3658  i < options.length */\n      lt\n        /* \"contracts/week_1/votingmechanism.sol\":3623:3804  for (uint i = 0; i < options.length; i++) {... */\n      iszero\n      tag_59\n      jumpi\n        /* \"contracts/week_1/votingmechanism.sol\":3689:3696  options */\n      0x03\n        /* \"contracts/week_1/votingmechanism.sol\":3697:3698  i */\n      dup2\n        /* \"contracts/week_1/votingmechanism.sol\":3689:3699  options[i] */\n      dup2\n      sload\n      dup2\n      lt\n      tag_61\n      jumpi\n      tag_62\n      tag_34\n      jump\t// in\n    tag_62:\n    tag_61:\n      swap1\n      0x00\n      mstore\n      keccak256(0x00, 0x20)\n      swap1\n      0x03\n      mul\n      add\n        /* \"contracts/week_1/votingmechanism.sol\":3689:3702  options[i].id */\n      0x00\n      add\n      sload\n        /* \"contracts/week_1/votingmechanism.sol\":3680:3683  ids */\n      dup5\n        /* \"contracts/week_1/votingmechanism.sol\":3684:3685  i */\n      dup3\n        /* \"contracts/week_1/votingmechanism.sol\":3680:3686  ids[i] */\n      dup2\n      mload\n      dup2\n      lt\n      tag_64\n      jumpi\n      tag_65\n      tag_34\n      jump\t// in\n    tag_65:\n    tag_64:\n      0x20\n      mul\n      0x20\n      add\n      add\n        /* \"contracts/week_1/votingmechanism.sol\":3680:3702  ids[i] = options[i].id */\n      dup2\n      dup2\n      mstore\n      pop\n      pop\n        /* \"contracts/week_1/votingmechanism.sol\":3729:3736  options */\n      0x03\n        /* \"contracts/week_1/votingmechanism.sol\":3737:3738  i */\n      dup2\n        /* \"contracts/week_1/votingmechanism.sol\":3729:3739  options[i] */\n      dup2\n      sload\n      dup2\n      lt\n      tag_66\n      jumpi\n      tag_67\n      tag_34\n      jump\t// in\n    tag_67:\n    tag_66:\n      swap1\n      0x00\n      mstore\n      keccak256(0x00, 0x20)\n      swap1\n      0x03\n      mul\n      add\n        /* \"contracts/week_1/votingmechanism.sol\":3729:3745  options[i].title */\n      0x01\n      add\n        /* \"contracts/week_1/votingmechanism.sol\":3717:3745  titles[i] = options[i].title */\n      dup1\n      sload\n      tag_69\n      swap1\n      tag_70\n      jump\t// in\n    tag_69:\n      dup1\n      0x1f\n      add\n      0x20\n      dup1\n      swap2\n      div\n      mul\n      0x20\n      add\n      mload(0x40)\n      swap1\n      dup2\n      add\n      0x40\n      mstore\n      dup1\n      swap3\n      swap2\n      swap1\n      dup2\n      dup2\n      mstore\n      0x20\n      add\n      dup3\n      dup1\n      sload\n      tag_71\n      swap1\n      tag_70\n      jump\t// in\n    tag_71:\n      dup1\n      iszero\n      tag_72\n      jumpi\n      dup1\n      0x1f\n      lt\n      tag_73\n      jumpi\n      0x0100\n      dup1\n      dup4\n      sload\n      div\n      mul\n      dup4\n      mstore\n      swap2\n      0x20\n      add\n      swap2\n      jump(tag_72)\n    tag_73:\n      dup3\n      add\n      swap2\n      swap1\n      0x00\n      mstore\n      keccak256(0x00, 0x20)\n      swap1\n    tag_74:\n      dup2\n      sload\n      dup2\n      mstore\n      swap1\n      0x01\n      add\n      swap1\n      0x20\n      add\n      dup1\n      dup4\n      gt\n      tag_74\n      jumpi\n      dup3\n      swap1\n      sub\n      0x1f\n      and\n      dup3\n      add\n      swap2\n    tag_72:\n      pop\n      pop\n      pop\n      pop\n      pop\n        /* \"contracts/week_1/votingmechanism.sol\":3717:3723  titles */\n      dup4\n        /* \"contracts/week_1/votingmechanism.sol\":3724:3725  i */\n      dup3\n        /* \"contracts/week_1/votingmechanism.sol\":3717:3726  titles[i] */\n      dup2\n      mload\n      dup2\n      lt\n      tag_75\n      jumpi\n      tag_76\n      tag_34\n      jump\t// in\n    tag_76:\n    tag_75:\n      0x20\n      mul\n      0x20\n      add\n      add\n        /* \"contracts/week_1/votingmechanism.sol\":3717:3745  titles[i] = options[i].title */\n      dup2\n      swap1\n      mstore\n      pop\n        /* \"contracts/week_1/votingmechanism.sol\":3776:3783  options */\n      0x03\n        /* \"contracts/week_1/votingmechanism.sol\":3784:3785  i */\n      dup2\n        /* \"contracts/week_1/votingmechanism.sol\":3776:3786  options[i] */\n      dup2\n      sload\n      dup2\n      lt\n      tag_77\n      jumpi\n      tag_78\n      tag_34\n      jump\t// in\n    tag_78:\n    tag_77:\n      swap1\n      0x00\n      mstore\n      keccak256(0x00, 0x20)\n      swap1\n      0x03\n      mul\n      add\n        /* \"contracts/week_1/votingmechanism.sol\":3776:3792  options[i].votes */\n      0x02\n      add\n      sload\n        /* \"contracts/week_1/votingmechanism.sol\":3760:3770  voteCounts */\n      dup3\n        /* \"contracts/week_1/votingmechanism.sol\":3771:3772  i */\n      dup3\n        /* \"contracts/week_1/votingmechanism.sol\":3760:3773  voteCounts[i] */\n      dup2\n      mload\n      dup2\n      lt\n      tag_80\n      jumpi\n      tag_81\n      tag_34\n      jump\t// in\n    tag_81:\n    tag_80:\n      0x20\n      mul\n      0x20\n      add\n      add\n        /* \"contracts/week_1/votingmechanism.sol\":3760:3792  voteCounts[i] = options[i].votes */\n      dup2\n      dup2\n      mstore\n      pop\n      pop\n        /* \"contracts/week_1/votingmechanism.sol\":3660:3663  i++ */\n      dup1\n      dup1\n      tag_82\n      swap1\n      tag_42\n      jump\t// in\n    tag_82:\n      swap2\n      pop\n      pop\n        /* \"contracts/week_1/votingmechanism.sol\":3623:3804  for (uint i = 0; i < options.length; i++) {... */\n      jump(tag_58)\n    tag_59:\n      pop\n        /* \"contracts/week_1/votingmechanism.sol\":3824:3827  ids */\n      dup3\n        /* \"contracts/week_1/votingmechanism.sol\":3829:3835  titles */\n      dup3\n        /* \"contracts/week_1/votingmechanism.sol\":3837:3847  voteCounts */\n      dup3\n        /* \"contracts/week_1/votingmechanism.sol\":3816:3848  return (ids, titles, voteCounts) */\n      swap6\n      pop\n      swap6\n      pop\n      swap6\n      pop\n      pop\n      pop\n      pop\n        /* \"contracts/week_1/votingmechanism.sol\":3296:3856  function seeResults() ... */\n      swap1\n      swap2\n      swap3\n      jump\t// out\n        /* \"contracts/week_1/votingmechanism.sol\":643:662  string public topic */\n    tag_15:\n      0x00\n      dup1\n      sload\n      tag_83\n      swap1\n      tag_70\n      jump\t// in\n    tag_83:\n      dup1\n      0x1f\n      add\n      0x20\n      dup1\n      swap2\n      div\n      mul\n      0x20\n      add\n      mload(0x40)\n      swap1\n      dup2\n      add\n      0x40\n      mstore\n      dup1\n      swap3\n      swap2\n      swap1\n      dup2\n      dup2\n      mstore\n      0x20\n      add\n      dup3\n      dup1\n      sload\n      tag_84\n      swap1\n      tag_70\n      jump\t// in\n    tag_84:\n      dup1\n      iszero\n      tag_85\n      jumpi\n      dup1\n      0x1f\n      lt\n      tag_86\n      jumpi\n      0x0100\n      dup1\n      dup4\n      sload\n      div\n      mul\n      dup4\n      mstore\n      swap2\n      0x20\n      add\n      swap2\n      jump(tag_85)\n    tag_86:\n      dup3\n      add\n      swap2\n      swap1\n      0x00\n      mstore\n      keccak256(0x00, 0x20)\n      swap1\n    tag_87:\n      dup2\n      sload\n      dup2\n      mstore\n      swap1\n      0x01\n      add\n      swap1\n      0x20\n      add\n      dup1\n      dup4\n      gt\n      tag_87\n      jumpi\n      dup3\n      swap1\n      sub\n      0x1f\n      and\n      dup3\n      add\n      swap2\n    tag_85:\n      pop\n      pop\n      pop\n      pop\n      pop\n      dup2\n      jump\t// out\n        /* \"#utility.yul\":88:205   */\n    tag_89:\n        /* \"#utility.yul\":197:198   */\n      0x00\n        /* \"#utility.yul\":194:195   */\n      dup1\n        /* \"#utility.yul\":187:199   */\n      revert\n        /* \"#utility.yul\":334:411   */\n    tag_91:\n        /* \"#utility.yul\":371:378   */\n      0x00\n        /* \"#utility.yul\":400:405   */\n      dup2\n        /* \"#utility.yul\":389:405   */\n      swap1\n      pop\n        /* \"#utility.yul\":334:411   */\n      swap2\n      swap1\n      pop\n      jump\t// out\n        /* \"#utility.yul\":417:539   */\n    tag_92:\n        /* \"#utility.yul\":490:514   */\n      tag_128\n        /* \"#utility.yul\":508:513   */\n      dup2\n        /* \"#utility.yul\":490:514   */\n      tag_91\n      jump\t// in\n    tag_128:\n        /* \"#utility.yul\":483:488   */\n      dup2\n        /* \"#utility.yul\":480:515   */\n      eq\n        /* \"#utility.yul\":470:533   */\n      tag_129\n      jumpi\n        /* \"#utility.yul\":529:530   */\n      0x00\n        /* \"#utility.yul\":526:527   */\n      dup1\n        /* \"#utility.yul\":519:531   */\n      revert\n        /* \"#utility.yul\":470:533   */\n    tag_129:\n        /* \"#utility.yul\":417:539   */\n      pop\n      jump\t// out\n        /* \"#utility.yul\":545:684   */\n    tag_93:\n        /* \"#utility.yul\":591:596   */\n      0x00\n        /* \"#utility.yul\":629:635   */\n      dup2\n        /* \"#utility.yul\":616:636   */\n      calldataload\n        /* \"#utility.yul\":607:636   */\n      swap1\n      pop\n        /* \"#utility.yul\":645:678   */\n      tag_131\n        /* \"#utility.yul\":672:677   */\n      dup2\n        /* \"#utility.yul\":645:678   */\n      tag_92\n      jump\t// in\n    tag_131:\n        /* \"#utility.yul\":545:684   */\n      swap3\n      swap2\n      pop\n      pop\n      jump\t// out\n        /* \"#utility.yul\":690:1019   */\n    tag_8:\n        /* \"#utility.yul\":749:755   */\n      0x00\n        /* \"#utility.yul\":798:800   */\n      0x20\n        /* \"#utility.yul\":786:795   */\n      dup3\n        /* \"#utility.yul\":777:784   */\n      dup5\n        /* \"#utility.yul\":773:796   */\n      sub\n        /* \"#utility.yul\":769:801   */\n      slt\n        /* \"#utility.yul\":766:885   */\n      iszero\n      tag_133\n      jumpi\n        /* \"#utility.yul\":804:883   */\n      tag_134\n      tag_89\n      jump\t// in\n    tag_134:\n        /* \"#utility.yul\":766:885   */\n    tag_133:\n        /* \"#utility.yul\":924:925   */\n      0x00\n        /* \"#utility.yul\":949:1002   */\n      tag_135\n        /* \"#utility.yul\":994:1001   */\n      dup5\n        /* \"#utility.yul\":985:991   */\n      dup3\n        /* \"#utility.yul\":974:983   */\n      dup6\n        /* \"#utility.yul\":970:992   */\n      add\n        /* \"#utility.yul\":949:1002   */\n      tag_93\n      jump\t// in\n    tag_135:\n        /* \"#utility.yul\":939:1002   */\n      swap2\n      pop\n        /* \"#utility.yul\":895:1012   */\n      pop\n        /* \"#utility.yul\":690:1019   */\n      swap3\n      swap2\n      pop\n      pop\n      jump\t// out\n        /* \"#utility.yul\":1025:1139   */\n    tag_94:\n        /* \"#utility.yul\":1092:1098   */\n      0x00\n        /* \"#utility.yul\":1126:1131   */\n      dup2\n        /* \"#utility.yul\":1120:1132   */\n      mload\n        /* \"#utility.yul\":1110:1132   */\n      swap1\n      pop\n        /* \"#utility.yul\":1025:1139   */\n      swap2\n      swap1\n      pop\n      jump\t// out\n        /* \"#utility.yul\":1145:1329   */\n    tag_95:\n        /* \"#utility.yul\":1244:1255   */\n      0x00\n        /* \"#utility.yul\":1278:1284   */\n      dup3\n        /* \"#utility.yul\":1273:1276   */\n      dup3\n        /* \"#utility.yul\":1266:1285   */\n      mstore\n        /* \"#utility.yul\":1318:1322   */\n      0x20\n        /* \"#utility.yul\":1313:1316   */\n      dup3\n        /* \"#utility.yul\":1309:1323   */\n      add\n        /* \"#utility.yul\":1294:1323   */\n      swap1\n      pop\n        /* \"#utility.yul\":1145:1329   */\n      swap3\n      swap2\n      pop\n      pop\n      jump\t// out\n        /* \"#utility.yul\":1335:1467   */\n    tag_96:\n        /* \"#utility.yul\":1402:1406   */\n      0x00\n        /* \"#utility.yul\":1425:1428   */\n      dup2\n        /* \"#utility.yul\":1417:1428   */\n      swap1\n      pop\n        /* \"#utility.yul\":1455:1459   */\n      0x20\n        /* \"#utility.yul\":1450:1453   */\n      dup3\n        /* \"#utility.yul\":1446:1460   */\n      add\n        /* \"#utility.yul\":1438:1460   */\n      swap1\n      pop\n        /* \"#utility.yul\":1335:1467   */\n      swap2\n      swap1\n      pop\n      jump\t// out\n        /* \"#utility.yul\":1473:1581   */\n    tag_97:\n        /* \"#utility.yul\":1550:1574   */\n      tag_140\n        /* \"#utility.yul\":1568:1573   */\n      dup2\n        /* \"#utility.yul\":1550:1574   */\n      tag_91\n      jump\t// in\n    tag_140:\n        /* \"#utility.yul\":1545:1548   */\n      dup3\n        /* \"#utility.yul\":1538:1575   */\n      mstore\n        /* \"#utility.yul\":1473:1581   */\n      pop\n      pop\n      jump\t// out\n        /* \"#utility.yul\":1587:1766   */\n    tag_98:\n        /* \"#utility.yul\":1656:1666   */\n      0x00\n        /* \"#utility.yul\":1677:1723   */\n      tag_142\n        /* \"#utility.yul\":1719:1722   */\n      dup4\n        /* \"#utility.yul\":1711:1717   */\n      dup4\n        /* \"#utility.yul\":1677:1723   */\n      tag_97\n      jump\t// in\n    tag_142:\n        /* \"#utility.yul\":1755:1759   */\n      0x20\n        /* \"#utility.yul\":1750:1753   */\n      dup4\n        /* \"#utility.yul\":1746:1760   */\n      add\n        /* \"#utility.yul\":1732:1760   */\n      swap1\n      pop\n        /* \"#utility.yul\":1587:1766   */\n      swap3\n      swap2\n      pop\n      pop\n      jump\t// out\n        /* \"#utility.yul\":1772:1885   */\n    tag_99:\n        /* \"#utility.yul\":1842:1846   */\n      0x00\n        /* \"#utility.yul\":1874:1878   */\n      0x20\n        /* \"#utility.yul\":1869:1872   */\n      dup3\n        /* \"#utility.yul\":1865:1879   */\n      add\n        /* \"#utility.yul\":1857:1879   */\n      swap1\n      pop\n        /* \"#utility.yul\":1772:1885   */\n      swap2\n      swap1\n      pop\n      jump\t// out\n        /* \"#utility.yul\":1921:2653   */\n    tag_100:\n        /* \"#utility.yul\":2040:2043   */\n      0x00\n        /* \"#utility.yul\":2069:2123   */\n      tag_145\n        /* \"#utility.yul\":2117:2122   */\n      dup3\n        /* \"#utility.yul\":2069:2123   */\n      tag_94\n      jump\t// in\n    tag_145:\n        /* \"#utility.yul\":2139:2225   */\n      tag_146\n        /* \"#utility.yul\":2218:2224   */\n      dup2\n        /* \"#utility.yul\":2213:2216   */\n      dup6\n        /* \"#utility.yul\":2139:2225   */\n      tag_95\n      jump\t// in\n    tag_146:\n        /* \"#utility.yul\":2132:2225   */\n      swap4\n      pop\n        /* \"#utility.yul\":2249:2305   */\n      tag_147\n        /* \"#utility.yul\":2299:2304   */\n      dup4\n        /* \"#utility.yul\":2249:2305   */\n      tag_96\n      jump\t// in\n    tag_147:\n        /* \"#utility.yul\":2328:2335   */\n      dup1\n        /* \"#utility.yul\":2359:2360   */\n      0x00\n        /* \"#utility.yul\":2344:2628   */\n    tag_148:\n        /* \"#utility.yul\":2369:2375   */\n      dup4\n        /* \"#utility.yul\":2366:2367   */\n      dup2\n        /* \"#utility.yul\":2363:2376   */\n      lt\n        /* \"#utility.yul\":2344:2628   */\n      iszero\n      tag_150\n      jumpi\n        /* \"#utility.yul\":2445:2451   */\n      dup2\n        /* \"#utility.yul\":2439:2452   */\n      mload\n        /* \"#utility.yul\":2472:2535   */\n      tag_151\n        /* \"#utility.yul\":2531:2534   */\n      dup9\n        /* \"#utility.yul\":2516:2529   */\n      dup3\n        /* \"#utility.yul\":2472:2535   */\n      tag_98\n      jump\t// in\n    tag_151:\n        /* \"#utility.yul\":2465:2535   */\n      swap8\n      pop\n        /* \"#utility.yul\":2558:2618   */\n      tag_152\n        /* \"#utility.yul\":2611:2617   */\n      dup4\n        /* \"#utility.yul\":2558:2618   */\n      tag_99\n      jump\t// in\n    tag_152:\n        /* \"#utility.yul\":2548:2618   */\n      swap3\n      pop\n        /* \"#utility.yul\":2404:2628   */\n      pop\n        /* \"#utility.yul\":2391:2392   */\n      0x01\n        /* \"#utility.yul\":2388:2389   */\n      dup2\n        /* \"#utility.yul\":2384:2393   */\n      add\n        /* \"#utility.yul\":2379:2393   */\n      swap1\n      pop\n        /* \"#utility.yul\":2344:2628   */\n      jump(tag_148)\n    tag_150:\n        /* \"#utility.yul\":2348:2362   */\n      pop\n        /* \"#utility.yul\":2644:2647   */\n      dup6\n        /* \"#utility.yul\":2637:2647   */\n      swap4\n      pop\n        /* \"#utility.yul\":2045:2653   */\n      pop\n      pop\n      pop\n        /* \"#utility.yul\":1921:2653   */\n      swap3\n      swap2\n      pop\n      pop\n      jump\t// out\n        /* \"#utility.yul\":2659:2783   */\n    tag_101:\n        /* \"#utility.yul\":2736:2742   */\n      0x00\n        /* \"#utility.yul\":2770:2775   */\n      dup2\n        /* \"#utility.yul\":2764:2776   */\n      mload\n        /* \"#utility.yul\":2754:2776   */\n      swap1\n      pop\n        /* \"#utility.yul\":2659:2783   */\n      swap2\n      swap1\n      pop\n      jump\t// out\n        /* \"#utility.yul\":2789:2983   */\n    tag_102:\n        /* \"#utility.yul\":2898:2909   */\n      0x00\n        /* \"#utility.yul\":2932:2938   */\n      dup3\n        /* \"#utility.yul\":2927:2930   */\n      dup3\n        /* \"#utility.yul\":2920:2939   */\n      mstore\n        /* \"#utility.yul\":2972:2976   */\n      0x20\n        /* \"#utility.yul\":2967:2970   */\n      dup3\n        /* \"#utility.yul\":2963:2977   */\n      add\n        /* \"#utility.yul\":2948:2977   */\n      swap1\n      pop\n        /* \"#utility.yul\":2789:2983   */\n      swap3\n      swap2\n      pop\n      pop\n      jump\t// out\n        /* \"#utility.yul\":2989:3131   */\n    tag_103:\n        /* \"#utility.yul\":3066:3070   */\n      0x00\n        /* \"#utility.yul\":3089:3092   */\n      dup2\n        /* \"#utility.yul\":3081:3092   */\n      swap1\n      pop\n        /* \"#utility.yul\":3119:3123   */\n      0x20\n        /* \"#utility.yul\":3114:3117   */\n      dup3\n        /* \"#utility.yul\":3110:3124   */\n      add\n        /* \"#utility.yul\":3102:3124   */\n      swap1\n      pop\n        /* \"#utility.yul\":2989:3131   */\n      swap2\n      swap1\n      pop\n      jump\t// out\n        /* \"#utility.yul\":3137:3236   */\n    tag_104:\n        /* \"#utility.yul\":3189:3195   */\n      0x00\n        /* \"#utility.yul\":3223:3228   */\n      dup2\n        /* \"#utility.yul\":3217:3229   */\n      mload\n        /* \"#utility.yul\":3207:3229   */\n      swap1\n      pop\n        /* \"#utility.yul\":3137:3236   */\n      swap2\n      swap1\n      pop\n      jump\t// out\n        /* \"#utility.yul\":3242:3401   */\n    tag_105:\n        /* \"#utility.yul\":3316:3327   */\n      0x00\n        /* \"#utility.yul\":3350:3356   */\n      dup3\n        /* \"#utility.yul\":3345:3348   */\n      dup3\n        /* \"#utility.yul\":3338:3357   */\n      mstore\n        /* \"#utility.yul\":3390:3394   */\n      0x20\n        /* \"#utility.yul\":3385:3388   */\n      dup3\n        /* \"#utility.yul\":3381:3395   */\n      add\n        /* \"#utility.yul\":3366:3395   */\n      swap1\n      pop\n        /* \"#utility.yul\":3242:3401   */\n      swap3\n      swap2\n      pop\n      pop\n      jump\t// out\n        /* \"#utility.yul\":3407:3653   */\n    tag_106:\n        /* \"#utility.yul\":3488:3489   */\n      0x00\n        /* \"#utility.yul\":3498:3611   */\n    tag_159:\n        /* \"#utility.yul\":3512:3518   */\n      dup4\n        /* \"#utility.yul\":3509:3510   */\n      dup2\n        /* \"#utility.yul\":3506:3519   */\n      lt\n        /* \"#utility.yul\":3498:3611   */\n      iszero\n      tag_161\n      jumpi\n        /* \"#utility.yul\":3597:3598   */\n      dup1\n        /* \"#utility.yul\":3592:3595   */\n      dup3\n        /* \"#utility.yul\":3588:3599   */\n      add\n        /* \"#utility.yul\":3582:3600   */\n      mload\n        /* \"#utility.yul\":3578:3579   */\n      dup2\n        /* \"#utility.yul\":3573:3576   */\n      dup5\n        /* \"#utility.yul\":3569:3580   */\n      add\n        /* \"#utility.yul\":3562:3601   */\n      mstore\n        /* \"#utility.yul\":3534:3536   */\n      0x20\n        /* \"#utility.yul\":3531:3532   */\n      dup2\n        /* \"#utility.yul\":3527:3537   */\n      add\n        /* \"#utility.yul\":3522:3537   */\n      swap1\n      pop\n        /* \"#utility.yul\":3498:3611   */\n      jump(tag_159)\n    tag_161:\n        /* \"#utility.yul\":3645:3646   */\n      0x00\n        /* \"#utility.yul\":3636:3642   */\n      dup5\n        /* \"#utility.yul\":3631:3634   */\n      dup5\n        /* \"#utility.yul\":3627:3643   */\n      add\n        /* \"#utility.yul\":3620:3647   */\n      mstore\n        /* \"#utility.yul\":3469:3653   */\n      pop\n        /* \"#utility.yul\":3407:3653   */\n      pop\n      pop\n      pop\n      jump\t// out\n        /* \"#utility.yul\":3659:3761   */\n    tag_107:\n        /* \"#utility.yul\":3700:3706   */\n      0x00\n        /* \"#utility.yul\":3751:3753   */\n      0x1f\n        /* \"#utility.yul\":3747:3754   */\n      not\n        /* \"#utility.yul\":3742:3744   */\n      0x1f\n        /* \"#utility.yul\":3735:3740   */\n      dup4\n        /* \"#utility.yul\":3731:3745   */\n      add\n        /* \"#utility.yul\":3727:3755   */\n      and\n        /* \"#utility.yul\":3717:3755   */\n      swap1\n      pop\n        /* \"#utility.yul\":3659:3761   */\n      swap2\n      swap1\n      pop\n      jump\t// out\n        /* \"#utility.yul\":3767:4124   */\n    tag_108:\n        /* \"#utility.yul\":3845:3848   */\n      0x00\n        /* \"#utility.yul\":3873:3912   */\n      tag_164\n        /* \"#utility.yul\":3906:3911   */\n      dup3\n        /* \"#utility.yul\":3873:3912   */\n      tag_104\n      jump\t// in\n    tag_164:\n        /* \"#utility.yul\":3928:3989   */\n      tag_165\n        /* \"#utility.yul\":3982:3988   */\n      dup2\n        /* \"#utility.yul\":3977:3980   */\n      dup6\n        /* \"#utility.yul\":3928:3989   */\n      tag_105\n      jump\t// in\n    tag_165:\n        /* \"#utility.yul\":3921:3989   */\n      swap4\n      pop\n        /* \"#utility.yul\":3998:4063   */\n      tag_166\n        /* \"#utility.yul\":4056:4062   */\n      dup2\n        /* \"#utility.yul\":4051:4054   */\n      dup6\n        /* \"#utility.yul\":4044:4048   */\n      0x20\n        /* \"#utility.yul\":4037:4042   */\n      dup7\n        /* \"#utility.yul\":4033:4049   */\n      add\n        /* \"#utility.yul\":3998:4063   */\n      tag_106\n      jump\t// in\n    tag_166:\n        /* \"#utility.yul\":4088:4117   */\n      tag_167\n        /* \"#utility.yul\":4110:4116   */\n      dup2\n        /* \"#utility.yul\":4088:4117   */\n      tag_107\n      jump\t// in\n    tag_167:\n        /* \"#utility.yul\":4083:4086   */\n      dup5\n        /* \"#utility.yul\":4079:4118   */\n      add\n        /* \"#utility.yul\":4072:4118   */\n      swap2\n      pop\n        /* \"#utility.yul\":3849:4124   */\n      pop\n        /* \"#utility.yul\":3767:4124   */\n      swap3\n      swap2\n      pop\n      pop\n      jump\t// out\n        /* \"#utility.yul\":4130:4326   */\n    tag_109:\n        /* \"#utility.yul\":4219:4229   */\n      0x00\n        /* \"#utility.yul\":4254:4320   */\n      tag_169\n        /* \"#utility.yul\":4316:4319   */\n      dup4\n        /* \"#utility.yul\":4308:4314   */\n      dup4\n        /* \"#utility.yul\":4254:4320   */\n      tag_108\n      jump\t// in\n    tag_169:\n        /* \"#utility.yul\":4240:4320   */\n      swap1\n      pop\n        /* \"#utility.yul\":4130:4326   */\n      swap3\n      swap2\n      pop\n      pop\n      jump\t// out\n        /* \"#utility.yul\":4332:4455   */\n    tag_110:\n        /* \"#utility.yul\":4412:4416   */\n      0x00\n        /* \"#utility.yul\":4444:4448   */\n      0x20\n        /* \"#utility.yul\":4439:4442   */\n      dup3\n        /* \"#utility.yul\":4435:4449   */\n      add\n        /* \"#utility.yul\":4427:4449   */\n      swap1\n      pop\n        /* \"#utility.yul\":4332:4455   */\n      swap2\n      swap1\n      pop\n      jump\t// out\n        /* \"#utility.yul\":4489:5480   */\n    tag_111:\n        /* \"#utility.yul\":4628:4631   */\n      0x00\n        /* \"#utility.yul\":4657:4721   */\n      tag_172\n        /* \"#utility.yul\":4715:4720   */\n      dup3\n        /* \"#utility.yul\":4657:4721   */\n      tag_101\n      jump\t// in\n    tag_172:\n        /* \"#utility.yul\":4737:4833   */\n      tag_173\n        /* \"#utility.yul\":4826:4832   */\n      dup2\n        /* \"#utility.yul\":4821:4824   */\n      dup6\n        /* \"#utility.yul\":4737:4833   */\n      tag_102\n      jump\t// in\n    tag_173:\n        /* \"#utility.yul\":4730:4833   */\n      swap4\n      pop\n        /* \"#utility.yul\":4859:4862   */\n      dup4\n        /* \"#utility.yul\":4904:4908   */\n      0x20\n        /* \"#utility.yul\":4896:4902   */\n      dup3\n        /* \"#utility.yul\":4892:4909   */\n      mul\n        /* \"#utility.yul\":4887:4890   */\n      dup6\n        /* \"#utility.yul\":4883:4910   */\n      add\n        /* \"#utility.yul\":4934:5000   */\n      tag_174\n        /* \"#utility.yul\":4994:4999   */\n      dup6\n        /* \"#utility.yul\":4934:5000   */\n      tag_103\n      jump\t// in\n    tag_174:\n        /* \"#utility.yul\":5023:5030   */\n      dup1\n        /* \"#utility.yul\":5054:5055   */\n      0x00\n        /* \"#utility.yul\":5039:5435   */\n    tag_175:\n        /* \"#utility.yul\":5064:5070   */\n      dup6\n        /* \"#utility.yul\":5061:5062   */\n      dup2\n        /* \"#utility.yul\":5058:5071   */\n      lt\n        /* \"#utility.yul\":5039:5435   */\n      iszero\n      tag_177\n      jumpi\n        /* \"#utility.yul\":5135:5144   */\n      dup5\n        /* \"#utility.yul\":5129:5133   */\n      dup5\n        /* \"#utility.yul\":5125:5145   */\n      sub\n        /* \"#utility.yul\":5120:5123   */\n      dup10\n        /* \"#utility.yul\":5113:5146   */\n      mstore\n        /* \"#utility.yul\":5186:5192   */\n      dup2\n        /* \"#utility.yul\":5180:5193   */\n      mload\n        /* \"#utility.yul\":5214:5298   */\n      tag_178\n        /* \"#utility.yul\":5293:5297   */\n      dup6\n        /* \"#utility.yul\":5278:5291   */\n      dup3\n        /* \"#utility.yul\":5214:5298   */\n      tag_109\n      jump\t// in\n    tag_178:\n        /* \"#utility.yul\":5206:5298   */\n      swap5\n      pop\n        /* \"#utility.yul\":5321:5391   */\n      tag_179\n        /* \"#utility.yul\":5384:5390   */\n      dup4\n        /* \"#utility.yul\":5321:5391   */\n      tag_110\n      jump\t// in\n    tag_179:\n        /* \"#utility.yul\":5311:5391   */\n      swap3\n      pop\n        /* \"#utility.yul\":5420:5424   */\n      0x20\n        /* \"#utility.yul\":5415:5418   */\n      dup11\n        /* \"#utility.yul\":5411:5425   */\n      add\n        /* \"#utility.yul\":5404:5425   */\n      swap10\n      pop\n        /* \"#utility.yul\":5099:5435   */\n      pop\n        /* \"#utility.yul\":5086:5087   */\n      0x01\n        /* \"#utility.yul\":5083:5084   */\n      dup2\n        /* \"#utility.yul\":5079:5088   */\n      add\n        /* \"#utility.yul\":5074:5088   */\n      swap1\n      pop\n        /* \"#utility.yul\":5039:5435   */\n      jump(tag_175)\n    tag_177:\n        /* \"#utility.yul\":5043:5057   */\n      pop\n        /* \"#utility.yul\":5451:5455   */\n      dup3\n        /* \"#utility.yul\":5444:5455   */\n      swap8\n      pop\n        /* \"#utility.yul\":5471:5474   */\n      dup8\n        /* \"#utility.yul\":5464:5474   */\n      swap6\n      pop\n        /* \"#utility.yul\":4633:5480   */\n      pop\n      pop\n      pop\n      pop\n      pop\n        /* \"#utility.yul\":4489:5480   */\n      swap3\n      swap2\n      pop\n      pop\n      jump\t// out\n        /* \"#utility.yul\":5486:6421   */\n    tag_13:\n        /* \"#utility.yul\":5805:5809   */\n      0x00\n        /* \"#utility.yul\":5843:5845   */\n      0x60\n        /* \"#utility.yul\":5832:5841   */\n      dup3\n        /* \"#utility.yul\":5828:5846   */\n      add\n        /* \"#utility.yul\":5820:5846   */\n      swap1\n      pop\n        /* \"#utility.yul\":5892:5901   */\n      dup2\n        /* \"#utility.yul\":5886:5890   */\n      dup2\n        /* \"#utility.yul\":5882:5902   */\n      sub\n        /* \"#utility.yul\":5878:5879   */\n      0x00\n        /* \"#utility.yul\":5867:5876   */\n      dup4\n        /* \"#utility.yul\":5863:5880   */\n      add\n        /* \"#utility.yul\":5856:5903   */\n      mstore\n        /* \"#utility.yul\":5920:6028   */\n      tag_181\n        /* \"#utility.yul\":6023:6027   */\n      dup2\n        /* \"#utility.yul\":6014:6020   */\n      dup7\n        /* \"#utility.yul\":5920:6028   */\n      tag_100\n      jump\t// in\n    tag_181:\n        /* \"#utility.yul\":5912:6028   */\n      swap1\n      pop\n        /* \"#utility.yul\":6075:6084   */\n      dup2\n        /* \"#utility.yul\":6069:6073   */\n      dup2\n        /* \"#utility.yul\":6065:6085   */\n      sub\n        /* \"#utility.yul\":6060:6062   */\n      0x20\n        /* \"#utility.yul\":6049:6058   */\n      dup4\n        /* \"#utility.yul\":6045:6063   */\n      add\n        /* \"#utility.yul\":6038:6086   */\n      mstore\n        /* \"#utility.yul\":6103:6231   */\n      tag_182\n        /* \"#utility.yul\":6226:6230   */\n      dup2\n        /* \"#utility.yul\":6217:6223   */\n      dup6\n        /* \"#utility.yul\":6103:6231   */\n      tag_111\n      jump\t// in\n    tag_182:\n        /* \"#utility.yul\":6095:6231   */\n      swap1\n      pop\n        /* \"#utility.yul\":6278:6287   */\n      dup2\n        /* \"#utility.yul\":6272:6276   */\n      dup2\n        /* \"#utility.yul\":6268:6288   */\n      sub\n        /* \"#utility.yul\":6263:6265   */\n      0x40\n        /* \"#utility.yul\":6252:6261   */\n      dup4\n        /* \"#utility.yul\":6248:6266   */\n      add\n        /* \"#utility.yul\":6241:6289   */\n      mstore\n        /* \"#utility.yul\":6306:6414   */\n      tag_183\n        /* \"#utility.yul\":6409:6413   */\n      dup2\n        /* \"#utility.yul\":6400:6406   */\n      dup5\n        /* \"#utility.yul\":6306:6414   */\n      tag_100\n      jump\t// in\n    tag_183:\n        /* \"#utility.yul\":6298:6414   */\n      swap1\n      pop\n        /* \"#utility.yul\":5486:6421   */\n      swap5\n      swap4\n      pop\n      pop\n      pop\n      pop\n      jump\t// out\n        /* \"#utility.yul\":6427:6596   */\n    tag_112:\n        /* \"#utility.yul\":6511:6522   */\n      0x00\n        /* \"#utility.yul\":6545:6551   */\n      dup3\n        /* \"#utility.yul\":6540:6543   */\n      dup3\n        /* \"#utility.yul\":6533:6552   */\n      mstore\n        /* \"#utility.yul\":6585:6589   */\n      0x20\n        /* \"#utility.yul\":6580:6583   */\n      dup3\n        /* \"#utility.yul\":6576:6590   */\n      add\n        /* \"#utility.yul\":6561:6590   */\n      swap1\n      pop\n        /* \"#utility.yul\":6427:6596   */\n      swap3\n      swap2\n      pop\n      pop\n      jump\t// out\n        /* \"#utility.yul\":6602:6979   */\n    tag_113:\n        /* \"#utility.yul\":6690:6693   */\n      0x00\n        /* \"#utility.yul\":6718:6757   */\n      tag_186\n        /* \"#utility.yul\":6751:6756   */\n      dup3\n        /* \"#utility.yul\":6718:6757   */\n      tag_104\n      jump\t// in\n    tag_186:\n        /* \"#utility.yul\":6773:6844   */\n      tag_187\n        /* \"#utility.yul\":6837:6843   */\n      dup2\n        /* \"#utility.yul\":6832:6835   */\n      dup6\n        /* \"#utility.yul\":6773:6844   */\n      tag_112\n      jump\t// in\n    tag_187:\n        /* \"#utility.yul\":6766:6844   */\n      swap4\n      pop\n        /* \"#utility.yul\":6853:6918   */\n      tag_188\n        /* \"#utility.yul\":6911:6917   */\n      dup2\n        /* \"#utility.yul\":6906:6909   */\n      dup6\n        /* \"#utility.yul\":6899:6903   */\n      0x20\n        /* \"#utility.yul\":6892:6897   */\n      dup7\n        /* \"#utility.yul\":6888:6904   */\n      add\n        /* \"#utility.yul\":6853:6918   */\n      tag_106\n      jump\t// in\n    tag_188:\n        /* \"#utility.yul\":6943:6972   */\n      tag_189\n        /* \"#utility.yul\":6965:6971   */\n      dup2\n        /* \"#utility.yul\":6943:6972   */\n      tag_107\n      jump\t// in\n    tag_189:\n        /* \"#utility.yul\":6938:6941   */\n      dup5\n        /* \"#utility.yul\":6934:6973   */\n      add\n        /* \"#utility.yul\":6927:6973   */\n      swap2\n      pop\n        /* \"#utility.yul\":6694:6979   */\n      pop\n        /* \"#utility.yul\":6602:6979   */\n      swap3\n      swap2\n      pop\n      pop\n      jump\t// out\n        /* \"#utility.yul\":6985:7298   */\n    tag_17:\n        /* \"#utility.yul\":7098:7102   */\n      0x00\n        /* \"#utility.yul\":7136:7138   */\n      0x20\n        /* \"#utility.yul\":7125:7134   */\n      dup3\n        /* \"#utility.yul\":7121:7139   */\n      add\n        /* \"#utility.yul\":7113:7139   */\n      swap1\n      pop\n        /* \"#utility.yul\":7185:7194   */\n      dup2\n        /* \"#utility.yul\":7179:7183   */\n      dup2\n        /* \"#utility.yul\":7175:7195   */\n      sub\n        /* \"#utility.yul\":7171:7172   */\n      0x00\n        /* \"#utility.yul\":7160:7169   */\n      dup4\n        /* \"#utility.yul\":7156:7173   */\n      add\n        /* \"#utility.yul\":7149:7196   */\n      mstore\n        /* \"#utility.yul\":7213:7291   */\n      tag_191\n        /* \"#utility.yul\":7286:7290   */\n      dup2\n        /* \"#utility.yul\":7277:7283   */\n      dup5\n        /* \"#utility.yul\":7213:7291   */\n      tag_113\n      jump\t// in\n    tag_191:\n        /* \"#utility.yul\":7205:7291   */\n      swap1\n      pop\n        /* \"#utility.yul\":6985:7298   */\n      swap3\n      swap2\n      pop\n      pop\n      jump\t// out\n        /* \"#utility.yul\":7304:7484   */\n    tag_114:\n        /* \"#utility.yul\":7352:7429   */\n      0x4e487b7100000000000000000000000000000000000000000000000000000000\n        /* \"#utility.yul\":7349:7350   */\n      0x00\n        /* \"#utility.yul\":7342:7430   */\n      mstore\n        /* \"#utility.yul\":7449:7453   */\n      0x11\n        /* \"#utility.yul\":7446:7447   */\n      0x04\n        /* \"#utility.yul\":7439:7454   */\n      mstore\n        /* \"#utility.yul\":7473:7477   */\n      0x24\n        /* \"#utility.yul\":7470:7471   */\n      0x00\n        /* \"#utility.yul\":7463:7478   */\n      revert\n        /* \"#utility.yul\":7490:7681   */\n    tag_20:\n        /* \"#utility.yul\":7530:7533   */\n      0x00\n        /* \"#utility.yul\":7549:7569   */\n      tag_194\n        /* \"#utility.yul\":7567:7568   */\n      dup3\n        /* \"#utility.yul\":7549:7569   */\n      tag_91\n      jump\t// in\n    tag_194:\n        /* \"#utility.yul\":7544:7569   */\n      swap2\n      pop\n        /* \"#utility.yul\":7583:7603   */\n      tag_195\n        /* \"#utility.yul\":7601:7602   */\n      dup4\n        /* \"#utility.yul\":7583:7603   */\n      tag_91\n      jump\t// in\n    tag_195:\n        /* \"#utility.yul\":7578:7603   */\n      swap3\n      pop\n        /* \"#utility.yul\":7626:7627   */\n      dup3\n        /* \"#utility.yul\":7623:7624   */\n      dup3\n        /* \"#utility.yul\":7619:7628   */\n      add\n        /* \"#utility.yul\":7612:7628   */\n      swap1\n      pop\n        /* \"#utility.yul\":7647:7650   */\n      dup1\n        /* \"#utility.yul\":7644:7645   */\n      dup3\n        /* \"#utility.yul\":7641:7651   */\n      gt\n        /* \"#utility.yul\":7638:7674   */\n      iszero\n      tag_196\n      jumpi\n        /* \"#utility.yul\":7654:7672   */\n      tag_197\n      tag_114\n      jump\t// in\n    tag_197:\n        /* \"#utility.yul\":7638:7674   */\n    tag_196:\n        /* \"#utility.yul\":7490:7681   */\n      swap3\n      swap2\n      pop\n      pop\n      jump\t// out\n        /* \"#utility.yul\":7687:7862   */\n    tag_115:\n        /* \"#utility.yul\":7827:7854   */\n      0x54696d6520666f7220706f6c6c2068617320656c617073656400000000000000\n        /* \"#utility.yul\":7823:7824   */\n      0x00\n        /* \"#utility.yul\":7815:7821   */\n      dup3\n        /* \"#utility.yul\":7811:7825   */\n      add\n        /* \"#utility.yul\":7804:7855   */\n      mstore\n        /* \"#utility.yul\":7687:7862   */\n      pop\n      jump\t// out\n        /* \"#utility.yul\":7868:8234   */\n    tag_116:\n        /* \"#utility.yul\":8010:8013   */\n      0x00\n        /* \"#utility.yul\":8031:8098   */\n      tag_200\n        /* \"#utility.yul\":8095:8097   */\n      0x19\n        /* \"#utility.yul\":8090:8093   */\n      dup4\n        /* \"#utility.yul\":8031:8098   */\n      tag_112\n      jump\t// in\n    tag_200:\n        /* \"#utility.yul\":8024:8098   */\n      swap2\n      pop\n        /* \"#utility.yul\":8107:8200   */\n      tag_201\n        /* \"#utility.yul\":8196:8199   */\n      dup3\n        /* \"#utility.yul\":8107:8200   */\n      tag_115\n      jump\t// in\n    tag_201:\n        /* \"#utility.yul\":8225:8227   */\n      0x20\n        /* \"#utility.yul\":8220:8223   */\n      dup3\n        /* \"#utility.yul\":8216:8228   */\n      add\n        /* \"#utility.yul\":8209:8228   */\n      swap1\n      pop\n        /* \"#utility.yul\":7868:8234   */\n      swap2\n      swap1\n      pop\n      jump\t// out\n        /* \"#utility.yul\":8240:8659   */\n    tag_23:\n        /* \"#utility.yul\":8406:8410   */\n      0x00\n        /* \"#utility.yul\":8444:8446   */\n      0x20\n        /* \"#utility.yul\":8433:8442   */\n      dup3\n        /* \"#utility.yul\":8429:8447   */\n      add\n        /* \"#utility.yul\":8421:8447   */\n      swap1\n      pop\n        /* \"#utility.yul\":8493:8502   */\n      dup2\n        /* \"#utility.yul\":8487:8491   */\n      dup2\n        /* \"#utility.yul\":8483:8503   */\n      sub\n        /* \"#utility.yul\":8479:8480   */\n      0x00\n        /* \"#utility.yul\":8468:8477   */\n      dup4\n        /* \"#utility.yul\":8464:8481   */\n      add\n        /* \"#utility.yul\":8457:8504   */\n      mstore\n        /* \"#utility.yul\":8521:8652   */\n      tag_203\n        /* \"#utility.yul\":8647:8651   */\n      dup2\n        /* \"#utility.yul\":8521:8652   */\n      tag_116\n      jump\t// in\n    tag_203:\n        /* \"#utility.yul\":8513:8652   */\n      swap1\n      pop\n        /* \"#utility.yul\":8240:8659   */\n      swap2\n      swap1\n      pop\n      jump\t// out\n        /* \"#utility.yul\":8665:8837   */\n    tag_117:\n        /* \"#utility.yul\":8805:8829   */\n      0x557365722063616e6e6f7420766f746520747769636500000000000000000000\n        /* \"#utility.yul\":8801:8802   */\n      0x00\n        /* \"#utility.yul\":8793:8799   */\n      dup3\n        /* \"#utility.yul\":8789:8803   */\n      add\n        /* \"#utility.yul\":8782:8830   */\n      mstore\n        /* \"#utility.yul\":8665:8837   */\n      pop\n      jump\t// out\n        /* \"#utility.yul\":8843:9209   */\n    tag_118:\n        /* \"#utility.yul\":8985:8988   */\n      0x00\n        /* \"#utility.yul\":9006:9073   */\n      tag_206\n        /* \"#utility.yul\":9070:9072   */\n      0x16\n        /* \"#utility.yul\":9065:9068   */\n      dup4\n        /* \"#utility.yul\":9006:9073   */\n      tag_112\n      jump\t// in\n    tag_206:\n        /* \"#utility.yul\":8999:9073   */\n      swap2\n      pop\n        /* \"#utility.yul\":9082:9175   */\n      tag_207\n        /* \"#utility.yul\":9171:9174   */\n      dup3\n        /* \"#utility.yul\":9082:9175   */\n      tag_117\n      jump\t// in\n    tag_207:\n        /* \"#utility.yul\":9200:9202   */\n      0x20\n        /* \"#utility.yul\":9195:9198   */\n      dup3\n        /* \"#utility.yul\":9191:9203   */\n      add\n        /* \"#utility.yul\":9184:9203   */\n      swap1\n      pop\n        /* \"#utility.yul\":8843:9209   */\n      swap2\n      swap1\n      pop\n      jump\t// out\n        /* \"#utility.yul\":9215:9634   */\n    tag_27:\n        /* \"#utility.yul\":9381:9385   */\n      0x00\n        /* \"#utility.yul\":9419:9421   */\n      0x20\n        /* \"#utility.yul\":9408:9417   */\n      dup3\n        /* \"#utility.yul\":9404:9422   */\n      add\n        /* \"#utility.yul\":9396:9422   */\n      swap1\n      pop\n        /* \"#utility.yul\":9468:9477   */\n      dup2\n        /* \"#utility.yul\":9462:9466   */\n      dup2\n        /* \"#utility.yul\":9458:9478   */\n      sub\n        /* \"#utility.yul\":9454:9455   */\n      0x00\n        /* \"#utility.yul\":9443:9452   */\n      dup4\n        /* \"#utility.yul\":9439:9456   */\n      add\n        /* \"#utility.yul\":9432:9479   */\n      mstore\n        /* \"#utility.yul\":9496:9627   */\n      tag_209\n        /* \"#utility.yul\":9622:9626   */\n      dup2\n        /* \"#utility.yul\":9496:9627   */\n      tag_118\n      jump\t// in\n    tag_209:\n        /* \"#utility.yul\":9488:9627   */\n      swap1\n      pop\n        /* \"#utility.yul\":9215:9634   */\n      swap2\n      swap1\n      pop\n      jump\t// out\n        /* \"#utility.yul\":9640:9820   */\n    tag_34:\n        /* \"#utility.yul\":9688:9765   */\n      0x4e487b7100000000000000000000000000000000000000000000000000000000\n        /* \"#utility.yul\":9685:9686   */\n      0x00\n        /* \"#utility.yul\":9678:9766   */\n      mstore\n        /* \"#utility.yul\":9785:9789   */\n      0x32\n        /* \"#utility.yul\":9782:9783   */\n      0x04\n        /* \"#utility.yul\":9775:9790   */\n      mstore\n        /* \"#utility.yul\":9809:9813   */\n      0x24\n        /* \"#utility.yul\":9806:9807   */\n      0x00\n        /* \"#utility.yul\":9799:9814   */\n      revert\n        /* \"#utility.yul\":9826:10059   */\n    tag_42:\n        /* \"#utility.yul\":9865:9868   */\n      0x00\n        /* \"#utility.yul\":9888:9912   */\n      tag_212\n        /* \"#utility.yul\":9906:9911   */\n      dup3\n        /* \"#utility.yul\":9888:9912   */\n      tag_91\n      jump\t// in\n    tag_212:\n        /* \"#utility.yul\":9879:9912   */\n      swap2\n      pop\n        /* \"#utility.yul\":9934:10000   */\n      0xffffffffffffffffffffffffffffffffffffffffffffffffffffffffffffffff\n        /* \"#utility.yul\":9927:9932   */\n      dup3\n        /* \"#utility.yul\":9924:10001   */\n      sub\n        /* \"#utility.yul\":9921:10024   */\n      tag_213\n      jumpi\n        /* \"#utility.yul\":10004:10022   */\n      tag_214\n      tag_114\n      jump\t// in\n    tag_214:\n        /* \"#utility.yul\":9921:10024   */\n    tag_213:\n        /* \"#utility.yul\":10051:10052   */\n      0x01\n        /* \"#utility.yul\":10044:10049   */\n      dup3\n        /* \"#utility.yul\":10040:10053   */\n      add\n        /* \"#utility.yul\":10033:10053   */\n      swap1\n      pop\n        /* \"#utility.yul\":9826:10059   */\n      swap2\n      swap1\n      pop\n      jump\t// out\n        /* \"#utility.yul\":10065:10289   */\n    tag_119:\n        /* \"#utility.yul\":10205:10239   */\n      0x4f7074696f6e20776974682073656c656374656420494420776173206e6f7420\n        /* \"#utility.yul\":10201:10202   */\n      0x00\n        /* \"#utility.yul\":10193:10199   */\n      dup3\n        /* \"#utility.yul\":10189:10203   */\n      add\n        /* \"#utility.yul\":10182:10240   */\n      mstore\n        /* \"#utility.yul\":10274:10281   */\n      0x666f756e64000000000000000000000000000000000000000000000000000000\n        /* \"#utility.yul\":10269:10271   */\n      0x20\n        /* \"#utility.yul\":10261:10267   */\n      dup3\n        /* \"#utility.yul\":10257:10272   */\n      add\n        /* \"#utility.yul\":10250:10282   */\n      mstore\n        /* \"#utility.yul\":10065:10289   */\n      pop\n      jump\t// out\n        /* \"#utility.yul\":10295:10661   */\n    tag_120:\n        /* \"#utility.yul\":10437:10440   */\n      0x00\n        /* \"#utility.yul\":10458:10525   */\n      tag_217\n        /* \"#utility.yul\":10522:10524   */\n      0x25\n        /* \"#utility.yul\":10517:10520   */\n      dup4\n        /* \"#utility.yul\":10458:10525   */\n      tag_112\n      jump\t// in\n    tag_217:\n        /* \"#utility.yul\":10451:10525   */\n      swap2\n      pop\n        /* \"#utility.yul\":10534:10627   */\n      tag_218\n        /* \"#utility.yul\":10623:10626   */\n      dup3\n        /* \"#utility.yul\":10534:10627   */\n      tag_119\n      jump\t// in\n    tag_218:\n        /* \"#utility.yul\":10652:10654   */\n      0x40\n        /* \"#utility.yul\":10647:10650   */\n      dup3\n        /* \"#utility.yul\":10643:10655   */\n      add\n        /* \"#utility.yul\":10636:10655   */\n      swap1\n      pop\n        /* \"#utility.yul\":10295:10661   */\n      swap2\n      swap1\n      pop\n      jump\t// out\n        /* \"#utility.yul\":10667:11086   */\n    tag_45:\n        /* \"#utility.yul\":10833:10837   */\n      0x00\n        /* \"#utility.yul\":10871:10873   */\n      0x20\n        /* \"#utility.yul\":10860:10869   */\n      dup3\n        /* \"#utility.yul\":10856:10874   */\n      add\n        /* \"#utility.yul\":10848:10874   */\n      swap1\n      pop\n        /* \"#utility.yul\":10920:10929   */\n      dup2\n        /* \"#utility.yul\":10914:10918   */\n      dup2\n        /* \"#utility.yul\":10910:10930   */\n      sub\n        /* \"#utility.yul\":10906:10907   */\n      0x00\n        /* \"#utility.yul\":10895:10904   */\n      dup4\n        /* \"#utility.yul\":10891:10908   */\n      add\n        /* \"#utility.yul\":10884:10931   */\n      mstore\n        /* \"#utility.yul\":10948:11079   */\n      tag_220\n        /* \"#utility.yul\":11074:11078   */\n      dup2\n        /* \"#utility.yul\":10948:11079   */\n      tag_120\n      jump\t// in\n    tag_220:\n        /* \"#utility.yul\":10940:11079   */\n      swap1\n      pop\n        /* \"#utility.yul\":10667:11086   */\n      swap2\n      swap1\n      pop\n      jump\t// out\n        /* \"#utility.yul\":11092:11272   */\n    tag_49:\n        /* \"#utility.yul\":11140:11217   */\n      0x4e487b7100000000000000000000000000000000000000000000000000000000\n        /* \"#utility.yul\":11137:11138   */\n      0x00\n        /* \"#utility.yul\":11130:11218   */\n      mstore\n        /* \"#utility.yul\":11237:11241   */\n      0x41\n        /* \"#utility.yul\":11234:11235   */\n      0x04\n        /* \"#utility.yul\":11227:11242   */\n      mstore\n        /* \"#utility.yul\":11261:11265   */\n      0x24\n        /* \"#utility.yul\":11258:11259   */\n      0x00\n        /* \"#utility.yul\":11251:11266   */\n      revert\n        /* \"#utility.yul\":11278:11458   */\n    tag_121:\n        /* \"#utility.yul\":11326:11403   */\n      0x4e487b7100000000000000000000000000000000000000000000000000000000\n        /* \"#utility.yul\":11323:11324   */\n      0x00\n        /* \"#utility.yul\":11316:11404   */\n      mstore\n        /* \"#utility.yul\":11423:11427   */\n      0x22\n        /* \"#utility.yul\":11420:11421   */\n      0x04\n        /* \"#utility.yul\":11413:11428   */\n      mstore\n        /* \"#utility.yul\":11447:11451   */\n      0x24\n        /* \"#utility.yul\":11444:11445   */\n      0x00\n        /* \"#utility.yul\":11437:11452   */\n      revert\n        /* \"#utility.yul\":11464:11784   */\n    tag_70:\n        /* \"#utility.yul\":11508:11514   */\n      0x00\n        /* \"#utility.yul\":11545:11546   */\n      0x02\n        /* \"#utility.yul\":11539:11543   */\n      dup3\n        /* \"#utility.yul\":11535:11547   */\n      div\n        /* \"#utility.yul\":11525:11547   */\n      swap1\n      pop\n        /* \"#utility.yul\":11592:11593   */\n      0x01\n        /* \"#utility.yul\":11586:11590   */\n      dup3\n        /* \"#utility.yul\":11582:11594   */\n      and\n        /* \"#utility.yul\":11613:11631   */\n      dup1\n        /* \"#utility.yul\":11603:11684   */\n      tag_224\n      jumpi\n        /* \"#utility.yul\":11669:11673   */\n      0x7f\n        /* \"#utility.yul\":11661:11667   */\n      dup3\n        /* \"#utility.yul\":11657:11674   */\n      and\n        /* \"#utility.yul\":11647:11674   */\n      swap2\n      pop\n        /* \"#utility.yul\":11603:11684   */\n    tag_224:\n        /* \"#utility.yul\":11731:11733   */\n      0x20\n        /* \"#utility.yul\":11723:11729   */\n      dup3\n        /* \"#utility.yul\":11720:11734   */\n      lt\n        /* \"#utility.yul\":11700:11718   */\n      dup2\n        /* \"#utility.yul\":11697:11735   */\n      sub\n        /* \"#utility.yul\":11694:11778   */\n      tag_225\n      jumpi\n        /* \"#utility.yul\":11750:11768   */\n      tag_226\n      tag_121\n      jump\t// in\n    tag_226:\n        /* \"#utility.yul\":11694:11778   */\n    tag_225:\n        /* \"#utility.yul\":11515:11784   */\n      pop\n        /* \"#utility.yul\":11464:11784   */\n      swap2\n      swap1\n      pop\n      jump\t// out\n\n    auxdata: 0xa2646970667358221220699ac6274c00e2e69ad657db5ffa664d25e0cfa6f76796267edace8e5233dbd764736f6c63430008120033\n}\n",
				"bytecode": {
					"linkReferences": {},
					"object": "60c06040523480156200001157600080fd5b506040516200179c3803806200179c833981810160405281019062000037919062000572565b836000908162000048919062000863565b503373ffffffffffffffffffffffffffffffffffffffff1660808173ffffffffffffffffffffffffffffffffffffffff16815250504260a08181525050600060028111156200009c576200009b6200094a565b5b816002811115620000b257620000b16200094a565b5b03620000d457610e1082620000c89190620009a8565b600181905550620001b2565b60016002811115620000eb57620000ea6200094a565b5b8160028111156200010157620001006200094a565b5b0362000124576201518082620001189190620009a8565b600181905550620001b1565b6002808111156200013a57620001396200094a565b5b81600281111562000150576200014f6200094a565b5b03620001735762093a8082620001679190620009a8565b600181905550620001b0565b6040517f08c379a0000000000000000000000000000000000000000000000000000000008152600401620001a79062000a7a565b60405180910390fd5b5b5b60005b8351811015620002755760036040518060600160405280600184620001db919062000a9c565b8152602001868481518110620001f657620001f562000ad7565b5b602002602001015181526020016000815250908060018154018082558091505060019003906000526020600020906003020160009091909190915060008201518160000155602082015181600101908162000252919062000863565b5060408201518160020155505080806200026c9062000b06565b915050620001b5565b505050505062000b53565b6000604051905090565b600080fd5b600080fd5b600080fd5b600080fd5b6000601f19601f8301169050919050565b7f4e487b7100000000000000000000000000000000000000000000000000000000600052604160045260246000fd5b620002e9826200029e565b810181811067ffffffffffffffff821117156200030b576200030a620002af565b5b80604052505050565b60006200032062000280565b90506200032e8282620002de565b919050565b600067ffffffffffffffff821115620003515762000350620002af565b5b6200035c826200029e565b9050602081019050919050565b60005b83811015620003895780820151818401526020810190506200036c565b60008484015250505050565b6000620003ac620003a68462000333565b62000314565b905082815260208101848484011115620003cb57620003ca62000299565b5b620003d884828562000369565b509392505050565b600082601f830112620003f857620003f762000294565b5b81516200040a84826020860162000395565b91505092915050565b600067ffffffffffffffff821115620004315762000430620002af565b5b602082029050602081019050919050565b600080fd5b60006200045e620004588462000413565b62000314565b9050808382526020820190506020840283018581111562000484576200048362000442565b5b835b81811015620004d257805167ffffffffffffffff811115620004ad57620004ac62000294565b5b808601620004bc8982620003e0565b8552602085019450505060208101905062000486565b5050509392505050565b600082601f830112620004f457620004f362000294565b5b81516200050684826020860162000447565b91505092915050565b6000819050919050565b62000524816200050f565b81146200053057600080fd5b50565b600081519050620005448162000519565b92915050565b600381106200055857600080fd5b50565b6000815190506200056c816200054a565b92915050565b600080600080608085870312156200058f576200058e6200028a565b5b600085015167ffffffffffffffff811115620005b057620005af6200028f565b5b620005be87828801620003e0565b945050602085015167ffffffffffffffff811115620005e257620005e16200028f565b5b620005f087828801620004dc565b9350506040620006038782880162000533565b925050606062000616878288016200055b565b91505092959194509250565b600081519050919050565b7f4e487b7100000000000000000000000000000000000000000000000000000000600052602260045260246000fd5b600060028204905060018216806200067557607f821691505b6020821081036200068b576200068a6200062d565b5b50919050565b60008190508160005260206000209050919050565b60006020601f8301049050919050565b600082821b905092915050565b600060088302620006f57fffffffffffffffffffffffffffffffffffffffffffffffffffffffffffffffff82620006b6565b620007018683620006b6565b95508019841693508086168417925050509392505050565b6000819050919050565b6000620007446200073e62000738846200050f565b62000719565b6200050f565b9050919050565b6000819050919050565b620007608362000723565b620007786200076f826200074b565b848454620006c3565b825550505050565b600090565b6200078f62000780565b6200079c81848462000755565b505050565b5b81811015620007c457620007b860008262000785565b600181019050620007a2565b5050565b601f8211156200081357620007dd8162000691565b620007e884620006a6565b81016020851015620007f8578190505b620008106200080785620006a6565b830182620007a1565b50505b505050565b600082821c905092915050565b6000620008386000198460080262000818565b1980831691505092915050565b600062000853838362000825565b9150826002028217905092915050565b6200086e8262000622565b67ffffffffffffffff8111156200088a5762000889620002af565b5b6200089682546200065c565b620008a3828285620007c8565b600060209050601f831160018114620008db5760008415620008c6578287015190505b620008d2858262000845565b86555062000942565b601f198416620008eb8662000691565b60005b828110156200091557848901518255600182019150602085019450602081019050620008ee565b8683101562000935578489015162000931601f89168262000825565b8355505b6001600288020188555050505b505050505050565b7f4e487b7100000000000000000000000000000000000000000000000000000000600052602160045260246000fd5b7f4e487b7100000000000000000000000000000000000000000000000000000000600052601160045260246000fd5b6000620009b5826200050f565b9150620009c2836200050f565b9250828202620009d2816200050f565b91508282048414831517620009ec57620009eb62000979565b5b5092915050565b600082825260208201905092915050565b7f556e737570706f727465642074696d65206475726174696f6e2073656c65637460008201527f6564000000000000000000000000000000000000000000000000000000000000602082015250565b600062000a62602283620009f3565b915062000a6f8262000a04565b604082019050919050565b6000602082019050818103600083015262000a958162000a53565b9050919050565b600062000aa9826200050f565b915062000ab6836200050f565b925082820190508082111562000ad15762000ad062000979565b5b92915050565b7f4e487b7100000000000000000000000000000000000000000000000000000000600052603260045260246000fd5b600062000b13826200050f565b91507fffffffffffffffffffffffffffffffffffffffffffffffffffffffffffffffff820362000b485762000b4762000979565b5b600182019050919050565b60805160a051610c2762000b75600039600060a5015260005050610c276000f3fe608060405234801561001057600080fd5b50600436106100415760003560e01c80633eb76b9c14610046578063bc9cd2ce14610062578063bf63a57714610082575b600080fd5b610060600480360381019061005b9190610629565b6100a0565b005b61006a6102d5565b60405161007993929190610866565b60405180910390f35b61008a610560565b60405161009791906108fc565b60405180910390f35b6001547f00000000000000000000000000000000000000000000000000000000000000006100ce919061094d565b421061010f576040517f08c379a0000000000000000000000000000000000000000000000000000000008152600401610106906109cd565b60405180910390fd5b60011515600260003373ffffffffffffffffffffffffffffffffffffffff1673ffffffffffffffffffffffffffffffffffffffff16815260200190815260200160002060009054906101000a900460ff161515036101a2576040517f08c379a000000000000000000000000000000000000000000000000000000000815260040161019990610a39565b60405180910390fd5b6000805b6003805490508110156102905782600382815481106101c8576101c7610a59565b5b9060005260206000209060030201600001540361027d576001600382815481106101f5576101f4610a59565b5b90600052602060002090600302016002016000828254610215919061094d565b925050819055506001600260003373ffffffffffffffffffffffffffffffffffffffff1673ffffffffffffffffffffffffffffffffffffffff16815260200190815260200160002060006101000a81548160ff02191690831515021790555060019150610290565b808061028890610a88565b9150506101a6565b50806102d1576040517f08c379a00000000000000000000000000000000000000000000000000000000081526004016102c890610b42565b60405180910390fd5b5050565b6060806060600060038054905067ffffffffffffffff8111156102fb576102fa610b62565b5b6040519080825280602002602001820160405280156103295781602001602082028036833780820191505090505b509050600060038054905067ffffffffffffffff81111561034d5761034c610b62565b5b60405190808252806020026020018201604052801561038057816020015b606081526020019060019003908161036b5790505b509050600060038054905067ffffffffffffffff8111156103a4576103a3610b62565b5b6040519080825280602002602001820160405280156103d25781602001602082028036833780820191505090505b50905060005b60038054905081101561054e57600381815481106103f9576103f8610a59565b5b90600052602060002090600302016000015484828151811061041e5761041d610a59565b5b6020026020010181815250506003818154811061043e5761043d610a59565b5b9060005260206000209060030201600101805461045a90610bc0565b80601f016020809104026020016040519081016040528092919081815260200182805461048690610bc0565b80156104d35780601f106104a8576101008083540402835291602001916104d3565b820191906000526020600020905b8154815290600101906020018083116104b657829003601f168201915b50505050508382815181106104eb576104ea610a59565b5b60200260200101819052506003818154811061050a57610509610a59565b5b90600052602060002090600302016002015482828151811061052f5761052e610a59565b5b602002602001018181525050808061054690610a88565b9150506103d8565b50828282955095509550505050909192565b6000805461056d90610bc0565b80601f016020809104026020016040519081016040528092919081815260200182805461059990610bc0565b80156105e65780601f106105bb576101008083540402835291602001916105e6565b820191906000526020600020905b8154815290600101906020018083116105c957829003601f168201915b505050505081565b600080fd5b6000819050919050565b610606816105f3565b811461061157600080fd5b50565b600081359050610623816105fd565b92915050565b60006020828403121561063f5761063e6105ee565b5b600061064d84828501610614565b91505092915050565b600081519050919050565b600082825260208201905092915050565b6000819050602082019050919050565b61068b816105f3565b82525050565b600061069d8383610682565b60208301905092915050565b6000602082019050919050565b60006106c182610656565b6106cb8185610661565b93506106d683610672565b8060005b838110156107075781516106ee8882610691565b97506106f9836106a9565b9250506001810190506106da565b5085935050505092915050565b600081519050919050565b600082825260208201905092915050565b6000819050602082019050919050565b600081519050919050565b600082825260208201905092915050565b60005b8381101561077a57808201518184015260208101905061075f565b60008484015250505050565b6000601f19601f8301169050919050565b60006107a282610740565b6107ac818561074b565b93506107bc81856020860161075c565b6107c581610786565b840191505092915050565b60006107dc8383610797565b905092915050565b6000602082019050919050565b60006107fc82610714565b610806818561071f565b93508360208202850161081885610730565b8060005b85811015610854578484038952815161083585826107d0565b9450610840836107e4565b925060208a0199505060018101905061081c565b50829750879550505050505092915050565b6000606082019050818103600083015261088081866106b6565b9050818103602083015261089481856107f1565b905081810360408301526108a881846106b6565b9050949350505050565b600082825260208201905092915050565b60006108ce82610740565b6108d881856108b2565b93506108e881856020860161075c565b6108f181610786565b840191505092915050565b6000602082019050818103600083015261091681846108c3565b905092915050565b7f4e487b7100000000000000000000000000000000000000000000000000000000600052601160045260246000fd5b6000610958826105f3565b9150610963836105f3565b925082820190508082111561097b5761097a61091e565b5b92915050565b7f54696d6520666f7220706f6c6c2068617320656c617073656400000000000000600082015250565b60006109b76019836108b2565b91506109c282610981565b602082019050919050565b600060208201905081810360008301526109e6816109aa565b9050919050565b7f557365722063616e6e6f7420766f746520747769636500000000000000000000600082015250565b6000610a236016836108b2565b9150610a2e826109ed565b602082019050919050565b60006020820190508181036000830152610a5281610a16565b9050919050565b7f4e487b7100000000000000000000000000000000000000000000000000000000600052603260045260246000fd5b6000610a93826105f3565b91507fffffffffffffffffffffffffffffffffffffffffffffffffffffffffffffffff8203610ac557610ac461091e565b5b600182019050919050565b7f4f7074696f6e20776974682073656c656374656420494420776173206e6f742060008201527f666f756e64000000000000000000000000000000000000000000000000000000602082015250565b6000610b2c6025836108b2565b9150610b3782610ad0565b604082019050919050565b60006020820190508181036000830152610b5b81610b1f565b9050919050565b7f4e487b7100000000000000000000000000000000000000000000000000000000600052604160045260246000fd5b7f4e487b7100000000000000000000000000000000000000000000000000000000600052602260045260246000fd5b60006002820490506001821680610bd857607f821691505b602082108103610beb57610bea610b91565b5b5091905056fea2646970667358221220699ac6274c00e2e69ad657db5ffa664d25e0cfa6f76796267edace8e5233dbd764736f6c63430008120033",
					"opcodes": "PUSH1 0xC0 PUSH1 0x40 MSTORE CALLVALUE DUP1 ISZERO PUSH3 0x11 JUMPI PUSH1 0x0 DUP1 REVERT JUMPDEST POP PUSH1 0x40 MLOAD PUSH3 0x179C CODESIZE SUB DUP1 PUSH3 0x179C DUP4 CODECOPY DUP2 DUP2 ADD PUSH1 0x40 MSTORE DUP2 ADD SWAP1 PUSH3 0x37 SWAP2 SWAP1 PUSH3 0x572 JUMP JUMPDEST DUP4 PUSH1 0x0 SWAP1 DUP2 PUSH3 0x48 SWAP2 SWAP1 PUSH3 0x863 JUMP JUMPDEST POP CALLER PUSH20 0xFFFFFFFFFFFFFFFFFFFFFFFFFFFFFFFFFFFFFFFF AND PUSH1 0x80 DUP2 PUSH20 0xFFFFFFFFFFFFFFFFFFFFFFFFFFFFFFFFFFFFFFFF AND DUP2 MSTORE POP POP TIMESTAMP PUSH1 0xA0 DUP2 DUP2 MSTORE POP POP PUSH1 0x0 PUSH1 0x2 DUP2 GT ISZERO PUSH3 0x9C JUMPI PUSH3 0x9B PUSH3 0x94A JUMP JUMPDEST JUMPDEST DUP2 PUSH1 0x2 DUP2 GT ISZERO PUSH3 0xB2 JUMPI PUSH3 0xB1 PUSH3 0x94A JUMP JUMPDEST JUMPDEST SUB PUSH3 0xD4 JUMPI PUSH2 0xE10 DUP3 PUSH3 0xC8 SWAP2 SWAP1 PUSH3 0x9A8 JUMP JUMPDEST PUSH1 0x1 DUP2 SWAP1 SSTORE POP PUSH3 0x1B2 JUMP JUMPDEST PUSH1 0x1 PUSH1 0x2 DUP2 GT ISZERO PUSH3 0xEB JUMPI PUSH3 0xEA PUSH3 0x94A JUMP JUMPDEST JUMPDEST DUP2 PUSH1 0x2 DUP2 GT ISZERO PUSH3 0x101 JUMPI PUSH3 0x100 PUSH3 0x94A JUMP JUMPDEST JUMPDEST SUB PUSH3 0x124 JUMPI PUSH3 0x15180 DUP3 PUSH3 0x118 SWAP2 SWAP1 PUSH3 0x9A8 JUMP JUMPDEST PUSH1 0x1 DUP2 SWAP1 SSTORE POP PUSH3 0x1B1 JUMP JUMPDEST PUSH1 0x2 DUP1 DUP2 GT ISZERO PUSH3 0x13A JUMPI PUSH3 0x139 PUSH3 0x94A JUMP JUMPDEST JUMPDEST DUP2 PUSH1 0x2 DUP2 GT ISZERO PUSH3 0x150 JUMPI PUSH3 0x14F PUSH3 0x94A JUMP JUMPDEST JUMPDEST SUB PUSH3 0x173 JUMPI PUSH3 0x93A80 DUP3 PUSH3 0x167 SWAP2 SWAP1 PUSH3 0x9A8 JUMP JUMPDEST PUSH1 0x1 DUP2 SWAP1 SSTORE POP PUSH3 0x1B0 JUMP JUMPDEST PUSH1 0x40 MLOAD PUSH32 0x8C379A000000000000000000000000000000000000000000000000000000000 DUP2 MSTORE PUSH1 0x4 ADD PUSH3 0x1A7 SWAP1 PUSH3 0xA7A JUMP JUMPDEST PUSH1 0x40 MLOAD DUP1 SWAP2 SUB SWAP1 REVERT JUMPDEST JUMPDEST JUMPDEST PUSH1 0x0 JUMPDEST DUP4 MLOAD DUP2 LT ISZERO PUSH3 0x275 JUMPI PUSH1 0x3 PUSH1 0x40 MLOAD DUP1 PUSH1 0x60 ADD PUSH1 0x40 MSTORE DUP1 PUSH1 0x1 DUP5 PUSH3 0x1DB SWAP2 SWAP1 PUSH3 0xA9C JUMP JUMPDEST DUP2 MSTORE PUSH1 0x20 ADD DUP7 DUP5 DUP2 MLOAD DUP2 LT PUSH3 0x1F6 JUMPI PUSH3 0x1F5 PUSH3 0xAD7 JUMP JUMPDEST JUMPDEST PUSH1 0x20 MUL PUSH1 0x20 ADD ADD MLOAD DUP2 MSTORE PUSH1 0x20 ADD PUSH1 0x0 DUP2 MSTORE POP SWAP1 DUP1 PUSH1 0x1 DUP2 SLOAD ADD DUP1 DUP3 SSTORE DUP1 SWAP2 POP POP PUSH1 0x1 SWAP1 SUB SWAP1 PUSH1 0x0 MSTORE PUSH1 0x20 PUSH1 0x0 KECCAK256 SWAP1 PUSH1 0x3 MUL ADD PUSH1 0x0 SWAP1 SWAP2 SWAP1 SWAP2 SWAP1 SWAP2 POP PUSH1 0x0 DUP3 ADD MLOAD DUP2 PUSH1 0x0 ADD SSTORE PUSH1 0x20 DUP3 ADD MLOAD DUP2 PUSH1 0x1 ADD SWAP1 DUP2 PUSH3 0x252 SWAP2 SWAP1 PUSH3 0x863 JUMP JUMPDEST POP PUSH1 0x40 DUP3 ADD MLOAD DUP2 PUSH1 0x2 ADD SSTORE POP POP DUP1 DUP1 PUSH3 0x26C SWAP1 PUSH3 0xB06 JUMP JUMPDEST SWAP2 POP POP PUSH3 0x1B5 JUMP JUMPDEST POP POP POP POP POP PUSH3 0xB53 JUMP JUMPDEST PUSH1 0x0 PUSH1 0x40 MLOAD SWAP1 POP SWAP1 JUMP JUMPDEST PUSH1 0x0 DUP1 REVERT JUMPDEST PUSH1 0x0 DUP1 REVERT JUMPDEST PUSH1 0x0 DUP1 REVERT JUMPDEST PUSH1 0x0 DUP1 REVERT JUMPDEST PUSH1 0x0 PUSH1 0x1F NOT PUSH1 0x1F DUP4 ADD AND SWAP1 POP SWAP2 SWAP1 POP JUMP JUMPDEST PUSH32 0x4E487B7100000000000000000000000000000000000000000000000000000000 PUSH1 0x0 MSTORE PUSH1 0x41 PUSH1 0x4 MSTORE PUSH1 0x24 PUSH1 0x0 REVERT JUMPDEST PUSH3 0x2E9 DUP3 PUSH3 0x29E JUMP JUMPDEST DUP2 ADD DUP2 DUP2 LT PUSH8 0xFFFFFFFFFFFFFFFF DUP3 GT OR ISZERO PUSH3 0x30B JUMPI PUSH3 0x30A PUSH3 0x2AF JUMP JUMPDEST JUMPDEST DUP1 PUSH1 0x40 MSTORE POP POP POP JUMP JUMPDEST PUSH1 0x0 PUSH3 0x320 PUSH3 0x280 JUMP JUMPDEST SWAP1 POP PUSH3 0x32E DUP3 DUP3 PUSH3 0x2DE JUMP JUMPDEST SWAP2 SWAP1 POP JUMP JUMPDEST PUSH1 0x0 PUSH8 0xFFFFFFFFFFFFFFFF DUP3 GT ISZERO PUSH3 0x351 JUMPI PUSH3 0x350 PUSH3 0x2AF JUMP JUMPDEST JUMPDEST PUSH3 0x35C DUP3 PUSH3 0x29E JUMP JUMPDEST SWAP1 POP PUSH1 0x20 DUP2 ADD SWAP1 POP SWAP2 SWAP1 POP JUMP JUMPDEST PUSH1 0x0 JUMPDEST DUP4 DUP2 LT ISZERO PUSH3 0x389 JUMPI DUP1 DUP3 ADD MLOAD DUP2 DUP5 ADD MSTORE PUSH1 0x20 DUP2 ADD SWAP1 POP PUSH3 0x36C JUMP JUMPDEST PUSH1 0x0 DUP5 DUP5 ADD MSTORE POP POP POP POP JUMP JUMPDEST PUSH1 0x0 PUSH3 0x3AC PUSH3 0x3A6 DUP5 PUSH3 0x333 JUMP JUMPDEST PUSH3 0x314 JUMP JUMPDEST SWAP1 POP DUP3 DUP2 MSTORE PUSH1 0x20 DUP2 ADD DUP5 DUP5 DUP5 ADD GT ISZERO PUSH3 0x3CB JUMPI PUSH3 0x3CA PUSH3 0x299 JUMP JUMPDEST JUMPDEST PUSH3 0x3D8 DUP5 DUP3 DUP6 PUSH3 0x369 JUMP JUMPDEST POP SWAP4 SWAP3 POP POP POP JUMP JUMPDEST PUSH1 0x0 DUP3 PUSH1 0x1F DUP4 ADD SLT PUSH3 0x3F8 JUMPI PUSH3 0x3F7 PUSH3 0x294 JUMP JUMPDEST JUMPDEST DUP2 MLOAD PUSH3 0x40A DUP5 DUP3 PUSH1 0x20 DUP7 ADD PUSH3 0x395 JUMP JUMPDEST SWAP2 POP POP SWAP3 SWAP2 POP POP JUMP JUMPDEST PUSH1 0x0 PUSH8 0xFFFFFFFFFFFFFFFF DUP3 GT ISZERO PUSH3 0x431 JUMPI PUSH3 0x430 PUSH3 0x2AF JUMP JUMPDEST JUMPDEST PUSH1 0x20 DUP3 MUL SWAP1 POP PUSH1 0x20 DUP2 ADD SWAP1 POP SWAP2 SWAP1 POP JUMP JUMPDEST PUSH1 0x0 DUP1 REVERT JUMPDEST PUSH1 0x0 PUSH3 0x45E PUSH3 0x458 DUP5 PUSH3 0x413 JUMP JUMPDEST PUSH3 0x314 JUMP JUMPDEST SWAP1 POP DUP1 DUP4 DUP3 MSTORE PUSH1 0x20 DUP3 ADD SWAP1 POP PUSH1 0x20 DUP5 MUL DUP4 ADD DUP6 DUP2 GT ISZERO PUSH3 0x484 JUMPI PUSH3 0x483 PUSH3 0x442 JUMP JUMPDEST JUMPDEST DUP4 JUMPDEST DUP2 DUP2 LT ISZERO PUSH3 0x4D2 JUMPI DUP1 MLOAD PUSH8 0xFFFFFFFFFFFFFFFF DUP2 GT ISZERO PUSH3 0x4AD JUMPI PUSH3 0x4AC PUSH3 0x294 JUMP JUMPDEST JUMPDEST DUP1 DUP7 ADD PUSH3 0x4BC DUP10 DUP3 PUSH3 0x3E0 JUMP JUMPDEST DUP6 MSTORE PUSH1 0x20 DUP6 ADD SWAP5 POP POP POP PUSH1 0x20 DUP2 ADD SWAP1 POP PUSH3 0x486 JUMP JUMPDEST POP POP POP SWAP4 SWAP3 POP POP POP JUMP JUMPDEST PUSH1 0x0 DUP3 PUSH1 0x1F DUP4 ADD SLT PUSH3 0x4F4 JUMPI PUSH3 0x4F3 PUSH3 0x294 JUMP JUMPDEST JUMPDEST DUP2 MLOAD PUSH3 0x506 DUP5 DUP3 PUSH1 0x20 DUP7 ADD PUSH3 0x447 JUMP JUMPDEST SWAP2 POP POP SWAP3 SWAP2 POP POP JUMP JUMPDEST PUSH1 0x0 DUP2 SWAP1 POP SWAP2 SWAP1 POP JUMP JUMPDEST PUSH3 0x524 DUP2 PUSH3 0x50F JUMP JUMPDEST DUP2 EQ PUSH3 0x530 JUMPI PUSH1 0x0 DUP1 REVERT JUMPDEST POP JUMP JUMPDEST PUSH1 0x0 DUP2 MLOAD SWAP1 POP PUSH3 0x544 DUP2 PUSH3 0x519 JUMP JUMPDEST SWAP3 SWAP2 POP POP JUMP JUMPDEST PUSH1 0x3 DUP2 LT PUSH3 0x558 JUMPI PUSH1 0x0 DUP1 REVERT JUMPDEST POP JUMP JUMPDEST PUSH1 0x0 DUP2 MLOAD SWAP1 POP PUSH3 0x56C DUP2 PUSH3 0x54A JUMP JUMPDEST SWAP3 SWAP2 POP POP JUMP JUMPDEST PUSH1 0x0 DUP1 PUSH1 0x0 DUP1 PUSH1 0x80 DUP6 DUP8 SUB SLT ISZERO PUSH3 0x58F JUMPI PUSH3 0x58E PUSH3 0x28A JUMP JUMPDEST JUMPDEST PUSH1 0x0 DUP6 ADD MLOAD PUSH8 0xFFFFFFFFFFFFFFFF DUP2 GT ISZERO PUSH3 0x5B0 JUMPI PUSH3 0x5AF PUSH3 0x28F JUMP JUMPDEST JUMPDEST PUSH3 0x5BE DUP8 DUP3 DUP9 ADD PUSH3 0x3E0 JUMP JUMPDEST SWAP5 POP POP PUSH1 0x20 DUP6 ADD MLOAD PUSH8 0xFFFFFFFFFFFFFFFF DUP2 GT ISZERO PUSH3 0x5E2 JUMPI PUSH3 0x5E1 PUSH3 0x28F JUMP JUMPDEST JUMPDEST PUSH3 0x5F0 DUP8 DUP3 DUP9 ADD PUSH3 0x4DC JUMP JUMPDEST SWAP4 POP POP PUSH1 0x40 PUSH3 0x603 DUP8 DUP3 DUP9 ADD PUSH3 0x533 JUMP JUMPDEST SWAP3 POP POP PUSH1 0x60 PUSH3 0x616 DUP8 DUP3 DUP9 ADD PUSH3 0x55B JUMP JUMPDEST SWAP2 POP POP SWAP3 SWAP6 SWAP2 SWAP5 POP SWAP3 POP JUMP JUMPDEST PUSH1 0x0 DUP2 MLOAD SWAP1 POP SWAP2 SWAP1 POP JUMP JUMPDEST PUSH32 0x4E487B7100000000000000000000000000000000000000000000000000000000 PUSH1 0x0 MSTORE PUSH1 0x22 PUSH1 0x4 MSTORE PUSH1 0x24 PUSH1 0x0 REVERT JUMPDEST PUSH1 0x0 PUSH1 0x2 DUP3 DIV SWAP1 POP PUSH1 0x1 DUP3 AND DUP1 PUSH3 0x675 JUMPI PUSH1 0x7F DUP3 AND SWAP2 POP JUMPDEST PUSH1 0x20 DUP3 LT DUP2 SUB PUSH3 0x68B JUMPI PUSH3 0x68A PUSH3 0x62D JUMP JUMPDEST JUMPDEST POP SWAP2 SWAP1 POP JUMP JUMPDEST PUSH1 0x0 DUP2 SWAP1 POP DUP2 PUSH1 0x0 MSTORE PUSH1 0x20 PUSH1 0x0 KECCAK256 SWAP1 POP SWAP2 SWAP1 POP JUMP JUMPDEST PUSH1 0x0 PUSH1 0x20 PUSH1 0x1F DUP4 ADD DIV SWAP1 POP SWAP2 SWAP1 POP JUMP JUMPDEST PUSH1 0x0 DUP3 DUP3 SHL SWAP1 POP SWAP3 SWAP2 POP POP JUMP JUMPDEST PUSH1 0x0 PUSH1 0x8 DUP4 MUL PUSH3 0x6F5 PUSH32 0xFFFFFFFFFFFFFFFFFFFFFFFFFFFFFFFFFFFFFFFFFFFFFFFFFFFFFFFFFFFFFFFF DUP3 PUSH3 0x6B6 JUMP JUMPDEST PUSH3 0x701 DUP7 DUP4 PUSH3 0x6B6 JUMP JUMPDEST SWAP6 POP DUP1 NOT DUP5 AND SWAP4 POP DUP1 DUP7 AND DUP5 OR SWAP3 POP POP POP SWAP4 SWAP3 POP POP POP JUMP JUMPDEST PUSH1 0x0 DUP2 SWAP1 POP SWAP2 SWAP1 POP JUMP JUMPDEST PUSH1 0x0 PUSH3 0x744 PUSH3 0x73E PUSH3 0x738 DUP5 PUSH3 0x50F JUMP JUMPDEST PUSH3 0x719 JUMP JUMPDEST PUSH3 0x50F JUMP JUMPDEST SWAP1 POP SWAP2 SWAP1 POP JUMP JUMPDEST PUSH1 0x0 DUP2 SWAP1 POP SWAP2 SWAP1 POP JUMP JUMPDEST PUSH3 0x760 DUP4 PUSH3 0x723 JUMP JUMPDEST PUSH3 0x778 PUSH3 0x76F DUP3 PUSH3 0x74B JUMP JUMPDEST DUP5 DUP5 SLOAD PUSH3 0x6C3 JUMP JUMPDEST DUP3 SSTORE POP POP POP POP JUMP JUMPDEST PUSH1 0x0 SWAP1 JUMP JUMPDEST PUSH3 0x78F PUSH3 0x780 JUMP JUMPDEST PUSH3 0x79C DUP2 DUP5 DUP5 PUSH3 0x755 JUMP JUMPDEST POP POP POP JUMP JUMPDEST JUMPDEST DUP2 DUP2 LT ISZERO PUSH3 0x7C4 JUMPI PUSH3 0x7B8 PUSH1 0x0 DUP3 PUSH3 0x785 JUMP JUMPDEST PUSH1 0x1 DUP2 ADD SWAP1 POP PUSH3 0x7A2 JUMP JUMPDEST POP POP JUMP JUMPDEST PUSH1 0x1F DUP3 GT ISZERO PUSH3 0x813 JUMPI PUSH3 0x7DD DUP2 PUSH3 0x691 JUMP JUMPDEST PUSH3 0x7E8 DUP5 PUSH3 0x6A6 JUMP JUMPDEST DUP2 ADD PUSH1 0x20 DUP6 LT ISZERO PUSH3 0x7F8 JUMPI DUP2 SWAP1 POP JUMPDEST PUSH3 0x810 PUSH3 0x807 DUP6 PUSH3 0x6A6 JUMP JUMPDEST DUP4 ADD DUP3 PUSH3 0x7A1 JUMP JUMPDEST POP POP JUMPDEST POP POP POP JUMP JUMPDEST PUSH1 0x0 DUP3 DUP3 SHR SWAP1 POP SWAP3 SWAP2 POP POP JUMP JUMPDEST PUSH1 0x0 PUSH3 0x838 PUSH1 0x0 NOT DUP5 PUSH1 0x8 MUL PUSH3 0x818 JUMP JUMPDEST NOT DUP1 DUP4 AND SWAP2 POP POP SWAP3 SWAP2 POP POP JUMP JUMPDEST PUSH1 0x0 PUSH3 0x853 DUP4 DUP4 PUSH3 0x825 JUMP JUMPDEST SWAP2 POP DUP3 PUSH1 0x2 MUL DUP3 OR SWAP1 POP SWAP3 SWAP2 POP POP JUMP JUMPDEST PUSH3 0x86E DUP3 PUSH3 0x622 JUMP JUMPDEST PUSH8 0xFFFFFFFFFFFFFFFF DUP2 GT ISZERO PUSH3 0x88A JUMPI PUSH3 0x889 PUSH3 0x2AF JUMP JUMPDEST JUMPDEST PUSH3 0x896 DUP3 SLOAD PUSH3 0x65C JUMP JUMPDEST PUSH3 0x8A3 DUP3 DUP3 DUP6 PUSH3 0x7C8 JUMP JUMPDEST PUSH1 0x0 PUSH1 0x20 SWAP1 POP PUSH1 0x1F DUP4 GT PUSH1 0x1 DUP2 EQ PUSH3 0x8DB JUMPI PUSH1 0x0 DUP5 ISZERO PUSH3 0x8C6 JUMPI DUP3 DUP8 ADD MLOAD SWAP1 POP JUMPDEST PUSH3 0x8D2 DUP6 DUP3 PUSH3 0x845 JUMP JUMPDEST DUP7 SSTORE POP PUSH3 0x942 JUMP JUMPDEST PUSH1 0x1F NOT DUP5 AND PUSH3 0x8EB DUP7 PUSH3 0x691 JUMP JUMPDEST PUSH1 0x0 JUMPDEST DUP3 DUP2 LT ISZERO PUSH3 0x915 JUMPI DUP5 DUP10 ADD MLOAD DUP3 SSTORE PUSH1 0x1 DUP3 ADD SWAP2 POP PUSH1 0x20 DUP6 ADD SWAP5 POP PUSH1 0x20 DUP2 ADD SWAP1 POP PUSH3 0x8EE JUMP JUMPDEST DUP7 DUP4 LT ISZERO PUSH3 0x935 JUMPI DUP5 DUP10 ADD MLOAD PUSH3 0x931 PUSH1 0x1F DUP10 AND DUP3 PUSH3 0x825 JUMP JUMPDEST DUP4 SSTORE POP JUMPDEST PUSH1 0x1 PUSH1 0x2 DUP9 MUL ADD DUP9 SSTORE POP POP POP JUMPDEST POP POP POP POP POP POP JUMP JUMPDEST PUSH32 0x4E487B7100000000000000000000000000000000000000000000000000000000 PUSH1 0x0 MSTORE PUSH1 0x21 PUSH1 0x4 MSTORE PUSH1 0x24 PUSH1 0x0 REVERT JUMPDEST PUSH32 0x4E487B7100000000000000000000000000000000000000000000000000000000 PUSH1 0x0 MSTORE PUSH1 0x11 PUSH1 0x4 MSTORE PUSH1 0x24 PUSH1 0x0 REVERT JUMPDEST PUSH1 0x0 PUSH3 0x9B5 DUP3 PUSH3 0x50F JUMP JUMPDEST SWAP2 POP PUSH3 0x9C2 DUP4 PUSH3 0x50F JUMP JUMPDEST SWAP3 POP DUP3 DUP3 MUL PUSH3 0x9D2 DUP2 PUSH3 0x50F JUMP JUMPDEST SWAP2 POP DUP3 DUP3 DIV DUP5 EQ DUP4 ISZERO OR PUSH3 0x9EC JUMPI PUSH3 0x9EB PUSH3 0x979 JUMP JUMPDEST JUMPDEST POP SWAP3 SWAP2 POP POP JUMP JUMPDEST PUSH1 0x0 DUP3 DUP3 MSTORE PUSH1 0x20 DUP3 ADD SWAP1 POP SWAP3 SWAP2 POP POP JUMP JUMPDEST PUSH32 0x556E737570706F727465642074696D65206475726174696F6E2073656C656374 PUSH1 0x0 DUP3 ADD MSTORE PUSH32 0x6564000000000000000000000000000000000000000000000000000000000000 PUSH1 0x20 DUP3 ADD MSTORE POP JUMP JUMPDEST PUSH1 0x0 PUSH3 0xA62 PUSH1 0x22 DUP4 PUSH3 0x9F3 JUMP JUMPDEST SWAP2 POP PUSH3 0xA6F DUP3 PUSH3 0xA04 JUMP JUMPDEST PUSH1 0x40 DUP3 ADD SWAP1 POP SWAP2 SWAP1 POP JUMP JUMPDEST PUSH1 0x0 PUSH1 0x20 DUP3 ADD SWAP1 POP DUP2 DUP2 SUB PUSH1 0x0 DUP4 ADD MSTORE PUSH3 0xA95 DUP2 PUSH3 0xA53 JUMP JUMPDEST SWAP1 POP SWAP2 SWAP1 POP JUMP JUMPDEST PUSH1 0x0 PUSH3 0xAA9 DUP3 PUSH3 0x50F JUMP JUMPDEST SWAP2 POP PUSH3 0xAB6 DUP4 PUSH3 0x50F JUMP JUMPDEST SWAP3 POP DUP3 DUP3 ADD SWAP1 POP DUP1 DUP3 GT ISZERO PUSH3 0xAD1 JUMPI PUSH3 0xAD0 PUSH3 0x979 JUMP JUMPDEST JUMPDEST SWAP3 SWAP2 POP POP JUMP JUMPDEST PUSH32 0x4E487B7100000000000000000000000000000000000000000000000000000000 PUSH1 0x0 MSTORE PUSH1 0x32 PUSH1 0x4 MSTORE PUSH1 0x24 PUSH1 0x0 REVERT JUMPDEST PUSH1 0x0 PUSH3 0xB13 DUP3 PUSH3 0x50F JUMP JUMPDEST SWAP2 POP PUSH32 0xFFFFFFFFFFFFFFFFFFFFFFFFFFFFFFFFFFFFFFFFFFFFFFFFFFFFFFFFFFFFFFFF DUP3 SUB PUSH3 0xB48 JUMPI PUSH3 0xB47 PUSH3 0x979 JUMP JUMPDEST JUMPDEST PUSH1 0x1 DUP3 ADD SWAP1 POP SWAP2 SWAP1 POP JUMP JUMPDEST PUSH1 0x80 MLOAD PUSH1 0xA0 MLOAD PUSH2 0xC27 PUSH3 0xB75 PUSH1 0x0 CODECOPY PUSH1 0x0 PUSH1 0xA5 ADD MSTORE PUSH1 0x0 POP POP PUSH2 0xC27 PUSH1 0x0 RETURN INVALID PUSH1 0x80 PUSH1 0x40 MSTORE CALLVALUE DUP1 ISZERO PUSH2 0x10 JUMPI PUSH1 0x0 DUP1 REVERT JUMPDEST POP PUSH1 0x4 CALLDATASIZE LT PUSH2 0x41 JUMPI PUSH1 0x0 CALLDATALOAD PUSH1 0xE0 SHR DUP1 PUSH4 0x3EB76B9C EQ PUSH2 0x46 JUMPI DUP1 PUSH4 0xBC9CD2CE EQ PUSH2 0x62 JUMPI DUP1 PUSH4 0xBF63A577 EQ PUSH2 0x82 JUMPI JUMPDEST PUSH1 0x0 DUP1 REVERT JUMPDEST PUSH2 0x60 PUSH1 0x4 DUP1 CALLDATASIZE SUB DUP2 ADD SWAP1 PUSH2 0x5B SWAP2 SWAP1 PUSH2 0x629 JUMP JUMPDEST PUSH2 0xA0 JUMP JUMPDEST STOP JUMPDEST PUSH2 0x6A PUSH2 0x2D5 JUMP JUMPDEST PUSH1 0x40 MLOAD PUSH2 0x79 SWAP4 SWAP3 SWAP2 SWAP1 PUSH2 0x866 JUMP JUMPDEST PUSH1 0x40 MLOAD DUP1 SWAP2 SUB SWAP1 RETURN JUMPDEST PUSH2 0x8A PUSH2 0x560 JUMP JUMPDEST PUSH1 0x40 MLOAD PUSH2 0x97 SWAP2 SWAP1 PUSH2 0x8FC JUMP JUMPDEST PUSH1 0x40 MLOAD DUP1 SWAP2 SUB SWAP1 RETURN JUMPDEST PUSH1 0x1 SLOAD PUSH32 0x0 PUSH2 0xCE SWAP2 SWAP1 PUSH2 0x94D JUMP JUMPDEST TIMESTAMP LT PUSH2 0x10F JUMPI PUSH1 0x40 MLOAD PUSH32 0x8C379A000000000000000000000000000000000000000000000000000000000 DUP2 MSTORE PUSH1 0x4 ADD PUSH2 0x106 SWAP1 PUSH2 0x9CD JUMP JUMPDEST PUSH1 0x40 MLOAD DUP1 SWAP2 SUB SWAP1 REVERT JUMPDEST PUSH1 0x1 ISZERO ISZERO PUSH1 0x2 PUSH1 0x0 CALLER PUSH20 0xFFFFFFFFFFFFFFFFFFFFFFFFFFFFFFFFFFFFFFFF AND PUSH20 0xFFFFFFFFFFFFFFFFFFFFFFFFFFFFFFFFFFFFFFFF AND DUP2 MSTORE PUSH1 0x20 ADD SWAP1 DUP2 MSTORE PUSH1 0x20 ADD PUSH1 0x0 KECCAK256 PUSH1 0x0 SWAP1 SLOAD SWAP1 PUSH2 0x100 EXP SWAP1 DIV PUSH1 0xFF AND ISZERO ISZERO SUB PUSH2 0x1A2 JUMPI PUSH1 0x40 MLOAD PUSH32 0x8C379A000000000000000000000000000000000000000000000000000000000 DUP2 MSTORE PUSH1 0x4 ADD PUSH2 0x199 SWAP1 PUSH2 0xA39 JUMP JUMPDEST PUSH1 0x40 MLOAD DUP1 SWAP2 SUB SWAP1 REVERT JUMPDEST PUSH1 0x0 DUP1 JUMPDEST PUSH1 0x3 DUP1 SLOAD SWAP1 POP DUP2 LT ISZERO PUSH2 0x290 JUMPI DUP3 PUSH1 0x3 DUP3 DUP2 SLOAD DUP2 LT PUSH2 0x1C8 JUMPI PUSH2 0x1C7 PUSH2 0xA59 JUMP JUMPDEST JUMPDEST SWAP1 PUSH1 0x0 MSTORE PUSH1 0x20 PUSH1 0x0 KECCAK256 SWAP1 PUSH1 0x3 MUL ADD PUSH1 0x0 ADD SLOAD SUB PUSH2 0x27D JUMPI PUSH1 0x1 PUSH1 0x3 DUP3 DUP2 SLOAD DUP2 LT PUSH2 0x1F5 JUMPI PUSH2 0x1F4 PUSH2 0xA59 JUMP JUMPDEST JUMPDEST SWAP1 PUSH1 0x0 MSTORE PUSH1 0x20 PUSH1 0x0 KECCAK256 SWAP1 PUSH1 0x3 MUL ADD PUSH1 0x2 ADD PUSH1 0x0 DUP3 DUP3 SLOAD PUSH2 0x215 SWAP2 SWAP1 PUSH2 0x94D JUMP JUMPDEST SWAP3 POP POP DUP2 SWAP1 SSTORE POP PUSH1 0x1 PUSH1 0x2 PUSH1 0x0 CALLER PUSH20 0xFFFFFFFFFFFFFFFFFFFFFFFFFFFFFFFFFFFFFFFF AND PUSH20 0xFFFFFFFFFFFFFFFFFFFFFFFFFFFFFFFFFFFFFFFF AND DUP2 MSTORE PUSH1 0x20 ADD SWAP1 DUP2 MSTORE PUSH1 0x20 ADD PUSH1 0x0 KECCAK256 PUSH1 0x0 PUSH2 0x100 EXP DUP2 SLOAD DUP2 PUSH1 0xFF MUL NOT AND SWAP1 DUP4 ISZERO ISZERO MUL OR SWAP1 SSTORE POP PUSH1 0x1 SWAP2 POP PUSH2 0x290 JUMP JUMPDEST DUP1 DUP1 PUSH2 0x288 SWAP1 PUSH2 0xA88 JUMP JUMPDEST SWAP2 POP POP PUSH2 0x1A6 JUMP JUMPDEST POP DUP1 PUSH2 0x2D1 JUMPI PUSH1 0x40 MLOAD PUSH32 0x8C379A000000000000000000000000000000000000000000000000000000000 DUP2 MSTORE PUSH1 0x4 ADD PUSH2 0x2C8 SWAP1 PUSH2 0xB42 JUMP JUMPDEST PUSH1 0x40 MLOAD DUP1 SWAP2 SUB SWAP1 REVERT JUMPDEST POP POP JUMP JUMPDEST PUSH1 0x60 DUP1 PUSH1 0x60 PUSH1 0x0 PUSH1 0x3 DUP1 SLOAD SWAP1 POP PUSH8 0xFFFFFFFFFFFFFFFF DUP2 GT ISZERO PUSH2 0x2FB JUMPI PUSH2 0x2FA PUSH2 0xB62 JUMP JUMPDEST JUMPDEST PUSH1 0x40 MLOAD SWAP1 DUP1 DUP3 MSTORE DUP1 PUSH1 0x20 MUL PUSH1 0x20 ADD DUP3 ADD PUSH1 0x40 MSTORE DUP1 ISZERO PUSH2 0x329 JUMPI DUP2 PUSH1 0x20 ADD PUSH1 0x20 DUP3 MUL DUP1 CALLDATASIZE DUP4 CALLDATACOPY DUP1 DUP3 ADD SWAP2 POP POP SWAP1 POP JUMPDEST POP SWAP1 POP PUSH1 0x0 PUSH1 0x3 DUP1 SLOAD SWAP1 POP PUSH8 0xFFFFFFFFFFFFFFFF DUP2 GT ISZERO PUSH2 0x34D JUMPI PUSH2 0x34C PUSH2 0xB62 JUMP JUMPDEST JUMPDEST PUSH1 0x40 MLOAD SWAP1 DUP1 DUP3 MSTORE DUP1 PUSH1 0x20 MUL PUSH1 0x20 ADD DUP3 ADD PUSH1 0x40 MSTORE DUP1 ISZERO PUSH2 0x380 JUMPI DUP2 PUSH1 0x20 ADD JUMPDEST PUSH1 0x60 DUP2 MSTORE PUSH1 0x20 ADD SWAP1 PUSH1 0x1 SWAP1 SUB SWAP1 DUP2 PUSH2 0x36B JUMPI SWAP1 POP JUMPDEST POP SWAP1 POP PUSH1 0x0 PUSH1 0x3 DUP1 SLOAD SWAP1 POP PUSH8 0xFFFFFFFFFFFFFFFF DUP2 GT ISZERO PUSH2 0x3A4 JUMPI PUSH2 0x3A3 PUSH2 0xB62 JUMP JUMPDEST JUMPDEST PUSH1 0x40 MLOAD SWAP1 DUP1 DUP3 MSTORE DUP1 PUSH1 0x20 MUL PUSH1 0x20 ADD DUP3 ADD PUSH1 0x40 MSTORE DUP1 ISZERO PUSH2 0x3D2 JUMPI DUP2 PUSH1 0x20 ADD PUSH1 0x20 DUP3 MUL DUP1 CALLDATASIZE DUP4 CALLDATACOPY DUP1 DUP3 ADD SWAP2 POP POP SWAP1 POP JUMPDEST POP SWAP1 POP PUSH1 0x0 JUMPDEST PUSH1 0x3 DUP1 SLOAD SWAP1 POP DUP2 LT ISZERO PUSH2 0x54E JUMPI PUSH1 0x3 DUP2 DUP2 SLOAD DUP2 LT PUSH2 0x3F9 JUMPI PUSH2 0x3F8 PUSH2 0xA59 JUMP JUMPDEST JUMPDEST SWAP1 PUSH1 0x0 MSTORE PUSH1 0x20 PUSH1 0x0 KECCAK256 SWAP1 PUSH1 0x3 MUL ADD PUSH1 0x0 ADD SLOAD DUP5 DUP3 DUP2 MLOAD DUP2 LT PUSH2 0x41E JUMPI PUSH2 0x41D PUSH2 0xA59 JUMP JUMPDEST JUMPDEST PUSH1 0x20 MUL PUSH1 0x20 ADD ADD DUP2 DUP2 MSTORE POP POP PUSH1 0x3 DUP2 DUP2 SLOAD DUP2 LT PUSH2 0x43E JUMPI PUSH2 0x43D PUSH2 0xA59 JUMP JUMPDEST JUMPDEST SWAP1 PUSH1 0x0 MSTORE PUSH1 0x20 PUSH1 0x0 KECCAK256 SWAP1 PUSH1 0x3 MUL ADD PUSH1 0x1 ADD DUP1 SLOAD PUSH2 0x45A SWAP1 PUSH2 0xBC0 JUMP JUMPDEST DUP1 PUSH1 0x1F ADD PUSH1 0x20 DUP1 SWAP2 DIV MUL PUSH1 0x20 ADD PUSH1 0x40 MLOAD SWAP1 DUP2 ADD PUSH1 0x40 MSTORE DUP1 SWAP3 SWAP2 SWAP1 DUP2 DUP2 MSTORE PUSH1 0x20 ADD DUP3 DUP1 SLOAD PUSH2 0x486 SWAP1 PUSH2 0xBC0 JUMP JUMPDEST DUP1 ISZERO PUSH2 0x4D3 JUMPI DUP1 PUSH1 0x1F LT PUSH2 0x4A8 JUMPI PUSH2 0x100 DUP1 DUP4 SLOAD DIV MUL DUP4 MSTORE SWAP2 PUSH1 0x20 ADD SWAP2 PUSH2 0x4D3 JUMP JUMPDEST DUP3 ADD SWAP2 SWAP1 PUSH1 0x0 MSTORE PUSH1 0x20 PUSH1 0x0 KECCAK256 SWAP1 JUMPDEST DUP2 SLOAD DUP2 MSTORE SWAP1 PUSH1 0x1 ADD SWAP1 PUSH1 0x20 ADD DUP1 DUP4 GT PUSH2 0x4B6 JUMPI DUP3 SWAP1 SUB PUSH1 0x1F AND DUP3 ADD SWAP2 JUMPDEST POP POP POP POP POP DUP4 DUP3 DUP2 MLOAD DUP2 LT PUSH2 0x4EB JUMPI PUSH2 0x4EA PUSH2 0xA59 JUMP JUMPDEST JUMPDEST PUSH1 0x20 MUL PUSH1 0x20 ADD ADD DUP2 SWAP1 MSTORE POP PUSH1 0x3 DUP2 DUP2 SLOAD DUP2 LT PUSH2 0x50A JUMPI PUSH2 0x509 PUSH2 0xA59 JUMP JUMPDEST JUMPDEST SWAP1 PUSH1 0x0 MSTORE PUSH1 0x20 PUSH1 0x0 KECCAK256 SWAP1 PUSH1 0x3 MUL ADD PUSH1 0x2 ADD SLOAD DUP3 DUP3 DUP2 MLOAD DUP2 LT PUSH2 0x52F JUMPI PUSH2 0x52E PUSH2 0xA59 JUMP JUMPDEST JUMPDEST PUSH1 0x20 MUL PUSH1 0x20 ADD ADD DUP2 DUP2 MSTORE POP POP DUP1 DUP1 PUSH2 0x546 SWAP1 PUSH2 0xA88 JUMP JUMPDEST SWAP2 POP POP PUSH2 0x3D8 JUMP JUMPDEST POP DUP3 DUP3 DUP3 SWAP6 POP SWAP6 POP SWAP6 POP POP POP POP SWAP1 SWAP2 SWAP3 JUMP JUMPDEST PUSH1 0x0 DUP1 SLOAD PUSH2 0x56D SWAP1 PUSH2 0xBC0 JUMP JUMPDEST DUP1 PUSH1 0x1F ADD PUSH1 0x20 DUP1 SWAP2 DIV MUL PUSH1 0x20 ADD PUSH1 0x40 MLOAD SWAP1 DUP2 ADD PUSH1 0x40 MSTORE DUP1 SWAP3 SWAP2 SWAP1 DUP2 DUP2 MSTORE PUSH1 0x20 ADD DUP3 DUP1 SLOAD PUSH2 0x599 SWAP1 PUSH2 0xBC0 JUMP JUMPDEST DUP1 ISZERO PUSH2 0x5E6 JUMPI DUP1 PUSH1 0x1F LT PUSH2 0x5BB JUMPI PUSH2 0x100 DUP1 DUP4 SLOAD DIV MUL DUP4 MSTORE SWAP2 PUSH1 0x20 ADD SWAP2 PUSH2 0x5E6 JUMP JUMPDEST DUP3 ADD SWAP2 SWAP1 PUSH1 0x0 MSTORE PUSH1 0x20 PUSH1 0x0 KECCAK256 SWAP1 JUMPDEST DUP2 SLOAD DUP2 MSTORE SWAP1 PUSH1 0x1 ADD SWAP1 PUSH1 0x20 ADD DUP1 DUP4 GT PUSH2 0x5C9 JUMPI DUP3 SWAP1 SUB PUSH1 0x1F AND DUP3 ADD SWAP2 JUMPDEST POP POP POP POP POP DUP2 JUMP JUMPDEST PUSH1 0x0 DUP1 REVERT JUMPDEST PUSH1 0x0 DUP2 SWAP1 POP SWAP2 SWAP1 POP JUMP JUMPDEST PUSH2 0x606 DUP2 PUSH2 0x5F3 JUMP JUMPDEST DUP2 EQ PUSH2 0x611 JUMPI PUSH1 0x0 DUP1 REVERT JUMPDEST POP JUMP JUMPDEST PUSH1 0x0 DUP2 CALLDATALOAD SWAP1 POP PUSH2 0x623 DUP2 PUSH2 0x5FD JUMP JUMPDEST SWAP3 SWAP2 POP POP JUMP JUMPDEST PUSH1 0x0 PUSH1 0x20 DUP3 DUP5 SUB SLT ISZERO PUSH2 0x63F JUMPI PUSH2 0x63E PUSH2 0x5EE JUMP JUMPDEST JUMPDEST PUSH1 0x0 PUSH2 0x64D DUP5 DUP3 DUP6 ADD PUSH2 0x614 JUMP JUMPDEST SWAP2 POP POP SWAP3 SWAP2 POP POP JUMP JUMPDEST PUSH1 0x0 DUP2 MLOAD SWAP1 POP SWAP2 SWAP1 POP JUMP JUMPDEST PUSH1 0x0 DUP3 DUP3 MSTORE PUSH1 0x20 DUP3 ADD SWAP1 POP SWAP3 SWAP2 POP POP JUMP JUMPDEST PUSH1 0x0 DUP2 SWAP1 POP PUSH1 0x20 DUP3 ADD SWAP1 POP SWAP2 SWAP1 POP JUMP JUMPDEST PUSH2 0x68B DUP2 PUSH2 0x5F3 JUMP JUMPDEST DUP3 MSTORE POP POP JUMP JUMPDEST PUSH1 0x0 PUSH2 0x69D DUP4 DUP4 PUSH2 0x682 JUMP JUMPDEST PUSH1 0x20 DUP4 ADD SWAP1 POP SWAP3 SWAP2 POP POP JUMP JUMPDEST PUSH1 0x0 PUSH1 0x20 DUP3 ADD SWAP1 POP SWAP2 SWAP1 POP JUMP JUMPDEST PUSH1 0x0 PUSH2 0x6C1 DUP3 PUSH2 0x656 JUMP JUMPDEST PUSH2 0x6CB DUP2 DUP6 PUSH2 0x661 JUMP JUMPDEST SWAP4 POP PUSH2 0x6D6 DUP4 PUSH2 0x672 JUMP JUMPDEST DUP1 PUSH1 0x0 JUMPDEST DUP4 DUP2 LT ISZERO PUSH2 0x707 JUMPI DUP2 MLOAD PUSH2 0x6EE DUP9 DUP3 PUSH2 0x691 JUMP JUMPDEST SWAP8 POP PUSH2 0x6F9 DUP4 PUSH2 0x6A9 JUMP JUMPDEST SWAP3 POP POP PUSH1 0x1 DUP2 ADD SWAP1 POP PUSH2 0x6DA JUMP JUMPDEST POP DUP6 SWAP4 POP POP POP POP SWAP3 SWAP2 POP POP JUMP JUMPDEST PUSH1 0x0 DUP2 MLOAD SWAP1 POP SWAP2 SWAP1 POP JUMP JUMPDEST PUSH1 0x0 DUP3 DUP3 MSTORE PUSH1 0x20 DUP3 ADD SWAP1 POP SWAP3 SWAP2 POP POP JUMP JUMPDEST PUSH1 0x0 DUP2 SWAP1 POP PUSH1 0x20 DUP3 ADD SWAP1 POP SWAP2 SWAP1 POP JUMP JUMPDEST PUSH1 0x0 DUP2 MLOAD SWAP1 POP SWAP2 SWAP1 POP JUMP JUMPDEST PUSH1 0x0 DUP3 DUP3 MSTORE PUSH1 0x20 DUP3 ADD SWAP1 POP SWAP3 SWAP2 POP POP JUMP JUMPDEST PUSH1 0x0 JUMPDEST DUP4 DUP2 LT ISZERO PUSH2 0x77A JUMPI DUP1 DUP3 ADD MLOAD DUP2 DUP5 ADD MSTORE PUSH1 0x20 DUP2 ADD SWAP1 POP PUSH2 0x75F JUMP JUMPDEST PUSH1 0x0 DUP5 DUP5 ADD MSTORE POP POP POP POP JUMP JUMPDEST PUSH1 0x0 PUSH1 0x1F NOT PUSH1 0x1F DUP4 ADD AND SWAP1 POP SWAP2 SWAP1 POP JUMP JUMPDEST PUSH1 0x0 PUSH2 0x7A2 DUP3 PUSH2 0x740 JUMP JUMPDEST PUSH2 0x7AC DUP2 DUP6 PUSH2 0x74B JUMP JUMPDEST SWAP4 POP PUSH2 0x7BC DUP2 DUP6 PUSH1 0x20 DUP7 ADD PUSH2 0x75C JUMP JUMPDEST PUSH2 0x7C5 DUP2 PUSH2 0x786 JUMP JUMPDEST DUP5 ADD SWAP2 POP POP SWAP3 SWAP2 POP POP JUMP JUMPDEST PUSH1 0x0 PUSH2 0x7DC DUP4 DUP4 PUSH2 0x797 JUMP JUMPDEST SWAP1 POP SWAP3 SWAP2 POP POP JUMP JUMPDEST PUSH1 0x0 PUSH1 0x20 DUP3 ADD SWAP1 POP SWAP2 SWAP1 POP JUMP JUMPDEST PUSH1 0x0 PUSH2 0x7FC DUP3 PUSH2 0x714 JUMP JUMPDEST PUSH2 0x806 DUP2 DUP6 PUSH2 0x71F JUMP JUMPDEST SWAP4 POP DUP4 PUSH1 0x20 DUP3 MUL DUP6 ADD PUSH2 0x818 DUP6 PUSH2 0x730 JUMP JUMPDEST DUP1 PUSH1 0x0 JUMPDEST DUP6 DUP2 LT ISZERO PUSH2 0x854 JUMPI DUP5 DUP5 SUB DUP10 MSTORE DUP2 MLOAD PUSH2 0x835 DUP6 DUP3 PUSH2 0x7D0 JUMP JUMPDEST SWAP5 POP PUSH2 0x840 DUP4 PUSH2 0x7E4 JUMP JUMPDEST SWAP3 POP PUSH1 0x20 DUP11 ADD SWAP10 POP POP PUSH1 0x1 DUP2 ADD SWAP1 POP PUSH2 0x81C JUMP JUMPDEST POP DUP3 SWAP8 POP DUP8 SWAP6 POP POP POP POP POP POP SWAP3 SWAP2 POP POP JUMP JUMPDEST PUSH1 0x0 PUSH1 0x60 DUP3 ADD SWAP1 POP DUP2 DUP2 SUB PUSH1 0x0 DUP4 ADD MSTORE PUSH2 0x880 DUP2 DUP7 PUSH2 0x6B6 JUMP JUMPDEST SWAP1 POP DUP2 DUP2 SUB PUSH1 0x20 DUP4 ADD MSTORE PUSH2 0x894 DUP2 DUP6 PUSH2 0x7F1 JUMP JUMPDEST SWAP1 POP DUP2 DUP2 SUB PUSH1 0x40 DUP4 ADD MSTORE PUSH2 0x8A8 DUP2 DUP5 PUSH2 0x6B6 JUMP JUMPDEST SWAP1 POP SWAP5 SWAP4 POP POP POP POP JUMP JUMPDEST PUSH1 0x0 DUP3 DUP3 MSTORE PUSH1 0x20 DUP3 ADD SWAP1 POP SWAP3 SWAP2 POP POP JUMP JUMPDEST PUSH1 0x0 PUSH2 0x8CE DUP3 PUSH2 0x740 JUMP JUMPDEST PUSH2 0x8D8 DUP2 DUP6 PUSH2 0x8B2 JUMP JUMPDEST SWAP4 POP PUSH2 0x8E8 DUP2 DUP6 PUSH1 0x20 DUP7 ADD PUSH2 0x75C JUMP JUMPDEST PUSH2 0x8F1 DUP2 PUSH2 0x786 JUMP JUMPDEST DUP5 ADD SWAP2 POP POP SWAP3 SWAP2 POP POP JUMP JUMPDEST PUSH1 0x0 PUSH1 0x20 DUP3 ADD SWAP1 POP DUP2 DUP2 SUB PUSH1 0x0 DUP4 ADD MSTORE PUSH2 0x916 DUP2 DUP5 PUSH2 0x8C3 JUMP JUMPDEST SWAP1 POP SWAP3 SWAP2 POP POP JUMP JUMPDEST PUSH32 0x4E487B7100000000000000000000000000000000000000000000000000000000 PUSH1 0x0 MSTORE PUSH1 0x11 PUSH1 0x4 MSTORE PUSH1 0x24 PUSH1 0x0 REVERT JUMPDEST PUSH1 0x0 PUSH2 0x958 DUP3 PUSH2 0x5F3 JUMP JUMPDEST SWAP2 POP PUSH2 0x963 DUP4 PUSH2 0x5F3 JUMP JUMPDEST SWAP3 POP DUP3 DUP3 ADD SWAP1 POP DUP1 DUP3 GT ISZERO PUSH2 0x97B JUMPI PUSH2 0x97A PUSH2 0x91E JUMP JUMPDEST JUMPDEST SWAP3 SWAP2 POP POP JUMP JUMPDEST PUSH32 0x54696D6520666F7220706F6C6C2068617320656C617073656400000000000000 PUSH1 0x0 DUP3 ADD MSTORE POP JUMP JUMPDEST PUSH1 0x0 PUSH2 0x9B7 PUSH1 0x19 DUP4 PUSH2 0x8B2 JUMP JUMPDEST SWAP2 POP PUSH2 0x9C2 DUP3 PUSH2 0x981 JUMP JUMPDEST PUSH1 0x20 DUP3 ADD SWAP1 POP SWAP2 SWAP1 POP JUMP JUMPDEST PUSH1 0x0 PUSH1 0x20 DUP3 ADD SWAP1 POP DUP2 DUP2 SUB PUSH1 0x0 DUP4 ADD MSTORE PUSH2 0x9E6 DUP2 PUSH2 0x9AA JUMP JUMPDEST SWAP1 POP SWAP2 SWAP1 POP JUMP JUMPDEST PUSH32 0x557365722063616E6E6F7420766F746520747769636500000000000000000000 PUSH1 0x0 DUP3 ADD MSTORE POP JUMP JUMPDEST PUSH1 0x0 PUSH2 0xA23 PUSH1 0x16 DUP4 PUSH2 0x8B2 JUMP JUMPDEST SWAP2 POP PUSH2 0xA2E DUP3 PUSH2 0x9ED JUMP JUMPDEST PUSH1 0x20 DUP3 ADD SWAP1 POP SWAP2 SWAP1 POP JUMP JUMPDEST PUSH1 0x0 PUSH1 0x20 DUP3 ADD SWAP1 POP DUP2 DUP2 SUB PUSH1 0x0 DUP4 ADD MSTORE PUSH2 0xA52 DUP2 PUSH2 0xA16 JUMP JUMPDEST SWAP1 POP SWAP2 SWAP1 POP JUMP JUMPDEST PUSH32 0x4E487B7100000000000000000000000000000000000000000000000000000000 PUSH1 0x0 MSTORE PUSH1 0x32 PUSH1 0x4 MSTORE PUSH1 0x24 PUSH1 0x0 REVERT JUMPDEST PUSH1 0x0 PUSH2 0xA93 DUP3 PUSH2 0x5F3 JUMP JUMPDEST SWAP2 POP PUSH32 0xFFFFFFFFFFFFFFFFFFFFFFFFFFFFFFFFFFFFFFFFFFFFFFFFFFFFFFFFFFFFFFFF DUP3 SUB PUSH2 0xAC5 JUMPI PUSH2 0xAC4 PUSH2 0x91E JUMP JUMPDEST JUMPDEST PUSH1 0x1 DUP3 ADD SWAP1 POP SWAP2 SWAP1 POP JUMP JUMPDEST PUSH32 0x4F7074696F6E20776974682073656C656374656420494420776173206E6F7420 PUSH1 0x0 DUP3 ADD MSTORE PUSH32 0x666F756E64000000000000000000000000000000000000000000000000000000 PUSH1 0x20 DUP3 ADD MSTORE POP JUMP JUMPDEST PUSH1 0x0 PUSH2 0xB2C PUSH1 0x25 DUP4 PUSH2 0x8B2 JUMP JUMPDEST SWAP2 POP PUSH2 0xB37 DUP3 PUSH2 0xAD0 JUMP JUMPDEST PUSH1 0x40 DUP3 ADD SWAP1 POP SWAP2 SWAP1 POP JUMP JUMPDEST PUSH1 0x0 PUSH1 0x20 DUP3 ADD SWAP1 POP DUP2 DUP2 SUB PUSH1 0x0 DUP4 ADD MSTORE PUSH2 0xB5B DUP2 PUSH2 0xB1F JUMP JUMPDEST SWAP1 POP SWAP2 SWAP1 POP JUMP JUMPDEST PUSH32 0x4E487B7100000000000000000000000000000000000000000000000000000000 PUSH1 0x0 MSTORE PUSH1 0x41 PUSH1 0x4 MSTORE PUSH1 0x24 PUSH1 0x0 REVERT JUMPDEST PUSH32 0x4E487B7100000000000000000000000000000000000000000000000000000000 PUSH1 0x0 MSTORE PUSH1 0x22 PUSH1 0x4 MSTORE PUSH1 0x24 PUSH1 0x0 REVERT JUMPDEST PUSH1 0x0 PUSH1 0x2 DUP3 DIV SWAP1 POP PUSH1 0x1 DUP3 AND DUP1 PUSH2 0xBD8 JUMPI PUSH1 0x7F DUP3 AND SWAP2 POP JUMPDEST PUSH1 0x20 DUP3 LT DUP2 SUB PUSH2 0xBEB JUMPI PUSH2 0xBEA PUSH2 0xB91 JUMP JUMPDEST JUMPDEST POP SWAP2 SWAP1 POP JUMP INVALID LOG2 PUSH5 0x6970667358 0x22 SLT KECCAK256 PUSH10 0x9AC6274C00E2E69AD657 0xDB 0x5F STATICCALL PUSH7 0x4D25E0CFA6F767 SWAP7 0x26 PUSH31 0xDACE8E5233DBD764736F6C6343000812003300000000000000000000000000 "
				},
				"gasEstimates": {
					"creation": {
						"codeDepositCost": "622200",
						"executionCost": "infinite",
						"totalCost": "infinite"
					},
					"external": {
						"castVote(uint256)": "infinite",
						"seeResults()": "infinite",
						"topic()": "infinite"
					}
				},
				"methodIdentifiers": {
					"castVote(uint256)": "3eb76b9c",
					"seeResults()": "bc9cd2ce",
					"topic()": "bf63a577"
				}
			},
			"storageLayout": {
				"storage": [
					{
						"astId": 3,
						"contract": "contracts/week_1/votingmechanism.sol:Poll",
						"label": "topic",
						"offset": 0,
						"slot": "0",
						"type": "t_string_storage"
					},
					{
						"astId": 9,
						"contract": "contracts/week_1/votingmechanism.sol:Poll",
						"label": "duration",
						"offset": 0,
						"slot": "1",
						"type": "t_uint256"
					},
					{
						"astId": 13,
						"contract": "contracts/week_1/votingmechanism.sol:Poll",
						"label": "voted",
						"offset": 0,
						"slot": "2",
						"type": "t_mapping(t_address,t_bool)"
					},
					{
						"astId": 28,
						"contract": "contracts/week_1/votingmechanism.sol:Poll",
						"label": "options",
						"offset": 0,
						"slot": "3",
						"type": "t_array(t_struct(Option)24_storage)dyn_storage"
					}
				],
				"types": {
					"t_address": {
						"encoding": "inplace",
						"label": "address",
						"numberOfBytes": "20"
					},
					"t_array(t_struct(Option)24_storage)dyn_storage": {
						"base": "t_struct(Option)24_storage",
						"encoding": "dynamic_array",
						"label": "struct Poll.Option[]",
						"numberOfBytes": "32"
					},
					"t_bool": {
						"encoding": "inplace",
						"label": "bool",
						"numberOfBytes": "1"
					},
					"t_mapping(t_address,t_bool)": {
						"encoding": "mapping",
						"key": "t_address",
						"label": "mapping(address => bool)",
						"numberOfBytes": "32",
						"value": "t_bool"
					},
					"t_string_storage": {
						"encoding": "bytes",
						"label": "string",
						"numberOfBytes": "32"
					},
					"t_struct(Option)24_storage": {
						"encoding": "inplace",
						"label": "struct Poll.Option",
						"members": [
							{
								"astId": 19,
								"contract": "contracts/week_1/votingmechanism.sol:Poll",
								"label": "id",
								"offset": 0,
								"slot": "0",
								"type": "t_uint256"
							},
							{
								"astId": 21,
								"contract": "contracts/week_1/votingmechanism.sol:Poll",
								"label": "title",
								"offset": 0,
								"slot": "1",
								"type": "t_string_storage"
							},
							{
								"astId": 23,
								"contract": "contracts/week_1/votingmechanism.sol:Poll",
								"label": "votes",
								"offset": 0,
								"slot": "2",
								"type": "t_uint256"
							}
						],
						"numberOfBytes": "96"
					},
					"t_uint256": {
						"encoding": "inplace",
						"label": "uint256",
						"numberOfBytes": "32"
					}
				}
			},
			"userdoc": {
				"kind": "user",
				"methods": {},
				"version": 1
			}
		}
	}
}