{
	"contracts/encodedecode.sol": {
		"EncodeDecode": {
			"abi": [
				{
					"inputs": [
						{
							"internalType": "bytes",
							"name": "bytesData",
							"type": "bytes"
						}
					],
					"name": "decode",
					"outputs": [
						{
							"internalType": "uint256",
							"name": "x",
							"type": "uint256"
						},
						{
							"internalType": "address",
							"name": "addr",
							"type": "address"
						},
						{
							"internalType": "uint256[]",
							"name": "arr",
							"type": "uint256[]"
						}
					],
					"stateMutability": "pure",
					"type": "function"
				},
				{
					"inputs": [
						{
							"internalType": "uint256",
							"name": "x",
							"type": "uint256"
						},
						{
							"internalType": "address",
							"name": "addr",
							"type": "address"
						},
						{
							"internalType": "uint256[]",
							"name": "arr",
							"type": "uint256[]"
						}
					],
					"name": "encode",
					"outputs": [
						{
							"internalType": "bytes",
							"name": "",
							"type": "bytes"
						}
					],
					"stateMutability": "pure",
					"type": "function"
				}
			],
			"devdoc": {
				"kind": "dev",
				"methods": {},
				"version": 1
			},
			"evm": {
				"assembly": "    /* \"contracts/encodedecode.sol\":60:556  contract EncodeDecode {... */\n  mstore(0x40, 0x80)\n  callvalue\n  dup1\n  iszero\n  tag_1\n  jumpi\n  0x00\n  dup1\n  revert\ntag_1:\n  pop\n  dataSize(sub_0)\n  dup1\n  dataOffset(sub_0)\n  0x00\n  codecopy\n  0x00\n  return\nstop\n\nsub_0: assembly {\n        /* \"contracts/encodedecode.sol\":60:556  contract EncodeDecode {... */\n      mstore(0x40, 0x80)\n      callvalue\n      dup1\n      iszero\n      tag_1\n      jumpi\n      0x00\n      dup1\n      revert\n    tag_1:\n      pop\n      jumpi(tag_2, lt(calldatasize, 0x04))\n      shr(0xe0, calldataload(0x00))\n      dup1\n      0x72b9d249\n      eq\n      tag_3\n      jumpi\n      dup1\n      0xe5c5e9a3\n      eq\n      tag_4\n      jumpi\n    tag_2:\n      0x00\n      dup1\n      revert\n        /* \"contracts/encodedecode.sol\":89:271  function encode(... */\n    tag_3:\n      tag_5\n      0x04\n      dup1\n      calldatasize\n      sub\n      dup2\n      add\n      swap1\n      tag_6\n      swap2\n      swap1\n      tag_7\n      jump\t// in\n    tag_6:\n      tag_8\n      jump\t// in\n    tag_5:\n      mload(0x40)\n      tag_9\n      swap2\n      swap1\n      tag_10\n      jump\t// in\n    tag_9:\n      mload(0x40)\n      dup1\n      swap2\n      sub\n      swap1\n      return\n        /* \"contracts/encodedecode.sol\":279:553  function decode (bytes calldata bytesData)... */\n    tag_4:\n      tag_11\n      0x04\n      dup1\n      calldatasize\n      sub\n      dup2\n      add\n      swap1\n      tag_12\n      swap2\n      swap1\n      tag_13\n      jump\t// in\n    tag_12:\n      tag_14\n      jump\t// in\n    tag_11:\n      mload(0x40)\n      tag_15\n      swap4\n      swap3\n      swap2\n      swap1\n      tag_16\n      jump\t// in\n    tag_15:\n      mload(0x40)\n      dup1\n      swap2\n      sub\n      swap1\n      return\n        /* \"contracts/encodedecode.sol\":89:271  function encode(... */\n    tag_8:\n        /* \"contracts/encodedecode.sol\":207:219  bytes memory */\n      0x60\n        /* \"contracts/encodedecode.sol\":250:251  x */\n      dup5\n        /* \"contracts/encodedecode.sol\":253:257  addr */\n      dup5\n        /* \"contracts/encodedecode.sol\":259:262  arr */\n      dup5\n      dup5\n        /* \"contracts/encodedecode.sol\":239:263  abi.encode(x, addr, arr) */\n      add(0x20, mload(0x40))\n      tag_18\n      swap5\n      swap4\n      swap3\n      swap2\n      swap1\n      tag_19\n      jump\t// in\n    tag_18:\n      mload(0x40)\n      0x20\n      dup2\n      dup4\n      sub\n      sub\n      dup2\n      mstore\n      swap1\n      0x40\n      mstore\n        /* \"contracts/encodedecode.sol\":232:263  return abi.encode(x, addr, arr) */\n      swap1\n      pop\n        /* \"contracts/encodedecode.sol\":89:271  function encode(... */\n      swap5\n      swap4\n      pop\n      pop\n      pop\n      pop\n      jump\t// out\n        /* \"contracts/encodedecode.sol\":279:553  function decode (bytes calldata bytesData)... */\n    tag_14:\n        /* \"contracts/encodedecode.sol\":386:392  uint x */\n      0x00\n        /* \"contracts/encodedecode.sol\":407:419  address addr */\n      dup1\n        /* \"contracts/encodedecode.sol\":434:451  uint[] memory arr */\n      0x60\n        /* \"contracts/encodedecode.sol\":506:515  bytesData */\n      dup5\n      dup5\n        /* \"contracts/encodedecode.sol\":495:541  abi.decode(bytesData, (uint, address, uint[])) */\n      dup2\n      add\n      swap1\n      tag_21\n      swap2\n      swap1\n      tag_22\n      jump\t// in\n    tag_21:\n        /* \"contracts/encodedecode.sol\":478:541  (x, addr, arr) = abi.decode(bytesData, (uint, address, uint[])) */\n      dup1\n      swap4\n      pop\n      dup2\n      swap5\n      pop\n      dup3\n      swap6\n      pop\n      pop\n      pop\n      pop\n        /* \"contracts/encodedecode.sol\":279:553  function decode (bytes calldata bytesData)... */\n      swap3\n      pop\n      swap3\n      pop\n      swap3\n      jump\t// out\n        /* \"#utility.yul\":7:82   */\n    tag_23:\n        /* \"#utility.yul\":40:46   */\n      0x00\n        /* \"#utility.yul\":73:75   */\n      0x40\n        /* \"#utility.yul\":67:76   */\n      mload\n        /* \"#utility.yul\":57:76   */\n      swap1\n      pop\n        /* \"#utility.yul\":7:82   */\n      swap1\n      jump\t// out\n        /* \"#utility.yul\":88:205   */\n    tag_24:\n        /* \"#utility.yul\":197:198   */\n      0x00\n        /* \"#utility.yul\":194:195   */\n      dup1\n        /* \"#utility.yul\":187:199   */\n      revert\n        /* \"#utility.yul\":211:328   */\n    tag_25:\n        /* \"#utility.yul\":320:321   */\n      0x00\n        /* \"#utility.yul\":317:318   */\n      dup1\n        /* \"#utility.yul\":310:322   */\n      revert\n        /* \"#utility.yul\":334:411   */\n    tag_26:\n        /* \"#utility.yul\":371:378   */\n      0x00\n        /* \"#utility.yul\":400:405   */\n      dup2\n        /* \"#utility.yul\":389:405   */\n      swap1\n      pop\n        /* \"#utility.yul\":334:411   */\n      swap2\n      swap1\n      pop\n      jump\t// out\n        /* \"#utility.yul\":417:539   */\n    tag_27:\n        /* \"#utility.yul\":490:514   */\n      tag_70\n        /* \"#utility.yul\":508:513   */\n      dup2\n        /* \"#utility.yul\":490:514   */\n      tag_26\n      jump\t// in\n    tag_70:\n        /* \"#utility.yul\":483:488   */\n      dup2\n        /* \"#utility.yul\":480:515   */\n      eq\n        /* \"#utility.yul\":470:533   */\n      tag_71\n      jumpi\n        /* \"#utility.yul\":529:530   */\n      0x00\n        /* \"#utility.yul\":526:527   */\n      dup1\n        /* \"#utility.yul\":519:531   */\n      revert\n        /* \"#utility.yul\":470:533   */\n    tag_71:\n        /* \"#utility.yul\":417:539   */\n      pop\n      jump\t// out\n        /* \"#utility.yul\":545:684   */\n    tag_28:\n        /* \"#utility.yul\":591:596   */\n      0x00\n        /* \"#utility.yul\":629:635   */\n      dup2\n        /* \"#utility.yul\":616:636   */\n      calldataload\n        /* \"#utility.yul\":607:636   */\n      swap1\n      pop\n        /* \"#utility.yul\":645:678   */\n      tag_73\n        /* \"#utility.yul\":672:677   */\n      dup2\n        /* \"#utility.yul\":645:678   */\n      tag_27\n      jump\t// in\n    tag_73:\n        /* \"#utility.yul\":545:684   */\n      swap3\n      swap2\n      pop\n      pop\n      jump\t// out\n        /* \"#utility.yul\":690:816   */\n    tag_29:\n        /* \"#utility.yul\":727:734   */\n      0x00\n        /* \"#utility.yul\":767:809   */\n      0xffffffffffffffffffffffffffffffffffffffff\n        /* \"#utility.yul\":760:765   */\n      dup3\n        /* \"#utility.yul\":756:810   */\n      and\n        /* \"#utility.yul\":745:810   */\n      swap1\n      pop\n        /* \"#utility.yul\":690:816   */\n      swap2\n      swap1\n      pop\n      jump\t// out\n        /* \"#utility.yul\":822:918   */\n    tag_30:\n        /* \"#utility.yul\":859:866   */\n      0x00\n        /* \"#utility.yul\":888:912   */\n      tag_76\n        /* \"#utility.yul\":906:911   */\n      dup3\n        /* \"#utility.yul\":888:912   */\n      tag_29\n      jump\t// in\n    tag_76:\n        /* \"#utility.yul\":877:912   */\n      swap1\n      pop\n        /* \"#utility.yul\":822:918   */\n      swap2\n      swap1\n      pop\n      jump\t// out\n        /* \"#utility.yul\":924:1046   */\n    tag_31:\n        /* \"#utility.yul\":997:1021   */\n      tag_78\n        /* \"#utility.yul\":1015:1020   */\n      dup2\n        /* \"#utility.yul\":997:1021   */\n      tag_30\n      jump\t// in\n    tag_78:\n        /* \"#utility.yul\":990:995   */\n      dup2\n        /* \"#utility.yul\":987:1022   */\n      eq\n        /* \"#utility.yul\":977:1040   */\n      tag_79\n      jumpi\n        /* \"#utility.yul\":1036:1037   */\n      0x00\n        /* \"#utility.yul\":1033:1034   */\n      dup1\n        /* \"#utility.yul\":1026:1038   */\n      revert\n        /* \"#utility.yul\":977:1040   */\n    tag_79:\n        /* \"#utility.yul\":924:1046   */\n      pop\n      jump\t// out\n        /* \"#utility.yul\":1052:1191   */\n    tag_32:\n        /* \"#utility.yul\":1098:1103   */\n      0x00\n        /* \"#utility.yul\":1136:1142   */\n      dup2\n        /* \"#utility.yul\":1123:1143   */\n      calldataload\n        /* \"#utility.yul\":1114:1143   */\n      swap1\n      pop\n        /* \"#utility.yul\":1152:1185   */\n      tag_81\n        /* \"#utility.yul\":1179:1184   */\n      dup2\n        /* \"#utility.yul\":1152:1185   */\n      tag_31\n      jump\t// in\n    tag_81:\n        /* \"#utility.yul\":1052:1191   */\n      swap3\n      swap2\n      pop\n      pop\n      jump\t// out\n        /* \"#utility.yul\":1197:1314   */\n    tag_33:\n        /* \"#utility.yul\":1306:1307   */\n      0x00\n        /* \"#utility.yul\":1303:1304   */\n      dup1\n        /* \"#utility.yul\":1296:1308   */\n      revert\n        /* \"#utility.yul\":1320:1437   */\n    tag_34:\n        /* \"#utility.yul\":1429:1430   */\n      0x00\n        /* \"#utility.yul\":1426:1427   */\n      dup1\n        /* \"#utility.yul\":1419:1431   */\n      revert\n        /* \"#utility.yul\":1443:1560   */\n    tag_35:\n        /* \"#utility.yul\":1552:1553   */\n      0x00\n        /* \"#utility.yul\":1549:1550   */\n      dup1\n        /* \"#utility.yul\":1542:1554   */\n      revert\n        /* \"#utility.yul\":1583:2151   */\n    tag_36:\n        /* \"#utility.yul\":1656:1664   */\n      0x00\n        /* \"#utility.yul\":1666:1672   */\n      dup1\n        /* \"#utility.yul\":1716:1719   */\n      dup4\n        /* \"#utility.yul\":1709:1713   */\n      0x1f\n        /* \"#utility.yul\":1701:1707   */\n      dup5\n        /* \"#utility.yul\":1697:1714   */\n      add\n        /* \"#utility.yul\":1693:1720   */\n      slt\n        /* \"#utility.yul\":1683:1805   */\n      tag_86\n      jumpi\n        /* \"#utility.yul\":1724:1803   */\n      tag_87\n      tag_33\n      jump\t// in\n    tag_87:\n        /* \"#utility.yul\":1683:1805   */\n    tag_86:\n        /* \"#utility.yul\":1837:1843   */\n      dup3\n        /* \"#utility.yul\":1824:1844   */\n      calldataload\n        /* \"#utility.yul\":1814:1844   */\n      swap1\n      pop\n        /* \"#utility.yul\":1867:1885   */\n      0xffffffffffffffff\n        /* \"#utility.yul\":1859:1865   */\n      dup2\n        /* \"#utility.yul\":1856:1886   */\n      gt\n        /* \"#utility.yul\":1853:1970   */\n      iszero\n      tag_88\n      jumpi\n        /* \"#utility.yul\":1889:1968   */\n      tag_89\n      tag_34\n      jump\t// in\n    tag_89:\n        /* \"#utility.yul\":1853:1970   */\n    tag_88:\n        /* \"#utility.yul\":2003:2007   */\n      0x20\n        /* \"#utility.yul\":1995:2001   */\n      dup4\n        /* \"#utility.yul\":1991:2008   */\n      add\n        /* \"#utility.yul\":1979:2008   */\n      swap2\n      pop\n        /* \"#utility.yul\":2057:2060   */\n      dup4\n        /* \"#utility.yul\":2049:2053   */\n      0x20\n        /* \"#utility.yul\":2041:2047   */\n      dup3\n        /* \"#utility.yul\":2037:2054   */\n      mul\n        /* \"#utility.yul\":2027:2035   */\n      dup4\n        /* \"#utility.yul\":2023:2055   */\n      add\n        /* \"#utility.yul\":2020:2061   */\n      gt\n        /* \"#utility.yul\":2017:2145   */\n      iszero\n      tag_90\n      jumpi\n        /* \"#utility.yul\":2064:2143   */\n      tag_91\n      tag_35\n      jump\t// in\n    tag_91:\n        /* \"#utility.yul\":2017:2145   */\n    tag_90:\n        /* \"#utility.yul\":1583:2151   */\n      swap3\n      pop\n      swap3\n      swap1\n      pop\n      jump\t// out\n        /* \"#utility.yul\":2157:3006   */\n    tag_7:\n        /* \"#utility.yul\":2261:2267   */\n      0x00\n        /* \"#utility.yul\":2269:2275   */\n      dup1\n        /* \"#utility.yul\":2277:2283   */\n      0x00\n        /* \"#utility.yul\":2285:2291   */\n      dup1\n        /* \"#utility.yul\":2334:2336   */\n      0x60\n        /* \"#utility.yul\":2322:2331   */\n      dup6\n        /* \"#utility.yul\":2313:2320   */\n      dup8\n        /* \"#utility.yul\":2309:2332   */\n      sub\n        /* \"#utility.yul\":2305:2337   */\n      slt\n        /* \"#utility.yul\":2302:2421   */\n      iszero\n      tag_93\n      jumpi\n        /* \"#utility.yul\":2340:2419   */\n      tag_94\n      tag_24\n      jump\t// in\n    tag_94:\n        /* \"#utility.yul\":2302:2421   */\n    tag_93:\n        /* \"#utility.yul\":2460:2461   */\n      0x00\n        /* \"#utility.yul\":2485:2538   */\n      tag_95\n        /* \"#utility.yul\":2530:2537   */\n      dup8\n        /* \"#utility.yul\":2521:2527   */\n      dup3\n        /* \"#utility.yul\":2510:2519   */\n      dup9\n        /* \"#utility.yul\":2506:2528   */\n      add\n        /* \"#utility.yul\":2485:2538   */\n      tag_28\n      jump\t// in\n    tag_95:\n        /* \"#utility.yul\":2475:2538   */\n      swap5\n      pop\n        /* \"#utility.yul\":2431:2548   */\n      pop\n        /* \"#utility.yul\":2587:2589   */\n      0x20\n        /* \"#utility.yul\":2613:2666   */\n      tag_96\n        /* \"#utility.yul\":2658:2665   */\n      dup8\n        /* \"#utility.yul\":2649:2655   */\n      dup3\n        /* \"#utility.yul\":2638:2647   */\n      dup9\n        /* \"#utility.yul\":2634:2656   */\n      add\n        /* \"#utility.yul\":2613:2666   */\n      tag_32\n      jump\t// in\n    tag_96:\n        /* \"#utility.yul\":2603:2666   */\n      swap4\n      pop\n        /* \"#utility.yul\":2558:2676   */\n      pop\n        /* \"#utility.yul\":2743:2745   */\n      0x40\n        /* \"#utility.yul\":2732:2741   */\n      dup6\n        /* \"#utility.yul\":2728:2746   */\n      add\n        /* \"#utility.yul\":2715:2747   */\n      calldataload\n        /* \"#utility.yul\":2774:2792   */\n      0xffffffffffffffff\n        /* \"#utility.yul\":2766:2772   */\n      dup2\n        /* \"#utility.yul\":2763:2793   */\n      gt\n        /* \"#utility.yul\":2760:2877   */\n      iszero\n      tag_97\n      jumpi\n        /* \"#utility.yul\":2796:2875   */\n      tag_98\n      tag_25\n      jump\t// in\n    tag_98:\n        /* \"#utility.yul\":2760:2877   */\n    tag_97:\n        /* \"#utility.yul\":2909:2989   */\n      tag_99\n        /* \"#utility.yul\":2981:2988   */\n      dup8\n        /* \"#utility.yul\":2972:2978   */\n      dup3\n        /* \"#utility.yul\":2961:2970   */\n      dup9\n        /* \"#utility.yul\":2957:2979   */\n      add\n        /* \"#utility.yul\":2909:2989   */\n      tag_36\n      jump\t// in\n    tag_99:\n        /* \"#utility.yul\":2891:2989   */\n      swap3\n      pop\n      swap3\n      pop\n        /* \"#utility.yul\":2686:2999   */\n      pop\n        /* \"#utility.yul\":2157:3006   */\n      swap3\n      swap6\n      swap2\n      swap5\n      pop\n      swap3\n      pop\n      jump\t// out\n        /* \"#utility.yul\":3012:3110   */\n    tag_37:\n        /* \"#utility.yul\":3063:3069   */\n      0x00\n        /* \"#utility.yul\":3097:3102   */\n      dup2\n        /* \"#utility.yul\":3091:3103   */\n      mload\n        /* \"#utility.yul\":3081:3103   */\n      swap1\n      pop\n        /* \"#utility.yul\":3012:3110   */\n      swap2\n      swap1\n      pop\n      jump\t// out\n        /* \"#utility.yul\":3116:3284   */\n    tag_38:\n        /* \"#utility.yul\":3199:3210   */\n      0x00\n        /* \"#utility.yul\":3233:3239   */\n      dup3\n        /* \"#utility.yul\":3228:3231   */\n      dup3\n        /* \"#utility.yul\":3221:3240   */\n      mstore\n        /* \"#utility.yul\":3273:3277   */\n      0x20\n        /* \"#utility.yul\":3268:3271   */\n      dup3\n        /* \"#utility.yul\":3264:3278   */\n      add\n        /* \"#utility.yul\":3249:3278   */\n      swap1\n      pop\n        /* \"#utility.yul\":3116:3284   */\n      swap3\n      swap2\n      pop\n      pop\n      jump\t// out\n        /* \"#utility.yul\":3290:3536   */\n    tag_39:\n        /* \"#utility.yul\":3371:3372   */\n      0x00\n        /* \"#utility.yul\":3381:3494   */\n    tag_103:\n        /* \"#utility.yul\":3395:3401   */\n      dup4\n        /* \"#utility.yul\":3392:3393   */\n      dup2\n        /* \"#utility.yul\":3389:3402   */\n      lt\n        /* \"#utility.yul\":3381:3494   */\n      iszero\n      tag_105\n      jumpi\n        /* \"#utility.yul\":3480:3481   */\n      dup1\n        /* \"#utility.yul\":3475:3478   */\n      dup3\n        /* \"#utility.yul\":3471:3482   */\n      add\n        /* \"#utility.yul\":3465:3483   */\n      mload\n        /* \"#utility.yul\":3461:3462   */\n      dup2\n        /* \"#utility.yul\":3456:3459   */\n      dup5\n        /* \"#utility.yul\":3452:3463   */\n      add\n        /* \"#utility.yul\":3445:3484   */\n      mstore\n        /* \"#utility.yul\":3417:3419   */\n      0x20\n        /* \"#utility.yul\":3414:3415   */\n      dup2\n        /* \"#utility.yul\":3410:3420   */\n      add\n        /* \"#utility.yul\":3405:3420   */\n      swap1\n      pop\n        /* \"#utility.yul\":3381:3494   */\n      jump(tag_103)\n    tag_105:\n        /* \"#utility.yul\":3528:3529   */\n      0x00\n        /* \"#utility.yul\":3519:3525   */\n      dup5\n        /* \"#utility.yul\":3514:3517   */\n      dup5\n        /* \"#utility.yul\":3510:3526   */\n      add\n        /* \"#utility.yul\":3503:3530   */\n      mstore\n        /* \"#utility.yul\":3352:3536   */\n      pop\n        /* \"#utility.yul\":3290:3536   */\n      pop\n      pop\n      pop\n      jump\t// out\n        /* \"#utility.yul\":3542:3644   */\n    tag_40:\n        /* \"#utility.yul\":3583:3589   */\n      0x00\n        /* \"#utility.yul\":3634:3636   */\n      0x1f\n        /* \"#utility.yul\":3630:3637   */\n      not\n        /* \"#utility.yul\":3625:3627   */\n      0x1f\n        /* \"#utility.yul\":3618:3623   */\n      dup4\n        /* \"#utility.yul\":3614:3628   */\n      add\n        /* \"#utility.yul\":3610:3638   */\n      and\n        /* \"#utility.yul\":3600:3638   */\n      swap1\n      pop\n        /* \"#utility.yul\":3542:3644   */\n      swap2\n      swap1\n      pop\n      jump\t// out\n        /* \"#utility.yul\":3650:4023   */\n    tag_41:\n        /* \"#utility.yul\":3736:3739   */\n      0x00\n        /* \"#utility.yul\":3764:3802   */\n      tag_108\n        /* \"#utility.yul\":3796:3801   */\n      dup3\n        /* \"#utility.yul\":3764:3802   */\n      tag_37\n      jump\t// in\n    tag_108:\n        /* \"#utility.yul\":3818:3888   */\n      tag_109\n        /* \"#utility.yul\":3881:3887   */\n      dup2\n        /* \"#utility.yul\":3876:3879   */\n      dup6\n        /* \"#utility.yul\":3818:3888   */\n      tag_38\n      jump\t// in\n    tag_109:\n        /* \"#utility.yul\":3811:3888   */\n      swap4\n      pop\n        /* \"#utility.yul\":3897:3962   */\n      tag_110\n        /* \"#utility.yul\":3955:3961   */\n      dup2\n        /* \"#utility.yul\":3950:3953   */\n      dup6\n        /* \"#utility.yul\":3943:3947   */\n      0x20\n        /* \"#utility.yul\":3936:3941   */\n      dup7\n        /* \"#utility.yul\":3932:3948   */\n      add\n        /* \"#utility.yul\":3897:3962   */\n      tag_39\n      jump\t// in\n    tag_110:\n        /* \"#utility.yul\":3987:4016   */\n      tag_111\n        /* \"#utility.yul\":4009:4015   */\n      dup2\n        /* \"#utility.yul\":3987:4016   */\n      tag_40\n      jump\t// in\n    tag_111:\n        /* \"#utility.yul\":3982:3985   */\n      dup5\n        /* \"#utility.yul\":3978:4017   */\n      add\n        /* \"#utility.yul\":3971:4017   */\n      swap2\n      pop\n        /* \"#utility.yul\":3740:4023   */\n      pop\n        /* \"#utility.yul\":3650:4023   */\n      swap3\n      swap2\n      pop\n      pop\n      jump\t// out\n        /* \"#utility.yul\":4029:4338   */\n    tag_10:\n        /* \"#utility.yul\":4140:4144   */\n      0x00\n        /* \"#utility.yul\":4178:4180   */\n      0x20\n        /* \"#utility.yul\":4167:4176   */\n      dup3\n        /* \"#utility.yul\":4163:4181   */\n      add\n        /* \"#utility.yul\":4155:4181   */\n      swap1\n      pop\n        /* \"#utility.yul\":4227:4236   */\n      dup2\n        /* \"#utility.yul\":4221:4225   */\n      dup2\n        /* \"#utility.yul\":4217:4237   */\n      sub\n        /* \"#utility.yul\":4213:4214   */\n      0x00\n        /* \"#utility.yul\":4202:4211   */\n      dup4\n        /* \"#utility.yul\":4198:4215   */\n      add\n        /* \"#utility.yul\":4191:4238   */\n      mstore\n        /* \"#utility.yul\":4255:4331   */\n      tag_113\n        /* \"#utility.yul\":4326:4330   */\n      dup2\n        /* \"#utility.yul\":4317:4323   */\n      dup5\n        /* \"#utility.yul\":4255:4331   */\n      tag_41\n      jump\t// in\n    tag_113:\n        /* \"#utility.yul\":4247:4331   */\n      swap1\n      pop\n        /* \"#utility.yul\":4029:4338   */\n      swap3\n      swap2\n      pop\n      pop\n      jump\t// out\n        /* \"#utility.yul\":4357:4909   */\n    tag_42:\n        /* \"#utility.yul\":4414:4422   */\n      0x00\n        /* \"#utility.yul\":4424:4430   */\n      dup1\n        /* \"#utility.yul\":4474:4477   */\n      dup4\n        /* \"#utility.yul\":4467:4471   */\n      0x1f\n        /* \"#utility.yul\":4459:4465   */\n      dup5\n        /* \"#utility.yul\":4455:4472   */\n      add\n        /* \"#utility.yul\":4451:4478   */\n      slt\n        /* \"#utility.yul\":4441:4563   */\n      tag_115\n      jumpi\n        /* \"#utility.yul\":4482:4561   */\n      tag_116\n      tag_33\n      jump\t// in\n    tag_116:\n        /* \"#utility.yul\":4441:4563   */\n    tag_115:\n        /* \"#utility.yul\":4595:4601   */\n      dup3\n        /* \"#utility.yul\":4582:4602   */\n      calldataload\n        /* \"#utility.yul\":4572:4602   */\n      swap1\n      pop\n        /* \"#utility.yul\":4625:4643   */\n      0xffffffffffffffff\n        /* \"#utility.yul\":4617:4623   */\n      dup2\n        /* \"#utility.yul\":4614:4644   */\n      gt\n        /* \"#utility.yul\":4611:4728   */\n      iszero\n      tag_117\n      jumpi\n        /* \"#utility.yul\":4647:4726   */\n      tag_118\n      tag_34\n      jump\t// in\n    tag_118:\n        /* \"#utility.yul\":4611:4728   */\n    tag_117:\n        /* \"#utility.yul\":4761:4765   */\n      0x20\n        /* \"#utility.yul\":4753:4759   */\n      dup4\n        /* \"#utility.yul\":4749:4766   */\n      add\n        /* \"#utility.yul\":4737:4766   */\n      swap2\n      pop\n        /* \"#utility.yul\":4815:4818   */\n      dup4\n        /* \"#utility.yul\":4807:4811   */\n      0x01\n        /* \"#utility.yul\":4799:4805   */\n      dup3\n        /* \"#utility.yul\":4795:4812   */\n      mul\n        /* \"#utility.yul\":4785:4793   */\n      dup4\n        /* \"#utility.yul\":4781:4813   */\n      add\n        /* \"#utility.yul\":4778:4819   */\n      gt\n        /* \"#utility.yul\":4775:4903   */\n      iszero\n      tag_119\n      jumpi\n        /* \"#utility.yul\":4822:4901   */\n      tag_120\n      tag_35\n      jump\t// in\n    tag_120:\n        /* \"#utility.yul\":4775:4903   */\n    tag_119:\n        /* \"#utility.yul\":4357:4909   */\n      swap3\n      pop\n      swap3\n      swap1\n      pop\n      jump\t// out\n        /* \"#utility.yul\":4915:5442   */\n    tag_13:\n        /* \"#utility.yul\":4985:4991   */\n      0x00\n        /* \"#utility.yul\":4993:4999   */\n      dup1\n        /* \"#utility.yul\":5042:5044   */\n      0x20\n        /* \"#utility.yul\":5030:5039   */\n      dup4\n        /* \"#utility.yul\":5021:5028   */\n      dup6\n        /* \"#utility.yul\":5017:5040   */\n      sub\n        /* \"#utility.yul\":5013:5045   */\n      slt\n        /* \"#utility.yul\":5010:5129   */\n      iszero\n      tag_122\n      jumpi\n        /* \"#utility.yul\":5048:5127   */\n      tag_123\n      tag_24\n      jump\t// in\n    tag_123:\n        /* \"#utility.yul\":5010:5129   */\n    tag_122:\n        /* \"#utility.yul\":5196:5197   */\n      0x00\n        /* \"#utility.yul\":5185:5194   */\n      dup4\n        /* \"#utility.yul\":5181:5198   */\n      add\n        /* \"#utility.yul\":5168:5199   */\n      calldataload\n        /* \"#utility.yul\":5226:5244   */\n      0xffffffffffffffff\n        /* \"#utility.yul\":5218:5224   */\n      dup2\n        /* \"#utility.yul\":5215:5245   */\n      gt\n        /* \"#utility.yul\":5212:5329   */\n      iszero\n      tag_124\n      jumpi\n        /* \"#utility.yul\":5248:5327   */\n      tag_125\n      tag_25\n      jump\t// in\n    tag_125:\n        /* \"#utility.yul\":5212:5329   */\n    tag_124:\n        /* \"#utility.yul\":5361:5425   */\n      tag_126\n        /* \"#utility.yul\":5417:5424   */\n      dup6\n        /* \"#utility.yul\":5408:5414   */\n      dup3\n        /* \"#utility.yul\":5397:5406   */\n      dup7\n        /* \"#utility.yul\":5393:5415   */\n      add\n        /* \"#utility.yul\":5361:5425   */\n      tag_42\n      jump\t// in\n    tag_126:\n        /* \"#utility.yul\":5343:5425   */\n      swap3\n      pop\n      swap3\n      pop\n        /* \"#utility.yul\":5139:5435   */\n      pop\n        /* \"#utility.yul\":4915:5442   */\n      swap3\n      pop\n      swap3\n      swap1\n      pop\n      jump\t// out\n        /* \"#utility.yul\":5448:5566   */\n    tag_43:\n        /* \"#utility.yul\":5535:5559   */\n      tag_128\n        /* \"#utility.yul\":5553:5558   */\n      dup2\n        /* \"#utility.yul\":5535:5559   */\n      tag_26\n      jump\t// in\n    tag_128:\n        /* \"#utility.yul\":5530:5533   */\n      dup3\n        /* \"#utility.yul\":5523:5560   */\n      mstore\n        /* \"#utility.yul\":5448:5566   */\n      pop\n      pop\n      jump\t// out\n        /* \"#utility.yul\":5572:5690   */\n    tag_44:\n        /* \"#utility.yul\":5659:5683   */\n      tag_130\n        /* \"#utility.yul\":5677:5682   */\n      dup2\n        /* \"#utility.yul\":5659:5683   */\n      tag_30\n      jump\t// in\n    tag_130:\n        /* \"#utility.yul\":5654:5657   */\n      dup3\n        /* \"#utility.yul\":5647:5684   */\n      mstore\n        /* \"#utility.yul\":5572:5690   */\n      pop\n      pop\n      jump\t// out\n        /* \"#utility.yul\":5696:5810   */\n    tag_45:\n        /* \"#utility.yul\":5763:5769   */\n      0x00\n        /* \"#utility.yul\":5797:5802   */\n      dup2\n        /* \"#utility.yul\":5791:5803   */\n      mload\n        /* \"#utility.yul\":5781:5803   */\n      swap1\n      pop\n        /* \"#utility.yul\":5696:5810   */\n      swap2\n      swap1\n      pop\n      jump\t// out\n        /* \"#utility.yul\":5816:6000   */\n    tag_46:\n        /* \"#utility.yul\":5915:5926   */\n      0x00\n        /* \"#utility.yul\":5949:5955   */\n      dup3\n        /* \"#utility.yul\":5944:5947   */\n      dup3\n        /* \"#utility.yul\":5937:5956   */\n      mstore\n        /* \"#utility.yul\":5989:5993   */\n      0x20\n        /* \"#utility.yul\":5984:5987   */\n      dup3\n        /* \"#utility.yul\":5980:5994   */\n      add\n        /* \"#utility.yul\":5965:5994   */\n      swap1\n      pop\n        /* \"#utility.yul\":5816:6000   */\n      swap3\n      swap2\n      pop\n      pop\n      jump\t// out\n        /* \"#utility.yul\":6006:6138   */\n    tag_47:\n        /* \"#utility.yul\":6073:6077   */\n      0x00\n        /* \"#utility.yul\":6096:6099   */\n      dup2\n        /* \"#utility.yul\":6088:6099   */\n      swap1\n      pop\n        /* \"#utility.yul\":6126:6130   */\n      0x20\n        /* \"#utility.yul\":6121:6124   */\n      dup3\n        /* \"#utility.yul\":6117:6131   */\n      add\n        /* \"#utility.yul\":6109:6131   */\n      swap1\n      pop\n        /* \"#utility.yul\":6006:6138   */\n      swap2\n      swap1\n      pop\n      jump\t// out\n        /* \"#utility.yul\":6144:6252   */\n    tag_48:\n        /* \"#utility.yul\":6221:6245   */\n      tag_135\n        /* \"#utility.yul\":6239:6244   */\n      dup2\n        /* \"#utility.yul\":6221:6245   */\n      tag_26\n      jump\t// in\n    tag_135:\n        /* \"#utility.yul\":6216:6219   */\n      dup3\n        /* \"#utility.yul\":6209:6246   */\n      mstore\n        /* \"#utility.yul\":6144:6252   */\n      pop\n      pop\n      jump\t// out\n        /* \"#utility.yul\":6258:6437   */\n    tag_49:\n        /* \"#utility.yul\":6327:6337   */\n      0x00\n        /* \"#utility.yul\":6348:6394   */\n      tag_137\n        /* \"#utility.yul\":6390:6393   */\n      dup4\n        /* \"#utility.yul\":6382:6388   */\n      dup4\n        /* \"#utility.yul\":6348:6394   */\n      tag_48\n      jump\t// in\n    tag_137:\n        /* \"#utility.yul\":6426:6430   */\n      0x20\n        /* \"#utility.yul\":6421:6424   */\n      dup4\n        /* \"#utility.yul\":6417:6431   */\n      add\n        /* \"#utility.yul\":6403:6431   */\n      swap1\n      pop\n        /* \"#utility.yul\":6258:6437   */\n      swap3\n      swap2\n      pop\n      pop\n      jump\t// out\n        /* \"#utility.yul\":6443:6556   */\n    tag_50:\n        /* \"#utility.yul\":6513:6517   */\n      0x00\n        /* \"#utility.yul\":6545:6549   */\n      0x20\n        /* \"#utility.yul\":6540:6543   */\n      dup3\n        /* \"#utility.yul\":6536:6550   */\n      add\n        /* \"#utility.yul\":6528:6550   */\n      swap1\n      pop\n        /* \"#utility.yul\":6443:6556   */\n      swap2\n      swap1\n      pop\n      jump\t// out\n        /* \"#utility.yul\":6592:7324   */\n    tag_51:\n        /* \"#utility.yul\":6711:6714   */\n      0x00\n        /* \"#utility.yul\":6740:6794   */\n      tag_140\n        /* \"#utility.yul\":6788:6793   */\n      dup3\n        /* \"#utility.yul\":6740:6794   */\n      tag_45\n      jump\t// in\n    tag_140:\n        /* \"#utility.yul\":6810:6896   */\n      tag_141\n        /* \"#utility.yul\":6889:6895   */\n      dup2\n        /* \"#utility.yul\":6884:6887   */\n      dup6\n        /* \"#utility.yul\":6810:6896   */\n      tag_46\n      jump\t// in\n    tag_141:\n        /* \"#utility.yul\":6803:6896   */\n      swap4\n      pop\n        /* \"#utility.yul\":6920:6976   */\n      tag_142\n        /* \"#utility.yul\":6970:6975   */\n      dup4\n        /* \"#utility.yul\":6920:6976   */\n      tag_47\n      jump\t// in\n    tag_142:\n        /* \"#utility.yul\":6999:7006   */\n      dup1\n        /* \"#utility.yul\":7030:7031   */\n      0x00\n        /* \"#utility.yul\":7015:7299   */\n    tag_143:\n        /* \"#utility.yul\":7040:7046   */\n      dup4\n        /* \"#utility.yul\":7037:7038   */\n      dup2\n        /* \"#utility.yul\":7034:7047   */\n      lt\n        /* \"#utility.yul\":7015:7299   */\n      iszero\n      tag_145\n      jumpi\n        /* \"#utility.yul\":7116:7122   */\n      dup2\n        /* \"#utility.yul\":7110:7123   */\n      mload\n        /* \"#utility.yul\":7143:7206   */\n      tag_146\n        /* \"#utility.yul\":7202:7205   */\n      dup9\n        /* \"#utility.yul\":7187:7200   */\n      dup3\n        /* \"#utility.yul\":7143:7206   */\n      tag_49\n      jump\t// in\n    tag_146:\n        /* \"#utility.yul\":7136:7206   */\n      swap8\n      pop\n        /* \"#utility.yul\":7229:7289   */\n      tag_147\n        /* \"#utility.yul\":7282:7288   */\n      dup4\n        /* \"#utility.yul\":7229:7289   */\n      tag_50\n      jump\t// in\n    tag_147:\n        /* \"#utility.yul\":7219:7289   */\n      swap3\n      pop\n        /* \"#utility.yul\":7075:7299   */\n      pop\n        /* \"#utility.yul\":7062:7063   */\n      0x01\n        /* \"#utility.yul\":7059:7060   */\n      dup2\n        /* \"#utility.yul\":7055:7064   */\n      add\n        /* \"#utility.yul\":7050:7064   */\n      swap1\n      pop\n        /* \"#utility.yul\":7015:7299   */\n      jump(tag_143)\n    tag_145:\n        /* \"#utility.yul\":7019:7033   */\n      pop\n        /* \"#utility.yul\":7315:7318   */\n      dup6\n        /* \"#utility.yul\":7308:7318   */\n      swap4\n      pop\n        /* \"#utility.yul\":6716:7324   */\n      pop\n      pop\n      pop\n        /* \"#utility.yul\":6592:7324   */\n      swap3\n      swap2\n      pop\n      pop\n      jump\t// out\n        /* \"#utility.yul\":7330:7923   */\n    tag_16:\n        /* \"#utility.yul\":7529:7533   */\n      0x00\n        /* \"#utility.yul\":7567:7569   */\n      0x60\n        /* \"#utility.yul\":7556:7565   */\n      dup3\n        /* \"#utility.yul\":7552:7570   */\n      add\n        /* \"#utility.yul\":7544:7570   */\n      swap1\n      pop\n        /* \"#utility.yul\":7580:7651   */\n      tag_149\n        /* \"#utility.yul\":7648:7649   */\n      0x00\n        /* \"#utility.yul\":7637:7646   */\n      dup4\n        /* \"#utility.yul\":7633:7650   */\n      add\n        /* \"#utility.yul\":7624:7630   */\n      dup7\n        /* \"#utility.yul\":7580:7651   */\n      tag_43\n      jump\t// in\n    tag_149:\n        /* \"#utility.yul\":7661:7733   */\n      tag_150\n        /* \"#utility.yul\":7729:7731   */\n      0x20\n        /* \"#utility.yul\":7718:7727   */\n      dup4\n        /* \"#utility.yul\":7714:7732   */\n      add\n        /* \"#utility.yul\":7705:7711   */\n      dup6\n        /* \"#utility.yul\":7661:7733   */\n      tag_44\n      jump\t// in\n    tag_150:\n        /* \"#utility.yul\":7780:7789   */\n      dup2\n        /* \"#utility.yul\":7774:7778   */\n      dup2\n        /* \"#utility.yul\":7770:7790   */\n      sub\n        /* \"#utility.yul\":7765:7767   */\n      0x40\n        /* \"#utility.yul\":7754:7763   */\n      dup4\n        /* \"#utility.yul\":7750:7768   */\n      add\n        /* \"#utility.yul\":7743:7791   */\n      mstore\n        /* \"#utility.yul\":7808:7916   */\n      tag_151\n        /* \"#utility.yul\":7911:7915   */\n      dup2\n        /* \"#utility.yul\":7902:7908   */\n      dup5\n        /* \"#utility.yul\":7808:7916   */\n      tag_51\n      jump\t// in\n    tag_151:\n        /* \"#utility.yul\":7800:7916   */\n      swap1\n      pop\n        /* \"#utility.yul\":7330:7923   */\n      swap5\n      swap4\n      pop\n      pop\n      pop\n      pop\n      jump\t// out\n        /* \"#utility.yul\":7929:8046   */\n    tag_52:\n        /* \"#utility.yul\":8038:8039   */\n      0x00\n        /* \"#utility.yul\":8035:8036   */\n      dup1\n        /* \"#utility.yul\":8028:8040   */\n      revert\n        /* \"#utility.yul\":8052:8150   */\n    tag_53:\n        /* \"#utility.yul\":8136:8142   */\n      dup3\n        /* \"#utility.yul\":8131:8134   */\n      dup2\n        /* \"#utility.yul\":8126:8129   */\n      dup4\n        /* \"#utility.yul\":8113:8143   */\n      calldatacopy\n        /* \"#utility.yul\":8052:8150   */\n      pop\n      pop\n      pop\n      jump\t// out\n        /* \"#utility.yul\":8186:8723   */\n    tag_54:\n        /* \"#utility.yul\":8314:8317   */\n      0x00\n        /* \"#utility.yul\":8335:8421   */\n      tag_155\n        /* \"#utility.yul\":8414:8420   */\n      dup4\n        /* \"#utility.yul\":8409:8412   */\n      dup6\n        /* \"#utility.yul\":8335:8421   */\n      tag_46\n      jump\t// in\n    tag_155:\n        /* \"#utility.yul\":8328:8421   */\n      swap4\n      pop\n        /* \"#utility.yul\":8445:8511   */\n      0x07ffffffffffffffffffffffffffffffffffffffffffffffffffffffffffffff\n        /* \"#utility.yul\":8437:8443   */\n      dup4\n        /* \"#utility.yul\":8434:8512   */\n      gt\n        /* \"#utility.yul\":8431:8596   */\n      iszero\n      tag_156\n      jumpi\n        /* \"#utility.yul\":8515:8594   */\n      tag_157\n      tag_52\n      jump\t// in\n    tag_157:\n        /* \"#utility.yul\":8431:8596   */\n    tag_156:\n        /* \"#utility.yul\":8627:8631   */\n      0x20\n        /* \"#utility.yul\":8619:8625   */\n      dup4\n        /* \"#utility.yul\":8615:8632   */\n      mul\n        /* \"#utility.yul\":8605:8632   */\n      swap3\n      pop\n        /* \"#utility.yul\":8642:8685   */\n      tag_158\n        /* \"#utility.yul\":8678:8684   */\n      dup4\n        /* \"#utility.yul\":8673:8676   */\n      dup6\n        /* \"#utility.yul\":8666:8671   */\n      dup5\n        /* \"#utility.yul\":8642:8685   */\n      tag_53\n      jump\t// in\n    tag_158:\n        /* \"#utility.yul\":8710:8716   */\n      dup3\n        /* \"#utility.yul\":8705:8708   */\n      dup5\n        /* \"#utility.yul\":8701:8717   */\n      add\n        /* \"#utility.yul\":8694:8717   */\n      swap1\n      pop\n        /* \"#utility.yul\":8186:8723   */\n      swap4\n      swap3\n      pop\n      pop\n      pop\n      jump\t// out\n        /* \"#utility.yul\":8729:9342   */\n    tag_19:\n        /* \"#utility.yul\":8938:8942   */\n      0x00\n        /* \"#utility.yul\":8976:8978   */\n      0x60\n        /* \"#utility.yul\":8965:8974   */\n      dup3\n        /* \"#utility.yul\":8961:8979   */\n      add\n        /* \"#utility.yul\":8953:8979   */\n      swap1\n      pop\n        /* \"#utility.yul\":8989:9060   */\n      tag_160\n        /* \"#utility.yul\":9057:9058   */\n      0x00\n        /* \"#utility.yul\":9046:9055   */\n      dup4\n        /* \"#utility.yul\":9042:9059   */\n      add\n        /* \"#utility.yul\":9033:9039   */\n      dup8\n        /* \"#utility.yul\":8989:9060   */\n      tag_43\n      jump\t// in\n    tag_160:\n        /* \"#utility.yul\":9070:9142   */\n      tag_161\n        /* \"#utility.yul\":9138:9140   */\n      0x20\n        /* \"#utility.yul\":9127:9136   */\n      dup4\n        /* \"#utility.yul\":9123:9141   */\n      add\n        /* \"#utility.yul\":9114:9120   */\n      dup7\n        /* \"#utility.yul\":9070:9142   */\n      tag_44\n      jump\t// in\n    tag_161:\n        /* \"#utility.yul\":9189:9198   */\n      dup2\n        /* \"#utility.yul\":9183:9187   */\n      dup2\n        /* \"#utility.yul\":9179:9199   */\n      sub\n        /* \"#utility.yul\":9174:9176   */\n      0x40\n        /* \"#utility.yul\":9163:9172   */\n      dup4\n        /* \"#utility.yul\":9159:9177   */\n      add\n        /* \"#utility.yul\":9152:9200   */\n      mstore\n        /* \"#utility.yul\":9217:9335   */\n      tag_162\n        /* \"#utility.yul\":9330:9334   */\n      dup2\n        /* \"#utility.yul\":9321:9327   */\n      dup5\n        /* \"#utility.yul\":9313:9319   */\n      dup7\n        /* \"#utility.yul\":9217:9335   */\n      tag_54\n      jump\t// in\n    tag_162:\n        /* \"#utility.yul\":9209:9335   */\n      swap1\n      pop\n        /* \"#utility.yul\":8729:9342   */\n      swap6\n      swap5\n      pop\n      pop\n      pop\n      pop\n      pop\n      jump\t// out\n        /* \"#utility.yul\":9348:9452   */\n    tag_55:\n        /* \"#utility.yul\":9393:9400   */\n      0x00\n        /* \"#utility.yul\":9422:9446   */\n      tag_164\n        /* \"#utility.yul\":9440:9445   */\n      dup3\n        /* \"#utility.yul\":9422:9446   */\n      tag_29\n      jump\t// in\n    tag_164:\n        /* \"#utility.yul\":9411:9446   */\n      swap1\n      pop\n        /* \"#utility.yul\":9348:9452   */\n      swap2\n      swap1\n      pop\n      jump\t// out\n        /* \"#utility.yul\":9458:9596   */\n    tag_56:\n        /* \"#utility.yul\":9539:9571   */\n      tag_166\n        /* \"#utility.yul\":9565:9570   */\n      dup2\n        /* \"#utility.yul\":9539:9571   */\n      tag_55\n      jump\t// in\n    tag_166:\n        /* \"#utility.yul\":9532:9537   */\n      dup2\n        /* \"#utility.yul\":9529:9572   */\n      eq\n        /* \"#utility.yul\":9519:9590   */\n      tag_167\n      jumpi\n        /* \"#utility.yul\":9586:9587   */\n      0x00\n        /* \"#utility.yul\":9583:9584   */\n      dup1\n        /* \"#utility.yul\":9576:9588   */\n      revert\n        /* \"#utility.yul\":9519:9590   */\n    tag_167:\n        /* \"#utility.yul\":9458:9596   */\n      pop\n      jump\t// out\n        /* \"#utility.yul\":9602:9757   */\n    tag_57:\n        /* \"#utility.yul\":9656:9661   */\n      0x00\n        /* \"#utility.yul\":9694:9700   */\n      dup2\n        /* \"#utility.yul\":9681:9701   */\n      calldataload\n        /* \"#utility.yul\":9672:9701   */\n      swap1\n      pop\n        /* \"#utility.yul\":9710:9751   */\n      tag_169\n        /* \"#utility.yul\":9745:9750   */\n      dup2\n        /* \"#utility.yul\":9710:9751   */\n      tag_56\n      jump\t// in\n    tag_169:\n        /* \"#utility.yul\":9602:9757   */\n      swap3\n      swap2\n      pop\n      pop\n      jump\t// out\n        /* \"#utility.yul\":9763:9943   */\n    tag_58:\n        /* \"#utility.yul\":9811:9888   */\n      0x4e487b7100000000000000000000000000000000000000000000000000000000\n        /* \"#utility.yul\":9808:9809   */\n      0x00\n        /* \"#utility.yul\":9801:9889   */\n      mstore\n        /* \"#utility.yul\":9908:9912   */\n      0x41\n        /* \"#utility.yul\":9905:9906   */\n      0x04\n        /* \"#utility.yul\":9898:9913   */\n      mstore\n        /* \"#utility.yul\":9932:9936   */\n      0x24\n        /* \"#utility.yul\":9929:9930   */\n      0x00\n        /* \"#utility.yul\":9922:9937   */\n      revert\n        /* \"#utility.yul\":9949:10230   */\n    tag_59:\n        /* \"#utility.yul\":10032:10059   */\n      tag_172\n        /* \"#utility.yul\":10054:10058   */\n      dup3\n        /* \"#utility.yul\":10032:10059   */\n      tag_40\n      jump\t// in\n    tag_172:\n        /* \"#utility.yul\":10024:10030   */\n      dup2\n        /* \"#utility.yul\":10020:10060   */\n      add\n        /* \"#utility.yul\":10162:10168   */\n      dup2\n        /* \"#utility.yul\":10150:10160   */\n      dup2\n        /* \"#utility.yul\":10147:10169   */\n      lt\n        /* \"#utility.yul\":10126:10144   */\n      0xffffffffffffffff\n        /* \"#utility.yul\":10114:10124   */\n      dup3\n        /* \"#utility.yul\":10111:10145   */\n      gt\n        /* \"#utility.yul\":10108:10170   */\n      or\n        /* \"#utility.yul\":10105:10193   */\n      iszero\n      tag_173\n      jumpi\n        /* \"#utility.yul\":10173:10191   */\n      tag_174\n      tag_58\n      jump\t// in\n    tag_174:\n        /* \"#utility.yul\":10105:10193   */\n    tag_173:\n        /* \"#utility.yul\":10213:10223   */\n      dup1\n        /* \"#utility.yul\":10209:10211   */\n      0x40\n        /* \"#utility.yul\":10202:10224   */\n      mstore\n        /* \"#utility.yul\":9992:10230   */\n      pop\n        /* \"#utility.yul\":9949:10230   */\n      pop\n      pop\n      jump\t// out\n        /* \"#utility.yul\":10236:10365   */\n    tag_60:\n        /* \"#utility.yul\":10270:10276   */\n      0x00\n        /* \"#utility.yul\":10297:10317   */\n      tag_176\n      tag_23\n      jump\t// in\n    tag_176:\n        /* \"#utility.yul\":10287:10317   */\n      swap1\n      pop\n        /* \"#utility.yul\":10326:10359   */\n      tag_177\n        /* \"#utility.yul\":10354:10358   */\n      dup3\n        /* \"#utility.yul\":10346:10352   */\n      dup3\n        /* \"#utility.yul\":10326:10359   */\n      tag_59\n      jump\t// in\n    tag_177:\n        /* \"#utility.yul\":10236:10365   */\n      swap2\n      swap1\n      pop\n      jump\t// out\n        /* \"#utility.yul\":10371:10682   */\n    tag_61:\n        /* \"#utility.yul\":10448:10452   */\n      0x00\n        /* \"#utility.yul\":10538:10556   */\n      0xffffffffffffffff\n        /* \"#utility.yul\":10530:10536   */\n      dup3\n        /* \"#utility.yul\":10527:10557   */\n      gt\n        /* \"#utility.yul\":10524:10580   */\n      iszero\n      tag_179\n      jumpi\n        /* \"#utility.yul\":10560:10578   */\n      tag_180\n      tag_58\n      jump\t// in\n    tag_180:\n        /* \"#utility.yul\":10524:10580   */\n    tag_179:\n        /* \"#utility.yul\":10610:10614   */\n      0x20\n        /* \"#utility.yul\":10602:10608   */\n      dup3\n        /* \"#utility.yul\":10598:10615   */\n      mul\n        /* \"#utility.yul\":10590:10615   */\n      swap1\n      pop\n        /* \"#utility.yul\":10670:10674   */\n      0x20\n        /* \"#utility.yul\":10664:10668   */\n      dup2\n        /* \"#utility.yul\":10660:10675   */\n      add\n        /* \"#utility.yul\":10652:10675   */\n      swap1\n      pop\n        /* \"#utility.yul\":10371:10682   */\n      swap2\n      swap1\n      pop\n      jump\t// out\n        /* \"#utility.yul\":10705:11415   */\n    tag_62:\n        /* \"#utility.yul\":10801:10806   */\n      0x00\n        /* \"#utility.yul\":10826:10907   */\n      tag_182\n        /* \"#utility.yul\":10842:10906   */\n      tag_183\n        /* \"#utility.yul\":10899:10905   */\n      dup5\n        /* \"#utility.yul\":10842:10906   */\n      tag_61\n      jump\t// in\n    tag_183:\n        /* \"#utility.yul\":10826:10907   */\n      tag_60\n      jump\t// in\n    tag_182:\n        /* \"#utility.yul\":10817:10907   */\n      swap1\n      pop\n        /* \"#utility.yul\":10927:10932   */\n      dup1\n        /* \"#utility.yul\":10956:10962   */\n      dup4\n        /* \"#utility.yul\":10949:10954   */\n      dup3\n        /* \"#utility.yul\":10942:10963   */\n      mstore\n        /* \"#utility.yul\":10990:10994   */\n      0x20\n        /* \"#utility.yul\":10983:10988   */\n      dup3\n        /* \"#utility.yul\":10979:10995   */\n      add\n        /* \"#utility.yul\":10972:10995   */\n      swap1\n      pop\n        /* \"#utility.yul\":11043:11047   */\n      0x20\n        /* \"#utility.yul\":11035:11041   */\n      dup5\n        /* \"#utility.yul\":11031:11048   */\n      mul\n        /* \"#utility.yul\":11023:11029   */\n      dup4\n        /* \"#utility.yul\":11019:11049   */\n      add\n        /* \"#utility.yul\":11072:11075   */\n      dup6\n        /* \"#utility.yul\":11064:11070   */\n      dup2\n        /* \"#utility.yul\":11061:11076   */\n      gt\n        /* \"#utility.yul\":11058:11180   */\n      iszero\n      tag_184\n      jumpi\n        /* \"#utility.yul\":11091:11170   */\n      tag_185\n      tag_35\n      jump\t// in\n    tag_185:\n        /* \"#utility.yul\":11058:11180   */\n    tag_184:\n        /* \"#utility.yul\":11206:11212   */\n      dup4\n        /* \"#utility.yul\":11189:11409   */\n    tag_186:\n        /* \"#utility.yul\":11223:11229   */\n      dup2\n        /* \"#utility.yul\":11218:11221   */\n      dup2\n        /* \"#utility.yul\":11215:11230   */\n      lt\n        /* \"#utility.yul\":11189:11409   */\n      iszero\n      tag_188\n      jumpi\n        /* \"#utility.yul\":11298:11301   */\n      dup1\n        /* \"#utility.yul\":11327:11364   */\n      tag_189\n        /* \"#utility.yul\":11360:11363   */\n      dup9\n        /* \"#utility.yul\":11348:11358   */\n      dup3\n        /* \"#utility.yul\":11327:11364   */\n      tag_28\n      jump\t// in\n    tag_189:\n        /* \"#utility.yul\":11322:11325   */\n      dup5\n        /* \"#utility.yul\":11315:11365   */\n      mstore\n        /* \"#utility.yul\":11394:11398   */\n      0x20\n        /* \"#utility.yul\":11389:11392   */\n      dup5\n        /* \"#utility.yul\":11385:11399   */\n      add\n        /* \"#utility.yul\":11378:11399   */\n      swap4\n      pop\n        /* \"#utility.yul\":11265:11409   */\n      pop\n        /* \"#utility.yul\":11249:11253   */\n      0x20\n        /* \"#utility.yul\":11244:11247   */\n      dup2\n        /* \"#utility.yul\":11240:11254   */\n      add\n        /* \"#utility.yul\":11233:11254   */\n      swap1\n      pop\n        /* \"#utility.yul\":11189:11409   */\n      jump(tag_186)\n    tag_188:\n        /* \"#utility.yul\":11193:11214   */\n      pop\n        /* \"#utility.yul\":10807:11415   */\n      pop\n      pop\n        /* \"#utility.yul\":10705:11415   */\n      swap4\n      swap3\n      pop\n      pop\n      pop\n      jump\t// out\n        /* \"#utility.yul\":11438:11808   */\n    tag_63:\n        /* \"#utility.yul\":11509:11514   */\n      0x00\n        /* \"#utility.yul\":11558:11561   */\n      dup3\n        /* \"#utility.yul\":11551:11555   */\n      0x1f\n        /* \"#utility.yul\":11543:11549   */\n      dup4\n        /* \"#utility.yul\":11539:11556   */\n      add\n        /* \"#utility.yul\":11535:11562   */\n      slt\n        /* \"#utility.yul\":11525:11647   */\n      tag_191\n      jumpi\n        /* \"#utility.yul\":11566:11645   */\n      tag_192\n      tag_33\n      jump\t// in\n    tag_192:\n        /* \"#utility.yul\":11525:11647   */\n    tag_191:\n        /* \"#utility.yul\":11683:11689   */\n      dup2\n        /* \"#utility.yul\":11670:11690   */\n      calldataload\n        /* \"#utility.yul\":11708:11802   */\n      tag_193\n        /* \"#utility.yul\":11798:11801   */\n      dup5\n        /* \"#utility.yul\":11790:11796   */\n      dup3\n        /* \"#utility.yul\":11783:11787   */\n      0x20\n        /* \"#utility.yul\":11775:11781   */\n      dup7\n        /* \"#utility.yul\":11771:11788   */\n      add\n        /* \"#utility.yul\":11708:11802   */\n      tag_62\n      jump\t// in\n    tag_193:\n        /* \"#utility.yul\":11699:11802   */\n      swap2\n      pop\n        /* \"#utility.yul\":11515:11808   */\n      pop\n        /* \"#utility.yul\":11438:11808   */\n      swap3\n      swap2\n      pop\n      pop\n      jump\t// out\n        /* \"#utility.yul\":11814:12659   */\n    tag_22:\n        /* \"#utility.yul\":11924:11930   */\n      0x00\n        /* \"#utility.yul\":11932:11938   */\n      dup1\n        /* \"#utility.yul\":11940:11946   */\n      0x00\n        /* \"#utility.yul\":11989:11991   */\n      0x60\n        /* \"#utility.yul\":11977:11986   */\n      dup5\n        /* \"#utility.yul\":11968:11975   */\n      dup7\n        /* \"#utility.yul\":11964:11987   */\n      sub\n        /* \"#utility.yul\":11960:11992   */\n      slt\n        /* \"#utility.yul\":11957:12076   */\n      iszero\n      tag_195\n      jumpi\n        /* \"#utility.yul\":11995:12074   */\n      tag_196\n      tag_24\n      jump\t// in\n    tag_196:\n        /* \"#utility.yul\":11957:12076   */\n    tag_195:\n        /* \"#utility.yul\":12115:12116   */\n      0x00\n        /* \"#utility.yul\":12140:12193   */\n      tag_197\n        /* \"#utility.yul\":12185:12192   */\n      dup7\n        /* \"#utility.yul\":12176:12182   */\n      dup3\n        /* \"#utility.yul\":12165:12174   */\n      dup8\n        /* \"#utility.yul\":12161:12183   */\n      add\n        /* \"#utility.yul\":12140:12193   */\n      tag_28\n      jump\t// in\n    tag_197:\n        /* \"#utility.yul\":12130:12193   */\n      swap4\n      pop\n        /* \"#utility.yul\":12086:12203   */\n      pop\n        /* \"#utility.yul\":12242:12244   */\n      0x20\n        /* \"#utility.yul\":12268:12329   */\n      tag_198\n        /* \"#utility.yul\":12321:12328   */\n      dup7\n        /* \"#utility.yul\":12312:12318   */\n      dup3\n        /* \"#utility.yul\":12301:12310   */\n      dup8\n        /* \"#utility.yul\":12297:12319   */\n      add\n        /* \"#utility.yul\":12268:12329   */\n      tag_57\n      jump\t// in\n    tag_198:\n        /* \"#utility.yul\":12258:12329   */\n      swap3\n      pop\n        /* \"#utility.yul\":12213:12339   */\n      pop\n        /* \"#utility.yul\":12406:12408   */\n      0x40\n        /* \"#utility.yul\":12395:12404   */\n      dup5\n        /* \"#utility.yul\":12391:12409   */\n      add\n        /* \"#utility.yul\":12378:12410   */\n      calldataload\n        /* \"#utility.yul\":12437:12455   */\n      0xffffffffffffffff\n        /* \"#utility.yul\":12429:12435   */\n      dup2\n        /* \"#utility.yul\":12426:12456   */\n      gt\n        /* \"#utility.yul\":12423:12540   */\n      iszero\n      tag_199\n      jumpi\n        /* \"#utility.yul\":12459:12538   */\n      tag_200\n      tag_25\n      jump\t// in\n    tag_200:\n        /* \"#utility.yul\":12423:12540   */\n    tag_199:\n        /* \"#utility.yul\":12564:12642   */\n      tag_201\n        /* \"#utility.yul\":12634:12641   */\n      dup7\n        /* \"#utility.yul\":12625:12631   */\n      dup3\n        /* \"#utility.yul\":12614:12623   */\n      dup8\n        /* \"#utility.yul\":12610:12632   */\n      add\n        /* \"#utility.yul\":12564:12642   */\n      tag_63\n      jump\t// in\n    tag_201:\n        /* \"#utility.yul\":12554:12642   */\n      swap2\n      pop\n        /* \"#utility.yul\":12349:12652   */\n      pop\n        /* \"#utility.yul\":11814:12659   */\n      swap3\n      pop\n      swap3\n      pop\n      swap3\n      jump\t// out\n\n    auxdata: 0xa2646970667358221220969b7ea346e540008354c602a31ebc8839993f053be9449d92d9fd3c29351cb464736f6c63430008120033\n}\n",
				"bytecode": {
					"linkReferences": {},
					"object": "608060405234801561001057600080fd5b506107b1806100206000396000f3fe608060405234801561001057600080fd5b50600436106100365760003560e01c806372b9d2491461003b578063e5c5e9a31461006b575b600080fd5b61005560048036038101906100509190610203565b61009d565b6040516100629190610307565b60405180910390f35b6100856004803603810190610080919061037f565b6100cf565b604051610094939291906104a8565b60405180910390f35b6060848484846040516020016100b69493929190610550565b6040516020818303038152906040529050949350505050565b600080606084848101906100e3919061070c565b8093508194508295505050509250925092565b6000604051905090565b600080fd5b600080fd5b6000819050919050565b61011d8161010a565b811461012857600080fd5b50565b60008135905061013a81610114565b92915050565b600073ffffffffffffffffffffffffffffffffffffffff82169050919050565b600061016b82610140565b9050919050565b61017b81610160565b811461018657600080fd5b50565b60008135905061019881610172565b92915050565b600080fd5b600080fd5b600080fd5b60008083601f8401126101c3576101c261019e565b5b8235905067ffffffffffffffff8111156101e0576101df6101a3565b5b6020830191508360208202830111156101fc576101fb6101a8565b5b9250929050565b6000806000806060858703121561021d5761021c610100565b5b600061022b8782880161012b565b945050602061023c87828801610189565b935050604085013567ffffffffffffffff81111561025d5761025c610105565b5b610269878288016101ad565b925092505092959194509250565b600081519050919050565b600082825260208201905092915050565b60005b838110156102b1578082015181840152602081019050610296565b60008484015250505050565b6000601f19601f8301169050919050565b60006102d982610277565b6102e38185610282565b93506102f3818560208601610293565b6102fc816102bd565b840191505092915050565b6000602082019050818103600083015261032181846102ce565b905092915050565b60008083601f84011261033f5761033e61019e565b5b8235905067ffffffffffffffff81111561035c5761035b6101a3565b5b602083019150836001820283011115610378576103776101a8565b5b9250929050565b6000806020838503121561039657610395610100565b5b600083013567ffffffffffffffff8111156103b4576103b3610105565b5b6103c085828601610329565b92509250509250929050565b6103d58161010a565b82525050565b6103e481610160565b82525050565b600081519050919050565b600082825260208201905092915050565b6000819050602082019050919050565b61041f8161010a565b82525050565b60006104318383610416565b60208301905092915050565b6000602082019050919050565b6000610455826103ea565b61045f81856103f5565b935061046a83610406565b8060005b8381101561049b5781516104828882610425565b975061048d8361043d565b92505060018101905061046e565b5085935050505092915050565b60006060820190506104bd60008301866103cc565b6104ca60208301856103db565b81810360408301526104dc818461044a565b9050949350505050565b600080fd5b82818337505050565b600061050083856103f5565b93507f07ffffffffffffffffffffffffffffffffffffffffffffffffffffffffffffff831115610533576105326104e6565b5b6020830292506105448385846104eb565b82840190509392505050565b600060608201905061056560008301876103cc565b61057260208301866103db565b81810360408301526105858184866104f4565b905095945050505050565b600061059b82610140565b9050919050565b6105ab81610590565b81146105b657600080fd5b50565b6000813590506105c8816105a2565b92915050565b7f4e487b7100000000000000000000000000000000000000000000000000000000600052604160045260246000fd5b610606826102bd565b810181811067ffffffffffffffff82111715610625576106246105ce565b5b80604052505050565b60006106386100f6565b905061064482826105fd565b919050565b600067ffffffffffffffff821115610664576106636105ce565b5b602082029050602081019050919050565b600061068861068384610649565b61062e565b905080838252602082019050602084028301858111156106ab576106aa6101a8565b5b835b818110156106d457806106c0888261012b565b8452602084019350506020810190506106ad565b5050509392505050565b600082601f8301126106f3576106f261019e565b5b8135610703848260208601610675565b91505092915050565b60008060006060848603121561072557610724610100565b5b60006107338682870161012b565b9350506020610744868287016105b9565b925050604084013567ffffffffffffffff81111561076557610764610105565b5b610771868287016106de565b915050925092509256fea2646970667358221220969b7ea346e540008354c602a31ebc8839993f053be9449d92d9fd3c29351cb464736f6c63430008120033",
					"opcodes": "PUSH1 0x80 PUSH1 0x40 MSTORE CALLVALUE DUP1 ISZERO PUSH2 0x10 JUMPI PUSH1 0x0 DUP1 REVERT JUMPDEST POP PUSH2 0x7B1 DUP1 PUSH2 0x20 PUSH1 0x0 CODECOPY PUSH1 0x0 RETURN INVALID PUSH1 0x80 PUSH1 0x40 MSTORE CALLVALUE DUP1 ISZERO PUSH2 0x10 JUMPI PUSH1 0x0 DUP1 REVERT JUMPDEST POP PUSH1 0x4 CALLDATASIZE LT PUSH2 0x36 JUMPI PUSH1 0x0 CALLDATALOAD PUSH1 0xE0 SHR DUP1 PUSH4 0x72B9D249 EQ PUSH2 0x3B JUMPI DUP1 PUSH4 0xE5C5E9A3 EQ PUSH2 0x6B JUMPI JUMPDEST PUSH1 0x0 DUP1 REVERT JUMPDEST PUSH2 0x55 PUSH1 0x4 DUP1 CALLDATASIZE SUB DUP2 ADD SWAP1 PUSH2 0x50 SWAP2 SWAP1 PUSH2 0x203 JUMP JUMPDEST PUSH2 0x9D JUMP JUMPDEST PUSH1 0x40 MLOAD PUSH2 0x62 SWAP2 SWAP1 PUSH2 0x307 JUMP JUMPDEST PUSH1 0x40 MLOAD DUP1 SWAP2 SUB SWAP1 RETURN JUMPDEST PUSH2 0x85 PUSH1 0x4 DUP1 CALLDATASIZE SUB DUP2 ADD SWAP1 PUSH2 0x80 SWAP2 SWAP1 PUSH2 0x37F JUMP JUMPDEST PUSH2 0xCF JUMP JUMPDEST PUSH1 0x40 MLOAD PUSH2 0x94 SWAP4 SWAP3 SWAP2 SWAP1 PUSH2 0x4A8 JUMP JUMPDEST PUSH1 0x40 MLOAD DUP1 SWAP2 SUB SWAP1 RETURN JUMPDEST PUSH1 0x60 DUP5 DUP5 DUP5 DUP5 PUSH1 0x40 MLOAD PUSH1 0x20 ADD PUSH2 0xB6 SWAP5 SWAP4 SWAP3 SWAP2 SWAP1 PUSH2 0x550 JUMP JUMPDEST PUSH1 0x40 MLOAD PUSH1 0x20 DUP2 DUP4 SUB SUB DUP2 MSTORE SWAP1 PUSH1 0x40 MSTORE SWAP1 POP SWAP5 SWAP4 POP POP POP POP JUMP JUMPDEST PUSH1 0x0 DUP1 PUSH1 0x60 DUP5 DUP5 DUP2 ADD SWAP1 PUSH2 0xE3 SWAP2 SWAP1 PUSH2 0x70C JUMP JUMPDEST DUP1 SWAP4 POP DUP2 SWAP5 POP DUP3 SWAP6 POP POP POP POP SWAP3 POP SWAP3 POP SWAP3 JUMP JUMPDEST PUSH1 0x0 PUSH1 0x40 MLOAD SWAP1 POP SWAP1 JUMP JUMPDEST PUSH1 0x0 DUP1 REVERT JUMPDEST PUSH1 0x0 DUP1 REVERT JUMPDEST PUSH1 0x0 DUP2 SWAP1 POP SWAP2 SWAP1 POP JUMP JUMPDEST PUSH2 0x11D DUP2 PUSH2 0x10A JUMP JUMPDEST DUP2 EQ PUSH2 0x128 JUMPI PUSH1 0x0 DUP1 REVERT JUMPDEST POP JUMP JUMPDEST PUSH1 0x0 DUP2 CALLDATALOAD SWAP1 POP PUSH2 0x13A DUP2 PUSH2 0x114 JUMP JUMPDEST SWAP3 SWAP2 POP POP JUMP JUMPDEST PUSH1 0x0 PUSH20 0xFFFFFFFFFFFFFFFFFFFFFFFFFFFFFFFFFFFFFFFF DUP3 AND SWAP1 POP SWAP2 SWAP1 POP JUMP JUMPDEST PUSH1 0x0 PUSH2 0x16B DUP3 PUSH2 0x140 JUMP JUMPDEST SWAP1 POP SWAP2 SWAP1 POP JUMP JUMPDEST PUSH2 0x17B DUP2 PUSH2 0x160 JUMP JUMPDEST DUP2 EQ PUSH2 0x186 JUMPI PUSH1 0x0 DUP1 REVERT JUMPDEST POP JUMP JUMPDEST PUSH1 0x0 DUP2 CALLDATALOAD SWAP1 POP PUSH2 0x198 DUP2 PUSH2 0x172 JUMP JUMPDEST SWAP3 SWAP2 POP POP JUMP JUMPDEST PUSH1 0x0 DUP1 REVERT JUMPDEST PUSH1 0x0 DUP1 REVERT JUMPDEST PUSH1 0x0 DUP1 REVERT JUMPDEST PUSH1 0x0 DUP1 DUP4 PUSH1 0x1F DUP5 ADD SLT PUSH2 0x1C3 JUMPI PUSH2 0x1C2 PUSH2 0x19E JUMP JUMPDEST JUMPDEST DUP3 CALLDATALOAD SWAP1 POP PUSH8 0xFFFFFFFFFFFFFFFF DUP2 GT ISZERO PUSH2 0x1E0 JUMPI PUSH2 0x1DF PUSH2 0x1A3 JUMP JUMPDEST JUMPDEST PUSH1 0x20 DUP4 ADD SWAP2 POP DUP4 PUSH1 0x20 DUP3 MUL DUP4 ADD GT ISZERO PUSH2 0x1FC JUMPI PUSH2 0x1FB PUSH2 0x1A8 JUMP JUMPDEST JUMPDEST SWAP3 POP SWAP3 SWAP1 POP JUMP JUMPDEST PUSH1 0x0 DUP1 PUSH1 0x0 DUP1 PUSH1 0x60 DUP6 DUP8 SUB SLT ISZERO PUSH2 0x21D JUMPI PUSH2 0x21C PUSH2 0x100 JUMP JUMPDEST JUMPDEST PUSH1 0x0 PUSH2 0x22B DUP8 DUP3 DUP9 ADD PUSH2 0x12B JUMP JUMPDEST SWAP5 POP POP PUSH1 0x20 PUSH2 0x23C DUP8 DUP3 DUP9 ADD PUSH2 0x189 JUMP JUMPDEST SWAP4 POP POP PUSH1 0x40 DUP6 ADD CALLDATALOAD PUSH8 0xFFFFFFFFFFFFFFFF DUP2 GT ISZERO PUSH2 0x25D JUMPI PUSH2 0x25C PUSH2 0x105 JUMP JUMPDEST JUMPDEST PUSH2 0x269 DUP8 DUP3 DUP9 ADD PUSH2 0x1AD JUMP JUMPDEST SWAP3 POP SWAP3 POP POP SWAP3 SWAP6 SWAP2 SWAP5 POP SWAP3 POP JUMP JUMPDEST PUSH1 0x0 DUP2 MLOAD SWAP1 POP SWAP2 SWAP1 POP JUMP JUMPDEST PUSH1 0x0 DUP3 DUP3 MSTORE PUSH1 0x20 DUP3 ADD SWAP1 POP SWAP3 SWAP2 POP POP JUMP JUMPDEST PUSH1 0x0 JUMPDEST DUP4 DUP2 LT ISZERO PUSH2 0x2B1 JUMPI DUP1 DUP3 ADD MLOAD DUP2 DUP5 ADD MSTORE PUSH1 0x20 DUP2 ADD SWAP1 POP PUSH2 0x296 JUMP JUMPDEST PUSH1 0x0 DUP5 DUP5 ADD MSTORE POP POP POP POP JUMP JUMPDEST PUSH1 0x0 PUSH1 0x1F NOT PUSH1 0x1F DUP4 ADD AND SWAP1 POP SWAP2 SWAP1 POP JUMP JUMPDEST PUSH1 0x0 PUSH2 0x2D9 DUP3 PUSH2 0x277 JUMP JUMPDEST PUSH2 0x2E3 DUP2 DUP6 PUSH2 0x282 JUMP JUMPDEST SWAP4 POP PUSH2 0x2F3 DUP2 DUP6 PUSH1 0x20 DUP7 ADD PUSH2 0x293 JUMP JUMPDEST PUSH2 0x2FC DUP2 PUSH2 0x2BD JUMP JUMPDEST DUP5 ADD SWAP2 POP POP SWAP3 SWAP2 POP POP JUMP JUMPDEST PUSH1 0x0 PUSH1 0x20 DUP3 ADD SWAP1 POP DUP2 DUP2 SUB PUSH1 0x0 DUP4 ADD MSTORE PUSH2 0x321 DUP2 DUP5 PUSH2 0x2CE JUMP JUMPDEST SWAP1 POP SWAP3 SWAP2 POP POP JUMP JUMPDEST PUSH1 0x0 DUP1 DUP4 PUSH1 0x1F DUP5 ADD SLT PUSH2 0x33F JUMPI PUSH2 0x33E PUSH2 0x19E JUMP JUMPDEST JUMPDEST DUP3 CALLDATALOAD SWAP1 POP PUSH8 0xFFFFFFFFFFFFFFFF DUP2 GT ISZERO PUSH2 0x35C JUMPI PUSH2 0x35B PUSH2 0x1A3 JUMP JUMPDEST JUMPDEST PUSH1 0x20 DUP4 ADD SWAP2 POP DUP4 PUSH1 0x1 DUP3 MUL DUP4 ADD GT ISZERO PUSH2 0x378 JUMPI PUSH2 0x377 PUSH2 0x1A8 JUMP JUMPDEST JUMPDEST SWAP3 POP SWAP3 SWAP1 POP JUMP JUMPDEST PUSH1 0x0 DUP1 PUSH1 0x20 DUP4 DUP6 SUB SLT ISZERO PUSH2 0x396 JUMPI PUSH2 0x395 PUSH2 0x100 JUMP JUMPDEST JUMPDEST PUSH1 0x0 DUP4 ADD CALLDATALOAD PUSH8 0xFFFFFFFFFFFFFFFF DUP2 GT ISZERO PUSH2 0x3B4 JUMPI PUSH2 0x3B3 PUSH2 0x105 JUMP JUMPDEST JUMPDEST PUSH2 0x3C0 DUP6 DUP3 DUP7 ADD PUSH2 0x329 JUMP JUMPDEST SWAP3 POP SWAP3 POP POP SWAP3 POP SWAP3 SWAP1 POP JUMP JUMPDEST PUSH2 0x3D5 DUP2 PUSH2 0x10A JUMP JUMPDEST DUP3 MSTORE POP POP JUMP JUMPDEST PUSH2 0x3E4 DUP2 PUSH2 0x160 JUMP JUMPDEST DUP3 MSTORE POP POP JUMP JUMPDEST PUSH1 0x0 DUP2 MLOAD SWAP1 POP SWAP2 SWAP1 POP JUMP JUMPDEST PUSH1 0x0 DUP3 DUP3 MSTORE PUSH1 0x20 DUP3 ADD SWAP1 POP SWAP3 SWAP2 POP POP JUMP JUMPDEST PUSH1 0x0 DUP2 SWAP1 POP PUSH1 0x20 DUP3 ADD SWAP1 POP SWAP2 SWAP1 POP JUMP JUMPDEST PUSH2 0x41F DUP2 PUSH2 0x10A JUMP JUMPDEST DUP3 MSTORE POP POP JUMP JUMPDEST PUSH1 0x0 PUSH2 0x431 DUP4 DUP4 PUSH2 0x416 JUMP JUMPDEST PUSH1 0x20 DUP4 ADD SWAP1 POP SWAP3 SWAP2 POP POP JUMP JUMPDEST PUSH1 0x0 PUSH1 0x20 DUP3 ADD SWAP1 POP SWAP2 SWAP1 POP JUMP JUMPDEST PUSH1 0x0 PUSH2 0x455 DUP3 PUSH2 0x3EA JUMP JUMPDEST PUSH2 0x45F DUP2 DUP6 PUSH2 0x3F5 JUMP JUMPDEST SWAP4 POP PUSH2 0x46A DUP4 PUSH2 0x406 JUMP JUMPDEST DUP1 PUSH1 0x0 JUMPDEST DUP4 DUP2 LT ISZERO PUSH2 0x49B JUMPI DUP2 MLOAD PUSH2 0x482 DUP9 DUP3 PUSH2 0x425 JUMP JUMPDEST SWAP8 POP PUSH2 0x48D DUP4 PUSH2 0x43D JUMP JUMPDEST SWAP3 POP POP PUSH1 0x1 DUP2 ADD SWAP1 POP PUSH2 0x46E JUMP JUMPDEST POP DUP6 SWAP4 POP POP POP POP SWAP3 SWAP2 POP POP JUMP JUMPDEST PUSH1 0x0 PUSH1 0x60 DUP3 ADD SWAP1 POP PUSH2 0x4BD PUSH1 0x0 DUP4 ADD DUP7 PUSH2 0x3CC JUMP JUMPDEST PUSH2 0x4CA PUSH1 0x20 DUP4 ADD DUP6 PUSH2 0x3DB JUMP JUMPDEST DUP2 DUP2 SUB PUSH1 0x40 DUP4 ADD MSTORE PUSH2 0x4DC DUP2 DUP5 PUSH2 0x44A JUMP JUMPDEST SWAP1 POP SWAP5 SWAP4 POP POP POP POP JUMP JUMPDEST PUSH1 0x0 DUP1 REVERT JUMPDEST DUP3 DUP2 DUP4 CALLDATACOPY POP POP POP JUMP JUMPDEST PUSH1 0x0 PUSH2 0x500 DUP4 DUP6 PUSH2 0x3F5 JUMP JUMPDEST SWAP4 POP PUSH32 0x7FFFFFFFFFFFFFFFFFFFFFFFFFFFFFFFFFFFFFFFFFFFFFFFFFFFFFFFFFFFFFF DUP4 GT ISZERO PUSH2 0x533 JUMPI PUSH2 0x532 PUSH2 0x4E6 JUMP JUMPDEST JUMPDEST PUSH1 0x20 DUP4 MUL SWAP3 POP PUSH2 0x544 DUP4 DUP6 DUP5 PUSH2 0x4EB JUMP JUMPDEST DUP3 DUP5 ADD SWAP1 POP SWAP4 SWAP3 POP POP POP JUMP JUMPDEST PUSH1 0x0 PUSH1 0x60 DUP3 ADD SWAP1 POP PUSH2 0x565 PUSH1 0x0 DUP4 ADD DUP8 PUSH2 0x3CC JUMP JUMPDEST PUSH2 0x572 PUSH1 0x20 DUP4 ADD DUP7 PUSH2 0x3DB JUMP JUMPDEST DUP2 DUP2 SUB PUSH1 0x40 DUP4 ADD MSTORE PUSH2 0x585 DUP2 DUP5 DUP7 PUSH2 0x4F4 JUMP JUMPDEST SWAP1 POP SWAP6 SWAP5 POP POP POP POP POP JUMP JUMPDEST PUSH1 0x0 PUSH2 0x59B DUP3 PUSH2 0x140 JUMP JUMPDEST SWAP1 POP SWAP2 SWAP1 POP JUMP JUMPDEST PUSH2 0x5AB DUP2 PUSH2 0x590 JUMP JUMPDEST DUP2 EQ PUSH2 0x5B6 JUMPI PUSH1 0x0 DUP1 REVERT JUMPDEST POP JUMP JUMPDEST PUSH1 0x0 DUP2 CALLDATALOAD SWAP1 POP PUSH2 0x5C8 DUP2 PUSH2 0x5A2 JUMP JUMPDEST SWAP3 SWAP2 POP POP JUMP JUMPDEST PUSH32 0x4E487B7100000000000000000000000000000000000000000000000000000000 PUSH1 0x0 MSTORE PUSH1 0x41 PUSH1 0x4 MSTORE PUSH1 0x24 PUSH1 0x0 REVERT JUMPDEST PUSH2 0x606 DUP3 PUSH2 0x2BD JUMP JUMPDEST DUP2 ADD DUP2 DUP2 LT PUSH8 0xFFFFFFFFFFFFFFFF DUP3 GT OR ISZERO PUSH2 0x625 JUMPI PUSH2 0x624 PUSH2 0x5CE JUMP JUMPDEST JUMPDEST DUP1 PUSH1 0x40 MSTORE POP POP POP JUMP JUMPDEST PUSH1 0x0 PUSH2 0x638 PUSH2 0xF6 JUMP JUMPDEST SWAP1 POP PUSH2 0x644 DUP3 DUP3 PUSH2 0x5FD JUMP JUMPDEST SWAP2 SWAP1 POP JUMP JUMPDEST PUSH1 0x0 PUSH8 0xFFFFFFFFFFFFFFFF DUP3 GT ISZERO PUSH2 0x664 JUMPI PUSH2 0x663 PUSH2 0x5CE JUMP JUMPDEST JUMPDEST PUSH1 0x20 DUP3 MUL SWAP1 POP PUSH1 0x20 DUP2 ADD SWAP1 POP SWAP2 SWAP1 POP JUMP JUMPDEST PUSH1 0x0 PUSH2 0x688 PUSH2 0x683 DUP5 PUSH2 0x649 JUMP JUMPDEST PUSH2 0x62E JUMP JUMPDEST SWAP1 POP DUP1 DUP4 DUP3 MSTORE PUSH1 0x20 DUP3 ADD SWAP1 POP PUSH1 0x20 DUP5 MUL DUP4 ADD DUP6 DUP2 GT ISZERO PUSH2 0x6AB JUMPI PUSH2 0x6AA PUSH2 0x1A8 JUMP JUMPDEST JUMPDEST DUP4 JUMPDEST DUP2 DUP2 LT ISZERO PUSH2 0x6D4 JUMPI DUP1 PUSH2 0x6C0 DUP9 DUP3 PUSH2 0x12B JUMP JUMPDEST DUP5 MSTORE PUSH1 0x20 DUP5 ADD SWAP4 POP POP PUSH1 0x20 DUP2 ADD SWAP1 POP PUSH2 0x6AD JUMP JUMPDEST POP POP POP SWAP4 SWAP3 POP POP POP JUMP JUMPDEST PUSH1 0x0 DUP3 PUSH1 0x1F DUP4 ADD SLT PUSH2 0x6F3 JUMPI PUSH2 0x6F2 PUSH2 0x19E JUMP JUMPDEST JUMPDEST DUP2 CALLDATALOAD PUSH2 0x703 DUP5 DUP3 PUSH1 0x20 DUP7 ADD PUSH2 0x675 JUMP JUMPDEST SWAP2 POP POP SWAP3 SWAP2 POP POP JUMP JUMPDEST PUSH1 0x0 DUP1 PUSH1 0x0 PUSH1 0x60 DUP5 DUP7 SUB SLT ISZERO PUSH2 0x725 JUMPI PUSH2 0x724 PUSH2 0x100 JUMP JUMPDEST JUMPDEST PUSH1 0x0 PUSH2 0x733 DUP7 DUP3 DUP8 ADD PUSH2 0x12B JUMP JUMPDEST SWAP4 POP POP PUSH1 0x20 PUSH2 0x744 DUP7 DUP3 DUP8 ADD PUSH2 0x5B9 JUMP JUMPDEST SWAP3 POP POP PUSH1 0x40 DUP5 ADD CALLDATALOAD PUSH8 0xFFFFFFFFFFFFFFFF DUP2 GT ISZERO PUSH2 0x765 JUMPI PUSH2 0x764 PUSH2 0x105 JUMP JUMPDEST JUMPDEST PUSH2 0x771 DUP7 DUP3 DUP8 ADD PUSH2 0x6DE JUMP JUMPDEST SWAP2 POP POP SWAP3 POP SWAP3 POP SWAP3 JUMP INVALID LOG2 PUSH5 0x6970667358 0x22 SLT KECCAK256 SWAP7 SWAP12 PUSH31 0xA346E540008354C602A31EBC8839993F053BE9449D92D9FD3C29351CB46473 PUSH16 0x6C634300081200330000000000000000 "
				},
				"gasEstimates": {
					"creation": {
						"codeDepositCost": "393800",
						"executionCost": "430",
						"totalCost": "394230"
					},
					"external": {
						"decode(bytes)": "infinite",
						"encode(uint256,address,uint256[])": "infinite"
					}
				},
				"methodIdentifiers": {
					"decode(bytes)": "e5c5e9a3",
					"encode(uint256,address,uint256[])": "72b9d249"
				}
			},
			"storageLayout": {
				"storage": [],
				"types": null
			},
			"userdoc": {
				"kind": "user",
				"methods": {},
				"version": 1
			}
		}
	}
}