{
	"contracts/targetcaller1.sol": {
		"TargetCaller": {
			"abi": [
				{
					"inputs": [
						{
							"internalType": "contract Target",
							"name": "_target",
							"type": "address"
						}
					],
					"name": "callDecrementDirect",
					"outputs": [],
					"stateMutability": "nonpayable",
					"type": "function"
				},
				{
					"inputs": [
						{
							"internalType": "address",
							"name": "_target",
							"type": "address"
						}
					],
					"name": "callDecrementInterface",
					"outputs": [],
					"stateMutability": "nonpayable",
					"type": "function"
				}
			],
			"devdoc": {
				"kind": "dev",
				"methods": {},
				"version": 1
			},
			"evm": {
				"assembly": "    /* \"contracts/targetcaller1.sol\":233:571  contract TargetCaller {... */\n  mstore(0x40, 0x80)\n  callvalue\n  dup1\n  iszero\n  tag_1\n  jumpi\n  0x00\n  dup1\n  revert\ntag_1:\n  pop\n  dataSize(sub_0)\n  dup1\n  dataOffset(sub_0)\n  0x00\n  codecopy\n  0x00\n  return\nstop\n\nsub_0: assembly {\n        /* \"contracts/targetcaller1.sol\":233:571  contract TargetCaller {... */\n      mstore(0x40, 0x80)\n      callvalue\n      dup1\n      iszero\n      tag_1\n      jumpi\n      0x00\n      dup1\n      revert\n    tag_1:\n      pop\n      jumpi(tag_2, lt(calldatasize, 0x04))\n      shr(0xe0, calldataload(0x00))\n      dup1\n      0x22699021\n      eq\n      tag_3\n      jumpi\n      dup1\n      0x6ee9eb27\n      eq\n      tag_4\n      jumpi\n    tag_2:\n      0x00\n      dup1\n      revert\n        /* \"contracts/targetcaller1.sol\":478:568  function callDecrementDirect(Target _target) public {... */\n    tag_3:\n      tag_5\n      0x04\n      dup1\n      calldatasize\n      sub\n      dup2\n      add\n      swap1\n      tag_6\n      swap2\n      swap1\n      tag_7\n      jump\t// in\n    tag_6:\n      tag_8\n      jump\t// in\n    tag_5:\n      stop\n        /* \"contracts/targetcaller1.sol\":262:398  function callDecrementInterface(address _target) public{... */\n    tag_4:\n      tag_9\n      0x04\n      dup1\n      calldatasize\n      sub\n      dup2\n      add\n      swap1\n      tag_10\n      swap2\n      swap1\n      tag_11\n      jump\t// in\n    tag_10:\n      tag_12\n      jump\t// in\n    tag_9:\n      stop\n        /* \"contracts/targetcaller1.sol\":478:568  function callDecrementDirect(Target _target) public {... */\n    tag_8:\n        /* \"contracts/targetcaller1.sol\":541:548  _target */\n      dup1\n        /* \"contracts/targetcaller1.sol\":541:558  _target.decrement */\n      0xffffffffffffffffffffffffffffffffffffffff\n      and\n      0x2baeceb7\n        /* \"contracts/targetcaller1.sol\":541:560  _target.decrement() */\n      mload(0x40)\n      dup2\n      0xffffffff\n      and\n      0xe0\n      shl\n      dup2\n      mstore\n      0x04\n      add\n      0x00\n      mload(0x40)\n      dup1\n      dup4\n      sub\n      dup2\n      0x00\n      dup8\n      dup1\n      extcodesize\n      iszero\n      dup1\n      iszero\n      tag_14\n      jumpi\n      0x00\n      dup1\n      revert\n    tag_14:\n      pop\n      gas\n      call\n      iszero\n      dup1\n      iszero\n      tag_16\n      jumpi\n      returndatasize\n      0x00\n      dup1\n      returndatacopy\n      revert(0x00, returndatasize)\n    tag_16:\n      pop\n      pop\n      pop\n      pop\n        /* \"contracts/targetcaller1.sol\":478:568  function callDecrementDirect(Target _target) public {... */\n      pop\n      jump\t// out\n        /* \"contracts/targetcaller1.sol\":262:398  function callDecrementInterface(address _target) public{... */\n    tag_12:\n        /* \"contracts/targetcaller1.sol\":328:342  ITarget target */\n      0x00\n        /* \"contracts/targetcaller1.sol\":353:360  _target */\n      dup2\n        /* \"contracts/targetcaller1.sol\":328:361  ITarget target = ITarget(_target) */\n      swap1\n      pop\n        /* \"contracts/targetcaller1.sol\":372:378  target */\n      dup1\n        /* \"contracts/targetcaller1.sol\":372:388  target.decrement */\n      0xffffffffffffffffffffffffffffffffffffffff\n      and\n      0x2baeceb7\n        /* \"contracts/targetcaller1.sol\":372:390  target.decrement() */\n      mload(0x40)\n      dup2\n      0xffffffff\n      and\n      0xe0\n      shl\n      dup2\n      mstore\n      0x04\n      add\n      0x00\n      mload(0x40)\n      dup1\n      dup4\n      sub\n      dup2\n      0x00\n      dup8\n      dup1\n      extcodesize\n      iszero\n      dup1\n      iszero\n      tag_18\n      jumpi\n      0x00\n      dup1\n      revert\n    tag_18:\n      pop\n      gas\n      call\n      iszero\n      dup1\n      iszero\n      tag_20\n      jumpi\n      returndatasize\n      0x00\n      dup1\n      returndatacopy\n      revert(0x00, returndatasize)\n    tag_20:\n      pop\n      pop\n      pop\n      pop\n        /* \"contracts/targetcaller1.sol\":317:398  {... */\n      pop\n        /* \"contracts/targetcaller1.sol\":262:398  function callDecrementInterface(address _target) public{... */\n      pop\n      jump\t// out\n        /* \"#utility.yul\":88:205   */\n    tag_22:\n        /* \"#utility.yul\":197:198   */\n      0x00\n        /* \"#utility.yul\":194:195   */\n      dup1\n        /* \"#utility.yul\":187:199   */\n      revert\n        /* \"#utility.yul\":334:460   */\n    tag_24:\n        /* \"#utility.yul\":371:378   */\n      0x00\n        /* \"#utility.yul\":411:453   */\n      0xffffffffffffffffffffffffffffffffffffffff\n        /* \"#utility.yul\":404:409   */\n      dup3\n        /* \"#utility.yul\":400:454   */\n      and\n        /* \"#utility.yul\":389:454   */\n      swap1\n      pop\n        /* \"#utility.yul\":334:460   */\n      swap2\n      swap1\n      pop\n      jump\t// out\n        /* \"#utility.yul\":466:562   */\n    tag_25:\n        /* \"#utility.yul\":503:510   */\n      0x00\n        /* \"#utility.yul\":532:556   */\n      tag_37\n        /* \"#utility.yul\":550:555   */\n      dup3\n        /* \"#utility.yul\":532:556   */\n      tag_24\n      jump\t// in\n    tag_37:\n        /* \"#utility.yul\":521:556   */\n      swap1\n      pop\n        /* \"#utility.yul\":466:562   */\n      swap2\n      swap1\n      pop\n      jump\t// out\n        /* \"#utility.yul\":568:677   */\n    tag_26:\n        /* \"#utility.yul\":618:625   */\n      0x00\n        /* \"#utility.yul\":647:671   */\n      tag_39\n        /* \"#utility.yul\":665:670   */\n      dup3\n        /* \"#utility.yul\":647:671   */\n      tag_25\n      jump\t// in\n    tag_39:\n        /* \"#utility.yul\":636:671   */\n      swap1\n      pop\n        /* \"#utility.yul\":568:677   */\n      swap2\n      swap1\n      pop\n      jump\t// out\n        /* \"#utility.yul\":683:831   */\n    tag_27:\n        /* \"#utility.yul\":769:806   */\n      tag_41\n        /* \"#utility.yul\":800:805   */\n      dup2\n        /* \"#utility.yul\":769:806   */\n      tag_26\n      jump\t// in\n    tag_41:\n        /* \"#utility.yul\":762:767   */\n      dup2\n        /* \"#utility.yul\":759:807   */\n      eq\n        /* \"#utility.yul\":749:825   */\n      tag_42\n      jumpi\n        /* \"#utility.yul\":821:822   */\n      0x00\n        /* \"#utility.yul\":818:819   */\n      dup1\n        /* \"#utility.yul\":811:823   */\n      revert\n        /* \"#utility.yul\":749:825   */\n    tag_42:\n        /* \"#utility.yul\":683:831   */\n      pop\n      jump\t// out\n        /* \"#utility.yul\":837:1002   */\n    tag_28:\n        /* \"#utility.yul\":896:901   */\n      0x00\n        /* \"#utility.yul\":934:940   */\n      dup2\n        /* \"#utility.yul\":921:941   */\n      calldataload\n        /* \"#utility.yul\":912:941   */\n      swap1\n      pop\n        /* \"#utility.yul\":950:996   */\n      tag_44\n        /* \"#utility.yul\":990:995   */\n      dup2\n        /* \"#utility.yul\":950:996   */\n      tag_27\n      jump\t// in\n    tag_44:\n        /* \"#utility.yul\":837:1002   */\n      swap3\n      swap2\n      pop\n      pop\n      jump\t// out\n        /* \"#utility.yul\":1008:1363   */\n    tag_7:\n        /* \"#utility.yul\":1080:1086   */\n      0x00\n        /* \"#utility.yul\":1129:1131   */\n      0x20\n        /* \"#utility.yul\":1117:1126   */\n      dup3\n        /* \"#utility.yul\":1108:1115   */\n      dup5\n        /* \"#utility.yul\":1104:1127   */\n      sub\n        /* \"#utility.yul\":1100:1132   */\n      slt\n        /* \"#utility.yul\":1097:1216   */\n      iszero\n      tag_46\n      jumpi\n        /* \"#utility.yul\":1135:1214   */\n      tag_47\n      tag_22\n      jump\t// in\n    tag_47:\n        /* \"#utility.yul\":1097:1216   */\n    tag_46:\n        /* \"#utility.yul\":1255:1256   */\n      0x00\n        /* \"#utility.yul\":1280:1346   */\n      tag_48\n        /* \"#utility.yul\":1338:1345   */\n      dup5\n        /* \"#utility.yul\":1329:1335   */\n      dup3\n        /* \"#utility.yul\":1318:1327   */\n      dup6\n        /* \"#utility.yul\":1314:1336   */\n      add\n        /* \"#utility.yul\":1280:1346   */\n      tag_28\n      jump\t// in\n    tag_48:\n        /* \"#utility.yul\":1270:1346   */\n      swap2\n      pop\n        /* \"#utility.yul\":1226:1356   */\n      pop\n        /* \"#utility.yul\":1008:1363   */\n      swap3\n      swap2\n      pop\n      pop\n      jump\t// out\n        /* \"#utility.yul\":1369:1491   */\n    tag_29:\n        /* \"#utility.yul\":1442:1466   */\n      tag_50\n        /* \"#utility.yul\":1460:1465   */\n      dup2\n        /* \"#utility.yul\":1442:1466   */\n      tag_25\n      jump\t// in\n    tag_50:\n        /* \"#utility.yul\":1435:1440   */\n      dup2\n        /* \"#utility.yul\":1432:1467   */\n      eq\n        /* \"#utility.yul\":1422:1485   */\n      tag_51\n      jumpi\n        /* \"#utility.yul\":1481:1482   */\n      0x00\n        /* \"#utility.yul\":1478:1479   */\n      dup1\n        /* \"#utility.yul\":1471:1483   */\n      revert\n        /* \"#utility.yul\":1422:1485   */\n    tag_51:\n        /* \"#utility.yul\":1369:1491   */\n      pop\n      jump\t// out\n        /* \"#utility.yul\":1497:1636   */\n    tag_30:\n        /* \"#utility.yul\":1543:1548   */\n      0x00\n        /* \"#utility.yul\":1581:1587   */\n      dup2\n        /* \"#utility.yul\":1568:1588   */\n      calldataload\n        /* \"#utility.yul\":1559:1588   */\n      swap1\n      pop\n        /* \"#utility.yul\":1597:1630   */\n      tag_53\n        /* \"#utility.yul\":1624:1629   */\n      dup2\n        /* \"#utility.yul\":1597:1630   */\n      tag_29\n      jump\t// in\n    tag_53:\n        /* \"#utility.yul\":1497:1636   */\n      swap3\n      swap2\n      pop\n      pop\n      jump\t// out\n        /* \"#utility.yul\":1642:1971   */\n    tag_11:\n        /* \"#utility.yul\":1701:1707   */\n      0x00\n        /* \"#utility.yul\":1750:1752   */\n      0x20\n        /* \"#utility.yul\":1738:1747   */\n      dup3\n        /* \"#utility.yul\":1729:1736   */\n      dup5\n        /* \"#utility.yul\":1725:1748   */\n      sub\n        /* \"#utility.yul\":1721:1753   */\n      slt\n        /* \"#utility.yul\":1718:1837   */\n      iszero\n      tag_55\n      jumpi\n        /* \"#utility.yul\":1756:1835   */\n      tag_56\n      tag_22\n      jump\t// in\n    tag_56:\n        /* \"#utility.yul\":1718:1837   */\n    tag_55:\n        /* \"#utility.yul\":1876:1877   */\n      0x00\n        /* \"#utility.yul\":1901:1954   */\n      tag_57\n        /* \"#utility.yul\":1946:1953   */\n      dup5\n        /* \"#utility.yul\":1937:1943   */\n      dup3\n        /* \"#utility.yul\":1926:1935   */\n      dup6\n        /* \"#utility.yul\":1922:1944   */\n      add\n        /* \"#utility.yul\":1901:1954   */\n      tag_30\n      jump\t// in\n    tag_57:\n        /* \"#utility.yul\":1891:1954   */\n      swap2\n      pop\n        /* \"#utility.yul\":1847:1964   */\n      pop\n        /* \"#utility.yul\":1642:1971   */\n      swap3\n      swap2\n      pop\n      pop\n      jump\t// out\n\n    auxdata: 0xa2646970667358221220771789f8ae15c3c0f191a2f9b2cdde3dd39da5daf0f8fed25a38af85cf6a38d864736f6c63430008120033\n}\n",
				"bytecode": {
					"linkReferences": {},
					"object": "608060405234801561001057600080fd5b50610270806100206000396000f3fe608060405234801561001057600080fd5b50600436106100365760003560e01c8063226990211461003b5780636ee9eb2714610057575b600080fd5b610055600480360381019061005091906101b4565b610073565b005b610071600480360381019061006c919061020d565b6100d6565b005b8073ffffffffffffffffffffffffffffffffffffffff16632baeceb76040518163ffffffff1660e01b8152600401600060405180830381600087803b1580156100bb57600080fd5b505af11580156100cf573d6000803e3d6000fd5b5050505050565b60008190508073ffffffffffffffffffffffffffffffffffffffff16632baeceb76040518163ffffffff1660e01b8152600401600060405180830381600087803b15801561012357600080fd5b505af1158015610137573d6000803e3d6000fd5b505050505050565b600080fd5b600073ffffffffffffffffffffffffffffffffffffffff82169050919050565b600061016f82610144565b9050919050565b600061018182610164565b9050919050565b61019181610176565b811461019c57600080fd5b50565b6000813590506101ae81610188565b92915050565b6000602082840312156101ca576101c961013f565b5b60006101d88482850161019f565b91505092915050565b6101ea81610164565b81146101f557600080fd5b50565b600081359050610207816101e1565b92915050565b6000602082840312156102235761022261013f565b5b6000610231848285016101f8565b9150509291505056fea2646970667358221220771789f8ae15c3c0f191a2f9b2cdde3dd39da5daf0f8fed25a38af85cf6a38d864736f6c63430008120033",
					"opcodes": "PUSH1 0x80 PUSH1 0x40 MSTORE CALLVALUE DUP1 ISZERO PUSH2 0x10 JUMPI PUSH1 0x0 DUP1 REVERT JUMPDEST POP PUSH2 0x270 DUP1 PUSH2 0x20 PUSH1 0x0 CODECOPY PUSH1 0x0 RETURN INVALID PUSH1 0x80 PUSH1 0x40 MSTORE CALLVALUE DUP1 ISZERO PUSH2 0x10 JUMPI PUSH1 0x0 DUP1 REVERT JUMPDEST POP PUSH1 0x4 CALLDATASIZE LT PUSH2 0x36 JUMPI PUSH1 0x0 CALLDATALOAD PUSH1 0xE0 SHR DUP1 PUSH4 0x22699021 EQ PUSH2 0x3B JUMPI DUP1 PUSH4 0x6EE9EB27 EQ PUSH2 0x57 JUMPI JUMPDEST PUSH1 0x0 DUP1 REVERT JUMPDEST PUSH2 0x55 PUSH1 0x4 DUP1 CALLDATASIZE SUB DUP2 ADD SWAP1 PUSH2 0x50 SWAP2 SWAP1 PUSH2 0x1B4 JUMP JUMPDEST PUSH2 0x73 JUMP JUMPDEST STOP JUMPDEST PUSH2 0x71 PUSH1 0x4 DUP1 CALLDATASIZE SUB DUP2 ADD SWAP1 PUSH2 0x6C SWAP2 SWAP1 PUSH2 0x20D JUMP JUMPDEST PUSH2 0xD6 JUMP JUMPDEST STOP JUMPDEST DUP1 PUSH20 0xFFFFFFFFFFFFFFFFFFFFFFFFFFFFFFFFFFFFFFFF AND PUSH4 0x2BAECEB7 PUSH1 0x40 MLOAD DUP2 PUSH4 0xFFFFFFFF AND PUSH1 0xE0 SHL DUP2 MSTORE PUSH1 0x4 ADD PUSH1 0x0 PUSH1 0x40 MLOAD DUP1 DUP4 SUB DUP2 PUSH1 0x0 DUP8 DUP1 EXTCODESIZE ISZERO DUP1 ISZERO PUSH2 0xBB JUMPI PUSH1 0x0 DUP1 REVERT JUMPDEST POP GAS CALL ISZERO DUP1 ISZERO PUSH2 0xCF JUMPI RETURNDATASIZE PUSH1 0x0 DUP1 RETURNDATACOPY RETURNDATASIZE PUSH1 0x0 REVERT JUMPDEST POP POP POP POP POP JUMP JUMPDEST PUSH1 0x0 DUP2 SWAP1 POP DUP1 PUSH20 0xFFFFFFFFFFFFFFFFFFFFFFFFFFFFFFFFFFFFFFFF AND PUSH4 0x2BAECEB7 PUSH1 0x40 MLOAD DUP2 PUSH4 0xFFFFFFFF AND PUSH1 0xE0 SHL DUP2 MSTORE PUSH1 0x4 ADD PUSH1 0x0 PUSH1 0x40 MLOAD DUP1 DUP4 SUB DUP2 PUSH1 0x0 DUP8 DUP1 EXTCODESIZE ISZERO DUP1 ISZERO PUSH2 0x123 JUMPI PUSH1 0x0 DUP1 REVERT JUMPDEST POP GAS CALL ISZERO DUP1 ISZERO PUSH2 0x137 JUMPI RETURNDATASIZE PUSH1 0x0 DUP1 RETURNDATACOPY RETURNDATASIZE PUSH1 0x0 REVERT JUMPDEST POP POP POP POP POP POP JUMP JUMPDEST PUSH1 0x0 DUP1 REVERT JUMPDEST PUSH1 0x0 PUSH20 0xFFFFFFFFFFFFFFFFFFFFFFFFFFFFFFFFFFFFFFFF DUP3 AND SWAP1 POP SWAP2 SWAP1 POP JUMP JUMPDEST PUSH1 0x0 PUSH2 0x16F DUP3 PUSH2 0x144 JUMP JUMPDEST SWAP1 POP SWAP2 SWAP1 POP JUMP JUMPDEST PUSH1 0x0 PUSH2 0x181 DUP3 PUSH2 0x164 JUMP JUMPDEST SWAP1 POP SWAP2 SWAP1 POP JUMP JUMPDEST PUSH2 0x191 DUP2 PUSH2 0x176 JUMP JUMPDEST DUP2 EQ PUSH2 0x19C JUMPI PUSH1 0x0 DUP1 REVERT JUMPDEST POP JUMP JUMPDEST PUSH1 0x0 DUP2 CALLDATALOAD SWAP1 POP PUSH2 0x1AE DUP2 PUSH2 0x188 JUMP JUMPDEST SWAP3 SWAP2 POP POP JUMP JUMPDEST PUSH1 0x0 PUSH1 0x20 DUP3 DUP5 SUB SLT ISZERO PUSH2 0x1CA JUMPI PUSH2 0x1C9 PUSH2 0x13F JUMP JUMPDEST JUMPDEST PUSH1 0x0 PUSH2 0x1D8 DUP5 DUP3 DUP6 ADD PUSH2 0x19F JUMP JUMPDEST SWAP2 POP POP SWAP3 SWAP2 POP POP JUMP JUMPDEST PUSH2 0x1EA DUP2 PUSH2 0x164 JUMP JUMPDEST DUP2 EQ PUSH2 0x1F5 JUMPI PUSH1 0x0 DUP1 REVERT JUMPDEST POP JUMP JUMPDEST PUSH1 0x0 DUP2 CALLDATALOAD SWAP1 POP PUSH2 0x207 DUP2 PUSH2 0x1E1 JUMP JUMPDEST SWAP3 SWAP2 POP POP JUMP JUMPDEST PUSH1 0x0 PUSH1 0x20 DUP3 DUP5 SUB SLT ISZERO PUSH2 0x223 JUMPI PUSH2 0x222 PUSH2 0x13F JUMP JUMPDEST JUMPDEST PUSH1 0x0 PUSH2 0x231 DUP5 DUP3 DUP6 ADD PUSH2 0x1F8 JUMP JUMPDEST SWAP2 POP POP SWAP3 SWAP2 POP POP JUMP INVALID LOG2 PUSH5 0x6970667358 0x22 SLT KECCAK256 PUSH24 0x1789F8AE15C3C0F191A2F9B2CDDE3DD39DA5DAF0F8FED25A CODESIZE 0xAF DUP6 0xCF PUSH11 0x38D864736F6C6343000812 STOP CALLER "
				},
				"gasEstimates": {
					"creation": {
						"codeDepositCost": "124800",
						"executionCost": "171",
						"totalCost": "124971"
					},
					"external": {
						"callDecrementDirect(address)": "infinite",
						"callDecrementInterface(address)": "infinite"
					}
				},
				"methodIdentifiers": {
					"callDecrementDirect(address)": "22699021",
					"callDecrementInterface(address)": "6ee9eb27"
				}
			},
			"storageLayout": {
				"storage": [],
				"types": null
			},
			"userdoc": {
				"kind": "user",
				"methods": {},
				"version": 1
			}
		}
	}
}