{
	"data": {
		"bytecode": {
			"linkReferences": {},
			"object": "6102c4610053600b82828239805160001a607314610046577f4e487b7100000000000000000000000000000000000000000000000000000000600052600060045260246000fd5b30600052607381538281f3fe73000000000000000000000000000000000000000030146080604052600436106100405760003560e01c80632d602bc014610045578063a5f3c23b14610075575b600080fd5b61005f600480360381019061005a919061010c565b6100a5565b60405161006c9190610148565b60405180910390f35b61008f600480360381019061008a9190610163565b6100bb565b60405161009c9190610148565b60405180910390f35b60006064826100b491906101d2565b9050919050565b600081836100c9919061024a565b905092915050565b600080fd5b6000819050919050565b6100e9816100d6565b81146100f457600080fd5b50565b600081359050610106816100e0565b92915050565b600060208284031215610122576101216100d1565b5b6000610130848285016100f7565b91505092915050565b610142816100d6565b82525050565b600060208201905061015d6000830184610139565b92915050565b6000806040838503121561017a576101796100d1565b5b6000610188858286016100f7565b9250506020610199858286016100f7565b9150509250929050565b7f4e487b7100000000000000000000000000000000000000000000000000000000600052601160045260246000fd5b60006101dd826100d6565b91506101e8836100d6565b92508282026101f6816100d6565b91507f8000000000000000000000000000000000000000000000000000000000000000841460008412161561022e5761022d6101a3565b5b8282058414831517610243576102426101a3565b5b5092915050565b6000610255826100d6565b9150610260836100d6565b925082820190508281121560008312168382126000841215161715610288576102876101a3565b5b9291505056fea2646970667358221220294e4f98a986822173e06e19febbcbfcbeeb21381e0af18573fb910961f50b7064736f6c63430008120033",
			"opcodes": "PUSH2 0x2C4 PUSH2 0x53 PUSH1 0xB DUP3 DUP3 DUP3 CODECOPY DUP1 MLOAD PUSH1 0x0 BYTE PUSH1 0x73 EQ PUSH2 0x46 JUMPI PUSH32 0x4E487B7100000000000000000000000000000000000000000000000000000000 PUSH1 0x0 MSTORE PUSH1 0x0 PUSH1 0x4 MSTORE PUSH1 0x24 PUSH1 0x0 REVERT JUMPDEST ADDRESS PUSH1 0x0 MSTORE PUSH1 0x73 DUP2 MSTORE8 DUP3 DUP2 RETURN INVALID PUSH20 0x0 ADDRESS EQ PUSH1 0x80 PUSH1 0x40 MSTORE PUSH1 0x4 CALLDATASIZE LT PUSH2 0x40 JUMPI PUSH1 0x0 CALLDATALOAD PUSH1 0xE0 SHR DUP1 PUSH4 0x2D602BC0 EQ PUSH2 0x45 JUMPI DUP1 PUSH4 0xA5F3C23B EQ PUSH2 0x75 JUMPI JUMPDEST PUSH1 0x0 DUP1 REVERT JUMPDEST PUSH2 0x5F PUSH1 0x4 DUP1 CALLDATASIZE SUB DUP2 ADD SWAP1 PUSH2 0x5A SWAP2 SWAP1 PUSH2 0x10C JUMP JUMPDEST PUSH2 0xA5 JUMP JUMPDEST PUSH1 0x40 MLOAD PUSH2 0x6C SWAP2 SWAP1 PUSH2 0x148 JUMP JUMPDEST PUSH1 0x40 MLOAD DUP1 SWAP2 SUB SWAP1 RETURN JUMPDEST PUSH2 0x8F PUSH1 0x4 DUP1 CALLDATASIZE SUB DUP2 ADD SWAP1 PUSH2 0x8A SWAP2 SWAP1 PUSH2 0x163 JUMP JUMPDEST PUSH2 0xBB JUMP JUMPDEST PUSH1 0x40 MLOAD PUSH2 0x9C SWAP2 SWAP1 PUSH2 0x148 JUMP JUMPDEST PUSH1 0x40 MLOAD DUP1 SWAP2 SUB SWAP1 RETURN JUMPDEST PUSH1 0x0 PUSH1 0x64 DUP3 PUSH2 0xB4 SWAP2 SWAP1 PUSH2 0x1D2 JUMP JUMPDEST SWAP1 POP SWAP2 SWAP1 POP JUMP JUMPDEST PUSH1 0x0 DUP2 DUP4 PUSH2 0xC9 SWAP2 SWAP1 PUSH2 0x24A JUMP JUMPDEST SWAP1 POP SWAP3 SWAP2 POP POP JUMP JUMPDEST PUSH1 0x0 DUP1 REVERT JUMPDEST PUSH1 0x0 DUP2 SWAP1 POP SWAP2 SWAP1 POP JUMP JUMPDEST PUSH2 0xE9 DUP2 PUSH2 0xD6 JUMP JUMPDEST DUP2 EQ PUSH2 0xF4 JUMPI PUSH1 0x0 DUP1 REVERT JUMPDEST POP JUMP JUMPDEST PUSH1 0x0 DUP2 CALLDATALOAD SWAP1 POP PUSH2 0x106 DUP2 PUSH2 0xE0 JUMP JUMPDEST SWAP3 SWAP2 POP POP JUMP JUMPDEST PUSH1 0x0 PUSH1 0x20 DUP3 DUP5 SUB SLT ISZERO PUSH2 0x122 JUMPI PUSH2 0x121 PUSH2 0xD1 JUMP JUMPDEST JUMPDEST PUSH1 0x0 PUSH2 0x130 DUP5 DUP3 DUP6 ADD PUSH2 0xF7 JUMP JUMPDEST SWAP2 POP POP SWAP3 SWAP2 POP POP JUMP JUMPDEST PUSH2 0x142 DUP2 PUSH2 0xD6 JUMP JUMPDEST DUP3 MSTORE POP POP JUMP JUMPDEST PUSH1 0x0 PUSH1 0x20 DUP3 ADD SWAP1 POP PUSH2 0x15D PUSH1 0x0 DUP4 ADD DUP5 PUSH2 0x139 JUMP JUMPDEST SWAP3 SWAP2 POP POP JUMP JUMPDEST PUSH1 0x0 DUP1 PUSH1 0x40 DUP4 DUP6 SUB SLT ISZERO PUSH2 0x17A JUMPI PUSH2 0x179 PUSH2 0xD1 JUMP JUMPDEST JUMPDEST PUSH1 0x0 PUSH2 0x188 DUP6 DUP3 DUP7 ADD PUSH2 0xF7 JUMP JUMPDEST SWAP3 POP POP PUSH1 0x20 PUSH2 0x199 DUP6 DUP3 DUP7 ADD PUSH2 0xF7 JUMP JUMPDEST SWAP2 POP POP SWAP3 POP SWAP3 SWAP1 POP JUMP JUMPDEST PUSH32 0x4E487B7100000000000000000000000000000000000000000000000000000000 PUSH1 0x0 MSTORE PUSH1 0x11 PUSH1 0x4 MSTORE PUSH1 0x24 PUSH1 0x0 REVERT JUMPDEST PUSH1 0x0 PUSH2 0x1DD DUP3 PUSH2 0xD6 JUMP JUMPDEST SWAP2 POP PUSH2 0x1E8 DUP4 PUSH2 0xD6 JUMP JUMPDEST SWAP3 POP DUP3 DUP3 MUL PUSH2 0x1F6 DUP2 PUSH2 0xD6 JUMP JUMPDEST SWAP2 POP PUSH32 0x8000000000000000000000000000000000000000000000000000000000000000 DUP5 EQ PUSH1 0x0 DUP5 SLT AND ISZERO PUSH2 0x22E JUMPI PUSH2 0x22D PUSH2 0x1A3 JUMP JUMPDEST JUMPDEST DUP3 DUP3 SDIV DUP5 EQ DUP4 ISZERO OR PUSH2 0x243 JUMPI PUSH2 0x242 PUSH2 0x1A3 JUMP JUMPDEST JUMPDEST POP SWAP3 SWAP2 POP POP JUMP JUMPDEST PUSH1 0x0 PUSH2 0x255 DUP3 PUSH2 0xD6 JUMP JUMPDEST SWAP2 POP PUSH2 0x260 DUP4 PUSH2 0xD6 JUMP JUMPDEST SWAP3 POP DUP3 DUP3 ADD SWAP1 POP DUP3 DUP2 SLT ISZERO PUSH1 0x0 DUP4 SLT AND DUP4 DUP3 SLT PUSH1 0x0 DUP5 SLT ISZERO AND OR ISZERO PUSH2 0x288 JUMPI PUSH2 0x287 PUSH2 0x1A3 JUMP JUMPDEST JUMPDEST SWAP3 SWAP2 POP POP JUMP INVALID LOG2 PUSH5 0x6970667358 0x22 SLT KECCAK256 0x29 0x4E 0x4F SWAP9 0xA9 DUP7 DUP3 0x21 PUSH20 0xE06E19FEBBCBFCBEEB21381E0AF18573FB910961 CREATE2 SIGNEXTEND PUSH17 0x64736F6C63430008120033000000000000 "
		},
		"gasEstimates": {
			"creation": {
				"codeDepositCost": "141600",
				"executionCost": "215",
				"totalCost": "141815"
			},
			"external": {
				"add(int256,int256)": "infinite",
				"applyFactor(int256)": "infinite"
			}
		},
		"methodIdentifiers": {
			"add(int256,int256)": "a5f3c23b",
			"applyFactor(int256)": "2d602bc0"
		}
	},
	"abi": [
		{
			"inputs": [
				{
					"internalType": "int256",
					"name": "self",
					"type": "int256"
				},
				{
					"internalType": "int256",
					"name": "num",
					"type": "int256"
				}
			],
			"name": "add",
			"outputs": [
				{
					"internalType": "int256",
					"name": "",
					"type": "int256"
				}
			],
			"stateMutability": "pure",
			"type": "function"
		},
		{
			"inputs": [
				{
					"internalType": "int256",
					"name": "self",
					"type": "int256"
				}
			],
			"name": "applyFactor",
			"outputs": [
				{
					"internalType": "int256",
					"name": "",
					"type": "int256"
				}
			],
			"stateMutability": "pure",
			"type": "function"
		}
	]
}